{"abi":[{"type":"constructor","inputs":[],"stateMutability":"nonpayable"},{"type":"function","name":"applyBooster","inputs":[{"name":"tokenId","type":"uint256","internalType":"uint256"}],"outputs":[],"stateMutability":"nonpayable"},{"type":"function","name":"approve","inputs":[{"name":"to","type":"address","internalType":"address"},{"name":"tokenId","type":"uint256","internalType":"uint256"}],"outputs":[],"stateMutability":"nonpayable"},{"type":"function","name":"balanceOf","inputs":[{"name":"owner","type":"address","internalType":"address"}],"outputs":[{"name":"","type":"uint256","internalType":"uint256"}],"stateMutability":"view"},{"type":"function","name":"forceTransfer","inputs":[{"name":"from","type":"address","internalType":"address"},{"name":"to","type":"address","internalType":"address"},{"name":"tokenId","type":"uint256","internalType":"uint256"}],"outputs":[],"stateMutability":"nonpayable"},{"type":"function","name":"getApproved","inputs":[{"name":"tokenId","type":"uint256","internalType":"uint256"}],"outputs":[{"name":"","type":"address","internalType":"address"}],"stateMutability":"view"},{"type":"function","name":"getSeedInfo","inputs":[{"name":"tokenId","type":"uint256","internalType":"uint256"}],"outputs":[{"name":"","type":"tuple","internalType":"struct SeedNFT.SeedInfo","components":[{"name":"cropType","type":"uint8","internalType":"enum SeedNFT.CropType"},{"name":"rarity","type":"uint8","internalType":"enum SeedNFT.Rarity"},{"name":"growthStage","type":"uint8","internalType":"enum SeedNFT.GrowthStage"},{"name":"growthStartTime","type":"uint256","internalType":"uint256"},{"name":"baseGrowthTime","type":"uint256","internalType":"uint256"},{"name":"maturedAt","type":"uint256","internalType":"uint256"},{"name":"boostersApplied","type":"uint8","internalType":"uint8"}]}],"stateMutability":"view"},{"type":"function","name":"isApprovedForAll","inputs":[{"name":"owner","type":"address","internalType":"address"},{"name":"operator","type":"address","internalType":"address"}],"outputs":[{"name":"","type":"bool","internalType":"bool"}],"stateMutability":"view"},{"type":"function","name":"matureSeed","inputs":[{"name":"tokenId","type":"uint256","internalType":"uint256"}],"outputs":[],"stateMutability":"nonpayable"},{"type":"function","name":"mintSeed","inputs":[{"name":"to","type":"address","internalType":"address"},{"name":"cropType","type":"uint8","internalType":"enum SeedNFT.CropType"},{"name":"rarity","type":"uint8","internalType":"enum SeedNFT.Rarity"}],"outputs":[{"name":"","type":"uint256","internalType":"uint256"}],"stateMutability":"nonpayable"},{"type":"function","name":"name","inputs":[],"outputs":[{"name":"","type":"string","internalType":"string"}],"stateMutability":"view"},{"type":"function","name":"owner","inputs":[],"outputs":[{"name":"","type":"address","internalType":"address"}],"stateMutability":"view"},{"type":"function","name":"ownerOf","inputs":[{"name":"tokenId","type":"uint256","internalType":"uint256"}],"outputs":[{"name":"","type":"address","internalType":"address"}],"stateMutability":"view"},{"type":"function","name":"renounceOwnership","inputs":[],"outputs":[],"stateMutability":"nonpayable"},{"type":"function","name":"safeTransferFrom","inputs":[{"name":"from","type":"address","internalType":"address"},{"name":"to","type":"address","internalType":"address"},{"name":"tokenId","type":"uint256","internalType":"uint256"}],"outputs":[],"stateMutability":"nonpayable"},{"type":"function","name":"safeTransferFrom","inputs":[{"name":"from","type":"address","internalType":"address"},{"name":"to","type":"address","internalType":"address"},{"name":"tokenId","type":"uint256","internalType":"uint256"},{"name":"data","type":"bytes","internalType":"bytes"}],"outputs":[],"stateMutability":"nonpayable"},{"type":"function","name":"seedInfo","inputs":[{"name":"","type":"uint256","internalType":"uint256"}],"outputs":[{"name":"cropType","type":"uint8","internalType":"enum SeedNFT.CropType"},{"name":"rarity","type":"uint8","internalType":"enum SeedNFT.Rarity"},{"name":"growthStage","type":"uint8","internalType":"enum SeedNFT.GrowthStage"},{"name":"growthStartTime","type":"uint256","internalType":"uint256"},{"name":"baseGrowthTime","type":"uint256","internalType":"uint256"},{"name":"maturedAt","type":"uint256","internalType":"uint256"},{"name":"boostersApplied","type":"uint8","internalType":"uint8"}],"stateMutability":"view"},{"type":"function","name":"setApprovalForAll","inputs":[{"name":"operator","type":"address","internalType":"address"},{"name":"approved","type":"bool","internalType":"bool"}],"outputs":[],"stateMutability":"nonpayable"},{"type":"function","name":"setBaseURI","inputs":[{"name":"baseURI","type":"string","internalType":"string"}],"outputs":[],"stateMutability":"nonpayable"},{"type":"function","name":"startGrowing","inputs":[{"name":"tokenId","type":"uint256","internalType":"uint256"}],"outputs":[],"stateMutability":"nonpayable"},{"type":"function","name":"supportsInterface","inputs":[{"name":"interfaceId","type":"bytes4","internalType":"bytes4"}],"outputs":[{"name":"","type":"bool","internalType":"bool"}],"stateMutability":"view"},{"type":"function","name":"symbol","inputs":[],"outputs":[{"name":"","type":"string","internalType":"string"}],"stateMutability":"view"},{"type":"function","name":"tokenURI","inputs":[{"name":"tokenId","type":"uint256","internalType":"uint256"}],"outputs":[{"name":"","type":"string","internalType":"string"}],"stateMutability":"view"},{"type":"function","name":"totalSupply","inputs":[],"outputs":[{"name":"","type":"uint256","internalType":"uint256"}],"stateMutability":"view"},{"type":"function","name":"transferFrom","inputs":[{"name":"from","type":"address","internalType":"address"},{"name":"to","type":"address","internalType":"address"},{"name":"tokenId","type":"uint256","internalType":"uint256"}],"outputs":[],"stateMutability":"nonpayable"},{"type":"function","name":"transferOwnership","inputs":[{"name":"newOwner","type":"address","internalType":"address"}],"outputs":[],"stateMutability":"nonpayable"},{"type":"event","name":"Approval","inputs":[{"name":"owner","type":"address","indexed":true,"internalType":"address"},{"name":"approved","type":"address","indexed":true,"internalType":"address"},{"name":"tokenId","type":"uint256","indexed":true,"internalType":"uint256"}],"anonymous":false},{"type":"event","name":"ApprovalForAll","inputs":[{"name":"owner","type":"address","indexed":true,"internalType":"address"},{"name":"operator","type":"address","indexed":true,"internalType":"address"},{"name":"approved","type":"bool","indexed":false,"internalType":"bool"}],"anonymous":false},{"type":"event","name":"GrowthStageUpdated","inputs":[{"name":"tokenId","type":"uint256","indexed":true,"internalType":"uint256"},{"name":"newStage","type":"uint8","indexed":false,"internalType":"enum SeedNFT.GrowthStage"}],"anonymous":false},{"type":"event","name":"OwnershipTransferred","inputs":[{"name":"previousOwner","type":"address","indexed":true,"internalType":"address"},{"name":"newOwner","type":"address","indexed":true,"internalType":"address"}],"anonymous":false},{"type":"event","name":"SeedMatured","inputs":[{"name":"tokenId","type":"uint256","indexed":true,"internalType":"uint256"},{"name":"maturedAt","type":"uint256","indexed":false,"internalType":"uint256"}],"anonymous":false},{"type":"event","name":"SeedMinted","inputs":[{"name":"tokenId","type":"uint256","indexed":true,"internalType":"uint256"},{"name":"to","type":"address","indexed":true,"internalType":"address"},{"name":"cropType","type":"uint8","indexed":false,"internalType":"enum SeedNFT.CropType"},{"name":"rarity","type":"uint8","indexed":false,"internalType":"enum SeedNFT.Rarity"}],"anonymous":false},{"type":"event","name":"Transfer","inputs":[{"name":"from","type":"address","indexed":true,"internalType":"address"},{"name":"to","type":"address","indexed":true,"internalType":"address"},{"name":"tokenId","type":"uint256","indexed":true,"internalType":"uint256"}],"anonymous":false},{"type":"error","name":"ERC721IncorrectOwner","inputs":[{"name":"sender","type":"address","internalType":"address"},{"name":"tokenId","type":"uint256","internalType":"uint256"},{"name":"owner","type":"address","internalType":"address"}]},{"type":"error","name":"ERC721InsufficientApproval","inputs":[{"name":"operator","type":"address","internalType":"address"},{"name":"tokenId","type":"uint256","internalType":"uint256"}]},{"type":"error","name":"ERC721InvalidApprover","inputs":[{"name":"approver","type":"address","internalType":"address"}]},{"type":"error","name":"ERC721InvalidOperator","inputs":[{"name":"operator","type":"address","internalType":"address"}]},{"type":"error","name":"ERC721InvalidOwner","inputs":[{"name":"owner","type":"address","internalType":"address"}]},{"type":"error","name":"ERC721InvalidReceiver","inputs":[{"name":"receiver","type":"address","internalType":"address"}]},{"type":"error","name":"ERC721InvalidSender","inputs":[{"name":"sender","type":"address","internalType":"address"}]},{"type":"error","name":"ERC721NonexistentToken","inputs":[{"name":"tokenId","type":"uint256","internalType":"uint256"}]},{"type":"error","name":"OwnableInvalidOwner","inputs":[{"name":"owner","type":"address","internalType":"address"}]},{"type":"error","name":"OwnableUnauthorizedAccount","inputs":[{"name":"account","type":"address","internalType":"address"}]}],"bytecode":{"object":"0x608060405234801562000010575f80fd5b50336040518060400160405280600d81526020017f4661726d2053656564204e4654000000000000000000000000000000000000008152506040518060400160405280600481526020017f5345454400000000000000000000000000000000000000000000000000000000815250815f90816200008e919062000455565b508060019081620000a0919062000455565b5050505f73ffffffffffffffffffffffffffffffffffffffff168173ffffffffffffffffffffffffffffffffffffffff160362000116575f6040517f1e4fbdf70000000000000000000000000000000000000000000000000000000081526004016200010d91906200057c565b60405180910390fd5b62000127816200012e60201b60201c565b5062000597565b5f60065f9054906101000a900473ffffffffffffffffffffffffffffffffffffffff1690508160065f6101000a81548173ffffffffffffffffffffffffffffffffffffffff021916908373ffffffffffffffffffffffffffffffffffffffff1602179055508173ffffffffffffffffffffffffffffffffffffffff168173ffffffffffffffffffffffffffffffffffffffff167f8be0079c531659141344cd1fd0a4f28419497f9722a3daafe3b4186f6b6457e060405160405180910390a35050565b5f81519050919050565b7f4e487b71000000000000000000000000000000000000000000000000000000005f52604160045260245ffd5b7f4e487b71000000000000000000000000000000000000000000000000000000005f52602260045260245ffd5b5f60028204905060018216806200026d57607f821691505b60208210810362000283576200028262000228565b5b50919050565b5f819050815f5260205f209050919050565b5f6020601f8301049050919050565b5f82821b905092915050565b5f60088302620002e77fffffffffffffffffffffffffffffffffffffffffffffffffffffffffffffffff82620002aa565b620002f38683620002aa565b95508019841693508086168417925050509392505050565b5f819050919050565b5f819050919050565b5f6200033d6200033762000331846200030b565b62000314565b6200030b565b9050919050565b5f819050919050565b62000358836200031d565b62000370620003678262000344565b848454620002b6565b825550505050565b5f90565b6200038662000378565b620003938184846200034d565b505050565b5b81811015620003ba57620003ae5f826200037c565b60018101905062000399565b5050565b601f8211156200040957620003d38162000289565b620003de846200029b565b81016020851015620003ee578190505b62000406620003fd856200029b565b83018262000398565b50505b505050565b5f82821c905092915050565b5f6200042b5f19846008026200040e565b1980831691505092915050565b5f6200044583836200041a565b9150826002028217905092915050565b6200046082620001f1565b67ffffffffffffffff8111156200047c576200047b620001fb565b5b62000488825462000255565b62000495828285620003be565b5f60209050601f831160018114620004cb575f8415620004b6578287015190505b620004c2858262000438565b86555062000531565b601f198416620004db8662000289565b5f5b828110156200050457848901518255600182019150602085019450602081019050620004dd565b8683101562000524578489015162000520601f8916826200041a565b8355505b6001600288020188555050505b505050505050565b5f73ffffffffffffffffffffffffffffffffffffffff82169050919050565b5f620005648262000539565b9050919050565b620005768162000558565b82525050565b5f602082019050620005915f8301846200056b565b92915050565b614fec80620005a55f395ff3fe608060405234801561000f575f80fd5b5060043610610171575f3560e01c8063715018a6116100dc578063cc6b2ac011610095578063e985e9c51161006f578063e985e9c51461045d578063f2fde38b1461048d578063f8e23937146104a9578063fb2ff94d146104c557610171565b8063cc6b2ac0146103db578063d0b3c02814610411578063dd9dbf251461042d57610171565b8063715018a61461032d5780638da5cb5b1461033757806395d89b4114610355578063a22cb46514610373578063b88d4fde1461038f578063c87b56dd146103ab57610171565b806333bebb771161012e57806333bebb771461024957806342842e0e1461026557806355f804b3146102815780635f7560b61461029d5780636352211e146102cd57806370a08231146102fd57610171565b806301ffc9a71461017557806306fdde03146101a5578063081812fc146101c3578063095ea7b3146101f357806318160ddd1461020f57806323b872dd1461022d575b5f80fd5b61018f600480360381019061018a91906131c5565b6104e1565b60405161019c919061320a565b60405180910390f35b6101ad6105c2565b6040516101ba91906132ad565b60405180910390f35b6101dd60048036038101906101d89190613300565b610651565b6040516101ea919061336a565b60405180910390f35b61020d600480360381019061020891906133ad565b61066c565b005b610217610682565b60405161022491906133fa565b60405180910390f35b61024760048036038101906102429190613413565b61068b565b005b610263600480360381019061025e9190613413565b61078a565b005b61027f600480360381019061027a9190613413565b610886565b005b61029b600480360381019061029691906134c4565b6108a5565b005b6102b760048036038101906102b29190613555565b6108c3565b6040516102c491906133fa565b60405180910390f35b6102e760048036038101906102e29190613300565b610aa1565b6040516102f4919061336a565b60405180910390f35b610317600480360381019061031291906135a5565b610ab2565b60405161032491906133fa565b60405180910390f35b610335610b68565b005b61033f610b7b565b60405161034c919061336a565b60405180910390f35b61035d610ba3565b60405161036a91906132ad565b60405180910390f35b61038d600480360381019061038891906135fa565b610c33565b005b6103a960048036038101906103a49190613760565b610c49565b005b6103c560048036038101906103c09190613300565b610c6e565b6040516103d291906132ad565b60405180910390f35b6103f560048036038101906103f09190613300565b610d3f565b60405161040897969594939291906138fa565b60405180910390f35b61042b60048036038101906104269190613300565b610dad565b005b61044760048036038101906104429190613300565b610f64565b6040516104549190613a3e565b60405180910390f35b61047760048036038101906104729190613a57565b6110ec565b604051610484919061320a565b60405180910390f35b6104a760048036038101906104a291906135a5565b61117a565b005b6104c360048036038101906104be9190613300565b6111fe565b005b6104df60048036038101906104da9190613300565b611393565b005b5f7f80ac58cd000000000000000000000000000000000000000000000000000000007bffffffffffffffffffffffffffffffffffffffffffffffffffffffff1916827bffffffffffffffffffffffffffffffffffffffffffffffffffffffff191614806105ab57507f5b5e139f000000000000000000000000000000000000000000000000000000007bffffffffffffffffffffffffffffffffffffffffffffffffffffffff1916827bffffffffffffffffffffffffffffffffffffffffffffffffffffffff1916145b806105bb57506105ba82611561565b5b9050919050565b60605f80546105d090613ac2565b80601f01602080910402602001604051908101604052809291908181526020018280546105fc90613ac2565b80156106475780601f1061061e57610100808354040283529160200191610647565b820191905f5260205f20905b81548152906001019060200180831161062a57829003601f168201915b5050505050905090565b5f61065b826115ca565b5061066582611650565b9050919050565b61067e8282610679611689565b611690565b5050565b5f600854905090565b5f73ffffffffffffffffffffffffffffffffffffffff168273ffffffffffffffffffffffffffffffffffffffff16036106fb575f6040517f64a0ae920000000000000000000000000000000000000000000000000000000081526004016106f2919061336a565b60405180910390fd5b5f61070e8383610709611689565b6116a2565b90508373ffffffffffffffffffffffffffffffffffffffff168173ffffffffffffffffffffffffffffffffffffffff1614610784578382826040517f64283d7b00000000000000000000000000000000000000000000000000000000815260040161077b93929190613af2565b60405180910390fd5b50505050565b6107926118ad565b8273ffffffffffffffffffffffffffffffffffffffff166107b282611934565b73ffffffffffffffffffffffffffffffffffffffff1614610808576040517f08c379a00000000000000000000000000000000000000000000000000000000081526004016107ff90613b97565b60405180910390fd5b5f73ffffffffffffffffffffffffffffffffffffffff168273ffffffffffffffffffffffffffffffffffffffff1603610876576040517f08c379a000000000000000000000000000000000000000000000000000000000815260040161086d90613c25565b60405180910390fd5b61088183838361196d565b505050565b6108a083838360405180602001604052805f815250610c49565b505050565b6108ad6118ad565b8181600991826108be929190613dea565b505050565b5f6108cc6118ad565b5f60085f8154809291906108df90613ee4565b9190505590506108ef8582611ad5565b5f6108f985611af2565b90506040518060e00160405280866005811115610919576109186137e0565b5b8152602001856002811115610931576109306137e0565b5b81526020015f6002811115610949576109486137e0565b5b81526020015f81526020018281526020015f81526020015f60ff1681525060075f8481526020019081526020015f205f820151815f015f6101000a81548160ff021916908360058111156109a05761099f6137e0565b5b02179055506020820151815f0160016101000a81548160ff021916908360028111156109cf576109ce6137e0565b5b02179055506040820151815f0160026101000a81548160ff021916908360028111156109fe576109fd6137e0565b5b0217905550606082015181600101556080820151816002015560a0820151816003015560c0820151816004015f6101000a81548160ff021916908360ff1602179055509050508573ffffffffffffffffffffffffffffffffffffffff16827fd2a1c352aee8b74ede52ceb90d152f5805ae0b36aafbdc26bb3f0b92e5b999768787604051610a8d929190613f2b565b60405180910390a381925050509392505050565b5f610aab826115ca565b9050919050565b5f8073ffffffffffffffffffffffffffffffffffffffff168273ffffffffffffffffffffffffffffffffffffffff1603610b23575f6040517f89c62b64000000000000000000000000000000000000000000000000000000008152600401610b1a919061336a565b60405180910390fd5b60035f8373ffffffffffffffffffffffffffffffffffffffff1673ffffffffffffffffffffffffffffffffffffffff1681526020019081526020015f20549050919050565b610b706118ad565b610b795f611c40565b565b5f60065f9054906101000a900473ffffffffffffffffffffffffffffffffffffffff16905090565b606060018054610bb290613ac2565b80601f0160208091040260200160405190810160405280929190818152602001828054610bde90613ac2565b8015610c295780601f10610c0057610100808354040283529160200191610c29565b820191905f5260205f20905b815481529060010190602001808311610c0c57829003601f168201915b5050505050905090565b610c45610c3e611689565b8383611d03565b5050565b610c5484848461068b565b610c68610c5f611689565b85858585611e6c565b50505050565b60605f73ffffffffffffffffffffffffffffffffffffffff16610c9083610aa1565b73ffffffffffffffffffffffffffffffffffffffff1603610ce6576040517f08c379a0000000000000000000000000000000000000000000000000000000008152600401610cdd90613fc2565b60405180910390fd5b5f60098054610cf490613ac2565b90501115610d2e576009610d0783612018565b604051602001610d1892919061409a565b6040516020818303038152906040529050610d3a565b610d37826120e2565b90505b919050565b6007602052805f5260405f205f91509050805f015f9054906101000a900460ff1690805f0160019054906101000a900460ff1690805f0160029054906101000a900460ff1690806001015490806002015490806003015490806004015f9054906101000a900460ff16905087565b610db56118ad565b5f73ffffffffffffffffffffffffffffffffffffffff16610dd582611934565b73ffffffffffffffffffffffffffffffffffffffff1603610e2b576040517f08c379a0000000000000000000000000000000000000000000000000000000008152600401610e2290614107565b60405180910390fd5b60016002811115610e3f57610e3e6137e0565b5b60075f8381526020019081526020015f205f0160029054906101000a900460ff166002811115610e7257610e716137e0565b5b14610eb2576040517f08c379a0000000000000000000000000000000000000000000000000000000008152600401610ea99061416f565b60405180910390fd5b600a60075f8381526020019081526020015f206004015f9054906101000a900460ff1660ff1610610f18576040517f08c379a0000000000000000000000000000000000000000000000000000000008152600401610f0f906141fd565b60405180910390fd5b60075f8281526020019081526020015f206004015f81819054906101000a900460ff1680929190610f489061421b565b91906101000a81548160ff021916908360ff1602179055505050565b610f6c6130f0565b5f73ffffffffffffffffffffffffffffffffffffffff16610f8c83611934565b73ffffffffffffffffffffffffffffffffffffffff1603610fe2576040517f08c379a0000000000000000000000000000000000000000000000000000000008152600401610fd990614107565b60405180910390fd5b60075f8381526020019081526020015f206040518060e00160405290815f82015f9054906101000a900460ff166005811115611021576110206137e0565b5b6005811115611033576110326137e0565b5b81526020015f820160019054906101000a900460ff16600281111561105b5761105a6137e0565b5b600281111561106d5761106c6137e0565b5b81526020015f820160029054906101000a900460ff166002811115611095576110946137e0565b5b60028111156110a7576110a66137e0565b5b8152602001600182015481526020016002820154815260200160038201548152602001600482015f9054906101000a900460ff1660ff1660ff16815250509050919050565b5f60055f8473ffffffffffffffffffffffffffffffffffffffff1673ffffffffffffffffffffffffffffffffffffffff1681526020019081526020015f205f8373ffffffffffffffffffffffffffffffffffffffff1673ffffffffffffffffffffffffffffffffffffffff1681526020019081526020015f205f9054906101000a900460ff16905092915050565b6111826118ad565b5f73ffffffffffffffffffffffffffffffffffffffff168173ffffffffffffffffffffffffffffffffffffffff16036111f2575f6040517f1e4fbdf70000000000000000000000000000000000000000000000000000000081526004016111e9919061336a565b60405180910390fd5b6111fb81611c40565b50565b6112066118ad565b5f73ffffffffffffffffffffffffffffffffffffffff1661122682611934565b73ffffffffffffffffffffffffffffffffffffffff160361127c576040517f08c379a000000000000000000000000000000000000000000000000000000000815260040161127390614107565b60405180910390fd5b5f600281111561128f5761128e6137e0565b5b60075f8381526020019081526020015f205f0160029054906101000a900460ff1660028111156112c2576112c16137e0565b5b14611302576040517f08c379a00000000000000000000000000000000000000000000000000000000081526004016112f9906142b3565b60405180910390fd5b600160075f8381526020019081526020015f205f0160026101000a81548160ff02191690836002811115611339576113386137e0565b5b02179055504260075f8381526020019081526020015f2060010181905550807fae2a42fecc20d0720a9b09511d809cad75a012c796fa22d523713c294f3d078b600160405161138891906142d1565b60405180910390a250565b61139b6118ad565b5f73ffffffffffffffffffffffffffffffffffffffff166113bb82611934565b73ffffffffffffffffffffffffffffffffffffffff1603611411576040517f08c379a000000000000000000000000000000000000000000000000000000000815260040161140890614107565b60405180910390fd5b60016002811115611425576114246137e0565b5b60075f8381526020019081526020015f205f0160029054906101000a900460ff166002811115611458576114576137e0565b5b14611498576040517f08c379a000000000000000000000000000000000000000000000000000000000815260040161148f9061416f565b60405180910390fd5b600260075f8381526020019081526020015f205f0160026101000a81548160ff021916908360028111156114cf576114ce6137e0565b5b02179055504260075f8381526020019081526020015f2060030181905550807fae2a42fecc20d0720a9b09511d809cad75a012c796fa22d523713c294f3d078b600260405161151e91906142d1565b60405180910390a2807f36d552c11d689c826dacc1a3fc7cf148fc38f7c41c39a1622ec313d8ea9bb98f4260405161155691906133fa565b60405180910390a250565b5f7f01ffc9a7000000000000000000000000000000000000000000000000000000007bffffffffffffffffffffffffffffffffffffffffffffffffffffffff1916827bffffffffffffffffffffffffffffffffffffffffffffffffffffffff1916149050919050565b5f806115d583611934565b90505f73ffffffffffffffffffffffffffffffffffffffff168173ffffffffffffffffffffffffffffffffffffffff160361164757826040517f7e27328900000000000000000000000000000000000000000000000000000000815260040161163e91906133fa565b60405180910390fd5b80915050919050565b5f60045f8381526020019081526020015f205f9054906101000a900473ffffffffffffffffffffffffffffffffffffffff169050919050565b5f33905090565b61169d83838360016122a7565b505050565b5f806116ad84611934565b90505f73ffffffffffffffffffffffffffffffffffffffff168373ffffffffffffffffffffffffffffffffffffffff16146116ee576116ed818486612466565b5b5f73ffffffffffffffffffffffffffffffffffffffff168173ffffffffffffffffffffffffffffffffffffffff16146117795761172d5f855f806122a7565b600160035f8373ffffffffffffffffffffffffffffffffffffffff1673ffffffffffffffffffffffffffffffffffffffff1681526020019081526020015f205f82825403925050819055505b5f73ffffffffffffffffffffffffffffffffffffffff168573ffffffffffffffffffffffffffffffffffffffff16146117f857600160035f8773ffffffffffffffffffffffffffffffffffffffff1673ffffffffffffffffffffffffffffffffffffffff1681526020019081526020015f205f82825401925050819055505b8460025f8681526020019081526020015f205f6101000a81548173ffffffffffffffffffffffffffffffffffffffff021916908373ffffffffffffffffffffffffffffffffffffffff160217905550838573ffffffffffffffffffffffffffffffffffffffff168273ffffffffffffffffffffffffffffffffffffffff167fddf252ad1be2c89b69c2b068fc378daa952ba7f163c4a11628f55a4df523b3ef60405160405180910390a4809150509392505050565b6118b5611689565b73ffffffffffffffffffffffffffffffffffffffff166118d3610b7b565b73ffffffffffffffffffffffffffffffffffffffff1614611932576118f6611689565b6040517f118cdaa7000000000000000000000000000000000000000000000000000000008152600401611929919061336a565b60405180910390fd5b565b5f60025f8381526020019081526020015f205f9054906101000a900473ffffffffffffffffffffffffffffffffffffffff169050919050565b5f73ffffffffffffffffffffffffffffffffffffffff168273ffffffffffffffffffffffffffffffffffffffff16036119dd575f6040517f64a0ae920000000000000000000000000000000000000000000000000000000081526004016119d4919061336a565b60405180910390fd5b5f6119e983835f6116a2565b90505f73ffffffffffffffffffffffffffffffffffffffff168173ffffffffffffffffffffffffffffffffffffffff1603611a5b57816040517f7e273289000000000000000000000000000000000000000000000000000000008152600401611a5291906133fa565b60405180910390fd5b8373ffffffffffffffffffffffffffffffffffffffff168173ffffffffffffffffffffffffffffffffffffffff1614611acf578382826040517f64283d7b000000000000000000000000000000000000000000000000000000008152600401611ac693929190613af2565b60405180910390fd5b50505050565b611aee828260405180602001604052805f815250612529565b5050565b5f806005811115611b0657611b056137e0565b5b826005811115611b1957611b186137e0565b5b03611b2857610e109050611c3b565b60016005811115611b3c57611b3b6137e0565b5b826005811115611b4f57611b4e6137e0565b5b03611b5e576115189050611c3b565b60026005811115611b7257611b716137e0565b5b826005811115611b8557611b846137e0565b5b03611b9457611c209050611c3b565b60036005811115611ba857611ba76137e0565b5b826005811115611bbb57611bba6137e0565b5b03611bca576111949050611c3b565b60046005811115611bde57611bdd6137e0565b5b826005811115611bf157611bf06137e0565b5b03611c00576117709050611c3b565b600580811115611c1357611c126137e0565b5b826005811115611c2657611c256137e0565b5b03611c35576119c89050611c3b565b610e1090505b919050565b5f60065f9054906101000a900473ffffffffffffffffffffffffffffffffffffffff1690508160065f6101000a81548173ffffffffffffffffffffffffffffffffffffffff021916908373ffffffffffffffffffffffffffffffffffffffff1602179055508173ffffffffffffffffffffffffffffffffffffffff168173ffffffffffffffffffffffffffffffffffffffff167f8be0079c531659141344cd1fd0a4f28419497f9722a3daafe3b4186f6b6457e060405160405180910390a35050565b5f73ffffffffffffffffffffffffffffffffffffffff168273ffffffffffffffffffffffffffffffffffffffff1603611d7357816040517f5b08ba18000000000000000000000000000000000000000000000000000000008152600401611d6a919061336a565b60405180910390fd5b8060055f8573ffffffffffffffffffffffffffffffffffffffff1673ffffffffffffffffffffffffffffffffffffffff1681526020019081526020015f205f8473ffffffffffffffffffffffffffffffffffffffff1673ffffffffffffffffffffffffffffffffffffffff1681526020019081526020015f205f6101000a81548160ff0219169083151502179055508173ffffffffffffffffffffffffffffffffffffffff168373ffffffffffffffffffffffffffffffffffffffff167f17307eab39ab6107e8899845ad3d59bd9653f200f220920489ca2b5937696c3183604051611e5f919061320a565b60405180910390a3505050565b5f8373ffffffffffffffffffffffffffffffffffffffff163b1115612011578273ffffffffffffffffffffffffffffffffffffffff1663150b7a02868685856040518563ffffffff1660e01b8152600401611eca949392919061433c565b6020604051808303815f875af1925050508015611f0557506040513d601f19601f82011682018060405250810190611f02919061439a565b60015b611f86573d805f8114611f33576040519150601f19603f3d011682016040523d82523d5f602084013e611f38565b606091505b505f815103611f7e57836040517f64a0ae92000000000000000000000000000000000000000000000000000000008152600401611f75919061336a565b60405180910390fd5b805160208201fd5b63150b7a0260e01b7bffffffffffffffffffffffffffffffffffffffffffffffffffffffff1916817bffffffffffffffffffffffffffffffffffffffffffffffffffffffff19161461200f57836040517f64a0ae92000000000000000000000000000000000000000000000000000000008152600401612006919061336a565b60405180910390fd5b505b5050505050565b60605f60016120268461254c565b0190505f8167ffffffffffffffff8111156120445761204361363c565b5b6040519080825280601f01601f1916602001820160405280156120765781602001600182028036833780820191505090505b5090505f82602083010190505b6001156120d7578080600190039150507f3031323334353637383961626364656600000000000000000000000000000000600a86061a8153600a85816120cc576120cb6143c5565b5b0494505f8503612083575b819350505050919050565b60605f60075f8481526020019081526020015f206040518060e00160405290815f82015f9054906101000a900460ff166005811115612124576121236137e0565b5b6005811115612136576121356137e0565b5b81526020015f820160019054906101000a900460ff16600281111561215e5761215d6137e0565b5b60028111156121705761216f6137e0565b5b81526020015f820160029054906101000a900460ff166002811115612198576121976137e0565b5b60028111156121aa576121a96137e0565b5b8152602001600182015481526020016002820154815260200160038201548152602001600482015f9054906101000a900460ff1660ff1660ff168152505090505f6121f5848361269d565b90505f612204835f01516127b3565b6122118460400151612a67565b61221e8560200151612be0565b61222a865f01516127b3565b6122378760400151612a67565b61224d885f015189604001518a60200151612d59565b87604051602001612264979695949392919061468c565b604051602081830303815290604052905061227e81612da0565b60405160200161228e91906147b3565b6040516020818303038152906040529350505050919050565b80806122df57505f73ffffffffffffffffffffffffffffffffffffffff168273ffffffffffffffffffffffffffffffffffffffff1614155b15612411575f6122ee846115ca565b90505f73ffffffffffffffffffffffffffffffffffffffff168373ffffffffffffffffffffffffffffffffffffffff161415801561235857508273ffffffffffffffffffffffffffffffffffffffff168173ffffffffffffffffffffffffffffffffffffffff1614155b801561236b575061236981846110ec565b155b156123ad57826040517fa9fbf51f0000000000000000000000000000000000000000000000000000000081526004016123a4919061336a565b60405180910390fd5b811561240f57838573ffffffffffffffffffffffffffffffffffffffff168273ffffffffffffffffffffffffffffffffffffffff167f8c5be1e5ebec7d5bd14f71427d1e84f3dd0314c0f7b2291e5b200ac8c7c3b92560405160405180910390a45b505b8360045f8581526020019081526020015f205f6101000a81548173ffffffffffffffffffffffffffffffffffffffff021916908373ffffffffffffffffffffffffffffffffffffffff16021790555050505050565b612471838383612db3565b612524575f73ffffffffffffffffffffffffffffffffffffffff168373ffffffffffffffffffffffffffffffffffffffff16036124e557806040517f7e2732890000000000000000000000000000000000000000000000000000000081526004016124dc91906133fa565b60405180910390fd5b81816040517f177e802f00000000000000000000000000000000000000000000000000000000815260040161251b9291906147d4565b60405180910390fd5b505050565b6125338383612e73565b61254761253e611689565b5f858585611e6c565b505050565b5f805f90507a184f03e93ff9f4daa797ed6e38ed64bf6a1f01000000000000000083106125a8577a184f03e93ff9f4daa797ed6e38ed64bf6a1f010000000000000000838161259e5761259d6143c5565b5b0492506040810190505b6d04ee2d6d415b85acef810000000083106125e5576d04ee2d6d415b85acef810000000083816125db576125da6143c5565b5b0492506020810190505b662386f26fc10000831061261457662386f26fc10000838161260a576126096143c5565b5b0492506010810190505b6305f5e100831061263d576305f5e1008381612633576126326143c5565b5b0492506008810190505b6127108310612662576127108381612658576126576143c5565b5b0492506004810190505b60648310612685576064838161267b5761267a6143c5565b5b0492506002810190505b600a8310612694576001810190505b80915050919050565b60606126ab825f01516127b3565b6126b88360200151612be0565b6126c58460400151612a67565b6126de603c86608001516126d991906147fb565b612018565b6126ee8660c0015160ff16612018565b5f87606001511161270d5760405180602001604052805f81525061273a565b61271a8760600151612018565b60405160200161272a91906148e5565b6040516020818303038152906040525b5f8860a00151116127595760405180602001604052805f815250612786565b6127668860a00151612018565b6040516020016127769190614981565b6040516020818303038152906040525b60405160200161279c9796959493929190614d2b565b604051602081830303815290604052905092915050565b60605f60058111156127c8576127c76137e0565b5b8260058111156127db576127da6137e0565b5b0361281d576040518060400160405280600581526020017f57686561740000000000000000000000000000000000000000000000000000008152509050612a62565b60016005811115612831576128306137e0565b5b826005811115612844576128436137e0565b5b03612886576040518060400160405280600481526020017f436f726e000000000000000000000000000000000000000000000000000000008152509050612a62565b6002600581111561289a576128996137e0565b5b8260058111156128ad576128ac6137e0565b5b036128ef576040518060400160405280600781526020017f50756d706b696e000000000000000000000000000000000000000000000000008152509050612a62565b60036005811115612903576129026137e0565b5b826005811115612916576129156137e0565b5b03612958576040518060400160405280600a81526020017f53747261776265727279000000000000000000000000000000000000000000008152509050612a62565b6004600581111561296c5761296b6137e0565b5b82600581111561297f5761297e6137e0565b5b036129c1576040518060400160405280600581526020017f47726170650000000000000000000000000000000000000000000000000000008152509050612a62565b6005808111156129d4576129d36137e0565b5b8260058111156129e7576129e66137e0565b5b03612a29576040518060400160405280600a81526020017f57617465726d656c6f6e000000000000000000000000000000000000000000008152509050612a62565b6040518060400160405280600781526020017f556e6b6e6f776e0000000000000000000000000000000000000000000000000081525090505b919050565b60605f6002811115612a7c57612a7b6137e0565b5b826002811115612a8f57612a8e6137e0565b5b03612ad1576040518060400160405280600481526020017f53656564000000000000000000000000000000000000000000000000000000008152509050612bdb565b60016002811115612ae557612ae46137e0565b5b826002811115612af857612af76137e0565b5b03612b3a576040518060400160405280600781526020017f47726f77696e67000000000000000000000000000000000000000000000000008152509050612bdb565b600280811115612b4d57612b4c6137e0565b5b826002811115612b6057612b5f6137e0565b5b03612ba2576040518060400160405280600681526020017f4d617475726500000000000000000000000000000000000000000000000000008152509050612bdb565b6040518060400160405280600781526020017f556e6b6e6f776e0000000000000000000000000000000000000000000000000081525090505b919050565b60605f6002811115612bf557612bf46137e0565b5b826002811115612c0857612c076137e0565b5b03612c4a576040518060400160405280600681526020017f436f6d6d6f6e00000000000000000000000000000000000000000000000000008152509050612d54565b60016002811115612c5e57612c5d6137e0565b5b826002811115612c7157612c706137e0565b5b03612cb3576040518060400160405280600481526020017f52617265000000000000000000000000000000000000000000000000000000008152509050612d54565b600280811115612cc657612cc56137e0565b5b826002811115612cd957612cd86137e0565b5b03612d1b576040518060400160405280600981526020017f4c6567656e6461727900000000000000000000000000000000000000000000008152509050612d54565b6040518060400160405280600781526020017f556e6b6e6f776e0000000000000000000000000000000000000000000000000081525090505b919050565b6060612d64846127b3565b612d6d84612a67565b612d7684612be0565b604051602001612d8893929190614ee6565b60405160208183030381529060405290509392505050565b6060612dac825f612f66565b9050919050565b5f8073ffffffffffffffffffffffffffffffffffffffff168373ffffffffffffffffffffffffffffffffffffffff1614158015612e6a57508273ffffffffffffffffffffffffffffffffffffffff168473ffffffffffffffffffffffffffffffffffffffff161480612e2b5750612e2a84846110ec565b5b80612e6957508273ffffffffffffffffffffffffffffffffffffffff16612e5183611650565b73ffffffffffffffffffffffffffffffffffffffff16145b5b90509392505050565b5f73ffffffffffffffffffffffffffffffffffffffff168273ffffffffffffffffffffffffffffffffffffffff1603612ee3575f6040517f64a0ae92000000000000000000000000000000000000000000000000000000008152600401612eda919061336a565b60405180910390fd5b5f612eef83835f6116a2565b90505f73ffffffffffffffffffffffffffffffffffffffff168173ffffffffffffffffffffffffffffffffffffffff1614612f61575f6040517f73c6ac6e000000000000000000000000000000000000000000000000000000008152600401612f58919061336a565b60405180910390fd5b505050565b60605f835103612f865760405180602001604052805f81525090506130ea565b5f82612fb757600360028551612f9c9190614f42565b612fa691906147fb565b6004612fb29190614f75565b612fde565b6003600285516004612fc99190614f75565b612fd39190614f42565b612fdd91906147fb565b5b905060405191507f4142434445464748494a4b4c4d4e4f505152535455565758595a616263646566601f5261067083027f6768696a6b6c6d6e6f707172737475767778797a303132333435363738392b2f18603f526020820181810185865187016020810180515f82525b8284101561309c576003840193508351603f8160121c16518753600187019650603f81600c1c16518753600187019650603f8160061c16518753600187019650603f811651875360018701965050613049565b808252886130db5760038a5106600181146130be57600281146130d1576130d9565b603d6001880353603d60028803536130d9565b603d60018803535b505b86885284604052505050505050505b92915050565b6040518060e001604052805f600581111561310e5761310d6137e0565b5b81526020015f6002811115613126576131256137e0565b5b81526020015f600281111561313e5761313d6137e0565b5b81526020015f81526020015f81526020015f81526020015f60ff1681525090565b5f604051905090565b5f80fd5b5f80fd5b5f7fffffffff0000000000000000000000000000000000000000000000000000000082169050919050565b6131a481613170565b81146131ae575f80fd5b50565b5f813590506131bf8161319b565b92915050565b5f602082840312156131da576131d9613168565b5b5f6131e7848285016131b1565b91505092915050565b5f8115159050919050565b613204816131f0565b82525050565b5f60208201905061321d5f8301846131fb565b92915050565b5f81519050919050565b5f82825260208201905092915050565b5f5b8381101561325a57808201518184015260208101905061323f565b5f8484015250505050565b5f601f19601f8301169050919050565b5f61327f82613223565b613289818561322d565b935061329981856020860161323d565b6132a281613265565b840191505092915050565b5f6020820190508181035f8301526132c58184613275565b905092915050565b5f819050919050565b6132df816132cd565b81146132e9575f80fd5b50565b5f813590506132fa816132d6565b92915050565b5f6020828403121561331557613314613168565b5b5f613322848285016132ec565b91505092915050565b5f73ffffffffffffffffffffffffffffffffffffffff82169050919050565b5f6133548261332b565b9050919050565b6133648161334a565b82525050565b5f60208201905061337d5f83018461335b565b92915050565b61338c8161334a565b8114613396575f80fd5b50565b5f813590506133a781613383565b92915050565b5f80604083850312156133c3576133c2613168565b5b5f6133d085828601613399565b92505060206133e1858286016132ec565b9150509250929050565b6133f4816132cd565b82525050565b5f60208201905061340d5f8301846133eb565b92915050565b5f805f6060848603121561342a57613429613168565b5b5f61343786828701613399565b935050602061344886828701613399565b9250506040613459868287016132ec565b9150509250925092565b5f80fd5b5f80fd5b5f80fd5b5f8083601f84011261348457613483613463565b5b8235905067ffffffffffffffff8111156134a1576134a0613467565b5b6020830191508360018202830111156134bd576134bc61346b565b5b9250929050565b5f80602083850312156134da576134d9613168565b5b5f83013567ffffffffffffffff8111156134f7576134f661316c565b5b6135038582860161346f565b92509250509250929050565b6006811061351b575f80fd5b50565b5f8135905061352c8161350f565b92915050565b6003811061353e575f80fd5b50565b5f8135905061354f81613532565b92915050565b5f805f6060848603121561356c5761356b613168565b5b5f61357986828701613399565b935050602061358a8682870161351e565b925050604061359b86828701613541565b9150509250925092565b5f602082840312156135ba576135b9613168565b5b5f6135c784828501613399565b91505092915050565b6135d9816131f0565b81146135e3575f80fd5b50565b5f813590506135f4816135d0565b92915050565b5f80604083850312156136105761360f613168565b5b5f61361d85828601613399565b925050602061362e858286016135e6565b9150509250929050565b5f80fd5b7f4e487b71000000000000000000000000000000000000000000000000000000005f52604160045260245ffd5b61367282613265565b810181811067ffffffffffffffff821117156136915761369061363c565b5b80604052505050565b5f6136a361315f565b90506136af8282613669565b919050565b5f67ffffffffffffffff8211156136ce576136cd61363c565b5b6136d782613265565b9050602081019050919050565b828183375f83830152505050565b5f6137046136ff846136b4565b61369a565b9050828152602081018484840111156137205761371f613638565b5b61372b8482856136e4565b509392505050565b5f82601f83011261374757613746613463565b5b81356137578482602086016136f2565b91505092915050565b5f805f806080858703121561377857613777613168565b5b5f61378587828801613399565b945050602061379687828801613399565b93505060406137a7878288016132ec565b925050606085013567ffffffffffffffff8111156137c8576137c761316c565b5b6137d487828801613733565b91505092959194509250565b7f4e487b71000000000000000000000000000000000000000000000000000000005f52602160045260245ffd5b6006811061381e5761381d6137e0565b5b50565b5f81905061382e8261380d565b919050565b5f61383d82613821565b9050919050565b61384d81613833565b82525050565b60038110613864576138636137e0565b5b50565b5f81905061387482613853565b919050565b5f61388382613867565b9050919050565b61389381613879565b82525050565b600381106138aa576138a96137e0565b5b50565b5f8190506138ba82613899565b919050565b5f6138c9826138ad565b9050919050565b6138d9816138bf565b82525050565b5f60ff82169050919050565b6138f4816138df565b82525050565b5f60e08201905061390d5f83018a613844565b61391a602083018961388a565b61392760408301886138d0565b61393460608301876133eb565b61394160808301866133eb565b61394e60a08301856133eb565b61395b60c08301846138eb565b98975050505050505050565b61397081613833565b82525050565b61397f81613879565b82525050565b61398e816138bf565b82525050565b61399d816132cd565b82525050565b6139ac816138df565b82525050565b60e082015f8201516139c65f850182613967565b5060208201516139d96020850182613976565b5060408201516139ec6040850182613985565b5060608201516139ff6060850182613994565b506080820151613a126080850182613994565b5060a0820151613a2560a0850182613994565b5060c0820151613a3860c08501826139a3565b50505050565b5f60e082019050613a515f8301846139b2565b92915050565b5f8060408385031215613a6d57613a6c613168565b5b5f613a7a85828601613399565b9250506020613a8b85828601613399565b9150509250929050565b7f4e487b71000000000000000000000000000000000000000000000000000000005f52602260045260245ffd5b5f6002820490506001821680613ad957607f821691505b602082108103613aec57613aeb613a95565b5b50919050565b5f606082019050613b055f83018661335b565b613b1260208301856133eb565b613b1f604083018461335b565b949350505050565b7f536565644e46543a205472616e736665722066726f6d20696e636f72726563745f8201527f206f776e65720000000000000000000000000000000000000000000000000000602082015250565b5f613b8160268361322d565b9150613b8c82613b27565b604082019050919050565b5f6020820190508181035f830152613bae81613b75565b9050919050565b7f536565644e46543a205472616e7366657220746f207a65726f206164647265735f8201527f7300000000000000000000000000000000000000000000000000000000000000602082015250565b5f613c0f60218361322d565b9150613c1a82613bb5565b604082019050919050565b5f6020820190508181035f830152613c3c81613c03565b9050919050565b5f82905092915050565b5f819050815f5260205f209050919050565b5f6020601f8301049050919050565b5f82821b905092915050565b5f60088302613ca97fffffffffffffffffffffffffffffffffffffffffffffffffffffffffffffffff82613c6e565b613cb38683613c6e565b95508019841693508086168417925050509392505050565b5f819050919050565b5f613cee613ce9613ce4846132cd565b613ccb565b6132cd565b9050919050565b5f819050919050565b613d0783613cd4565b613d1b613d1382613cf5565b848454613c7a565b825550505050565b5f90565b613d2f613d23565b613d3a818484613cfe565b505050565b5b81811015613d5d57613d525f82613d27565b600181019050613d40565b5050565b601f821115613da257613d7381613c4d565b613d7c84613c5f565b81016020851015613d8b578190505b613d9f613d9785613c5f565b830182613d3f565b50505b505050565b5f82821c905092915050565b5f613dc25f1984600802613da7565b1980831691505092915050565b5f613dda8383613db3565b9150826002028217905092915050565b613df48383613c43565b67ffffffffffffffff811115613e0d57613e0c61363c565b5b613e178254613ac2565b613e22828285613d61565b5f601f831160018114613e4f575f8415613e3d578287013590505b613e478582613dcf565b865550613eae565b601f198416613e5d86613c4d565b5f5b82811015613e8457848901358255600182019150602085019450602081019050613e5f565b86831015613ea15784890135613e9d601f891682613db3565b8355505b6001600288020188555050505b50505050505050565b7f4e487b71000000000000000000000000000000000000000000000000000000005f52601160045260245ffd5b5f613eee826132cd565b91507fffffffffffffffffffffffffffffffffffffffffffffffffffffffffffffffff8203613f2057613f1f613eb7565b5b600182019050919050565b5f604082019050613f3e5f830185613844565b613f4b602083018461388a565b9392505050565b7f536565644e46543a2055524920717565727920666f72206e6f6e6578697374655f8201527f6e7420746f6b656e000000000000000000000000000000000000000000000000602082015250565b5f613fac60288361322d565b9150613fb782613f52565b604082019050919050565b5f6020820190508181035f830152613fd981613fa0565b9050919050565b5f81905092915050565b5f8154613ff681613ac2565b6140008186613fe0565b9450600182165f811461401a576001811461402f57614061565b60ff1983168652811515820286019350614061565b61403885613c4d565b5f5b838110156140595781548189015260018201915060208101905061403a565b838801955050505b50505092915050565b5f61407482613223565b61407e8185613fe0565b935061408e81856020860161323d565b80840191505092915050565b5f6140a58285613fea565b91506140b1828461406a565b91508190509392505050565b7f536565644e46543a20546f6b656e20646f6573206e6f742065786973740000005f82015250565b5f6140f1601d8361322d565b91506140fc826140bd565b602082019050919050565b5f6020820190508181035f83015261411e816140e5565b9050919050565b7f536565644e46543a2053656564206e6f742067726f77696e67000000000000005f82015250565b5f61415960198361322d565b915061416482614125565b602082019050919050565b5f6020820190508181035f8301526141868161414d565b9050919050565b7f536565644e46543a204d6178696d756d20626f6f7374657273206170706c69655f8201527f6400000000000000000000000000000000000000000000000000000000000000602082015250565b5f6141e760218361322d565b91506141f28261418d565b604082019050919050565b5f6020820190508181035f830152614214816141db565b9050919050565b5f614225826138df565b915060ff820361423857614237613eb7565b5b600182019050919050565b7f536565644e46543a205365656420616c72656164792067726f77696e67206f725f8201527f206d617475726500000000000000000000000000000000000000000000000000602082015250565b5f61429d60278361322d565b91506142a882614243565b604082019050919050565b5f6020820190508181035f8301526142ca81614291565b9050919050565b5f6020820190506142e45f8301846138d0565b92915050565b5f81519050919050565b5f82825260208201905092915050565b5f61430e826142ea565b61431881856142f4565b935061432881856020860161323d565b61433181613265565b840191505092915050565b5f60808201905061434f5f83018761335b565b61435c602083018661335b565b61436960408301856133eb565b818103606083015261437b8184614304565b905095945050505050565b5f815190506143948161319b565b92915050565b5f602082840312156143af576143ae613168565b5b5f6143bc84828501614386565b91505092915050565b7f4e487b71000000000000000000000000000000000000000000000000000000005f52601260045260245ffd5b7f7b226e616d65223a2022000000000000000000000000000000000000000000005f82015250565b5f614426600a83613fe0565b9150614431826143f2565b600a82019050919050565b7f20000000000000000000000000000000000000000000000000000000000000005f82015250565b5f614470600183613fe0565b915061447b8261443c565b600182019050919050565b7f222c0000000000000000000000000000000000000000000000000000000000005f82015250565b5f6144ba600283613fe0565b91506144c582614486565b600282019050919050565b7f226465736372697074696f6e223a2022412000000000000000000000000000005f82015250565b5f614504601283613fe0565b915061450f826144d0565b601282019050919050565b7f20696e20000000000000000000000000000000000000000000000000000000005f82015250565b5f61454e600483613fe0565b91506145598261451a565b600482019050919050565b7f2073746167652066726f6d204661726d2047616d65222c0000000000000000005f82015250565b5f614598601783613fe0565b91506145a382614564565b601782019050919050565b7f22696d616765223a2022000000000000000000000000000000000000000000005f82015250565b5f6145e2600a83613fe0565b91506145ed826145ae565b600a82019050919050565b7f2261747472696275746573223a200000000000000000000000000000000000005f82015250565b5f61462c600e83613fe0565b9150614637826145f8565b600e82019050919050565b7f7d000000000000000000000000000000000000000000000000000000000000005f82015250565b5f614676600183613fe0565b915061468182614642565b600182019050919050565b5f6146968261441a565b91506146a2828a61406a565b91506146ad82614464565b91506146b9828961406a565b91506146c4826144ae565b91506146cf826144f8565b91506146db828861406a565b91506146e682614464565b91506146f2828761406a565b91506146fd82614542565b9150614709828661406a565b91506147148261458c565b915061471f826145d6565b915061472b828561406a565b9150614736826144ae565b915061474182614620565b915061474d828461406a565b91506147588261466a565b915081905098975050505050505050565b7f646174613a6170706c69636174696f6e2f6a736f6e3b6261736536342c0000005f82015250565b5f61479d601d83613fe0565b91506147a882614769565b601d82019050919050565b5f6147bd82614791565b91506147c9828461406a565b915081905092915050565b5f6040820190506147e75f83018561335b565b6147f460208301846133eb565b9392505050565b5f614805826132cd565b9150614810836132cd565b9250826148205761481f6143c5565b5b828204905092915050565b7f2c7b2274726169745f74797065223a202247726f7774682053746172746564225f8201527f2c202276616c7565223a20000000000000000000000000000000000000000000602082015250565b5f614885602b83613fe0565b91506148908261482b565b602b82019050919050565b7f2c2022646973706c61795f74797065223a202264617465227d000000000000005f82015250565b5f6148cf601983613fe0565b91506148da8261489b565b601982019050919050565b5f6148ef82614879565b91506148fb828461406a565b9150614906826148c3565b915081905092915050565b7f2c7b2274726169745f74797065223a20224d617475726564204174222c2022765f8201527f616c7565223a2000000000000000000000000000000000000000000000000000602082015250565b5f61496b602783613fe0565b915061497682614911565b602782019050919050565b5f61498b8261495f565b9150614997828461406a565b91506149a2826148c3565b915081905092915050565b7f5b7b2274726169745f74797065223a202243726f702054797065222c202276615f8201527f6c7565223a202200000000000000000000000000000000000000000000000000602082015250565b5f614a07602783613fe0565b9150614a12826149ad565b602782019050919050565b7f227d2c00000000000000000000000000000000000000000000000000000000005f82015250565b5f614a51600383613fe0565b9150614a5c82614a1d565b600382019050919050565b7f7b2274726169745f74797065223a2022526172697479222c202276616c7565225f8201527f3a20220000000000000000000000000000000000000000000000000000000000602082015250565b5f614ac1602383613fe0565b9150614acc82614a67565b602382019050919050565b7f7b2274726169745f74797065223a202247726f777468205374616765222c20225f8201527f76616c7565223a20220000000000000000000000000000000000000000000000602082015250565b5f614b31602983613fe0565b9150614b3c82614ad7565b602982019050919050565b7f7b2274726169745f74797065223a2022426173652047726f7774682054696d655f8201527f222c202276616c7565223a200000000000000000000000000000000000000000602082015250565b5f614ba1602c83613fe0565b9150614bac82614b47565b602c82019050919050565b7f2c2022646973706c61795f74797065223a20226e756d626572222c2022756e695f8201527f74223a20226d696e75746573227d2c0000000000000000000000000000000000602082015250565b5f614c11602f83613fe0565b9150614c1c82614bb7565b602f82019050919050565b7f7b2274726169745f74797065223a2022426f6f7374657273204170706c6965645f8201527f222c202276616c7565223a200000000000000000000000000000000000000000602082015250565b5f614c81602c83613fe0565b9150614c8c82614c27565b602c82019050919050565b7f2c2022646973706c61795f74797065223a20226e756d626572227d00000000005f82015250565b5f614ccb601b83613fe0565b9150614cd682614c97565b601b82019050919050565b7f5d000000000000000000000000000000000000000000000000000000000000005f82015250565b5f614d15600183613fe0565b9150614d2082614ce1565b600182019050919050565b5f614d35826149fb565b9150614d41828a61406a565b9150614d4c82614a45565b9150614d5782614ab5565b9150614d63828961406a565b9150614d6e82614a45565b9150614d7982614b25565b9150614d85828861406a565b9150614d9082614a45565b9150614d9b82614b95565b9150614da7828761406a565b9150614db282614c05565b9150614dbd82614c75565b9150614dc9828661406a565b9150614dd482614cbf565b9150614de0828561406a565b9150614dec828461406a565b9150614df782614d09565b915081905098975050505050505050565b7f68747470733a2f2f6661726d2d6173736574732e6578616d706c652e636f6d2f5f82015250565b5f614e3c602083613fe0565b9150614e4782614e08565b602082019050919050565b7f5f000000000000000000000000000000000000000000000000000000000000005f82015250565b5f614e86600183613fe0565b9150614e9182614e52565b600182019050919050565b7f2e706e67000000000000000000000000000000000000000000000000000000005f82015250565b5f614ed0600483613fe0565b9150614edb82614e9c565b600482019050919050565b5f614ef082614e30565b9150614efc828661406a565b9150614f0782614e7a565b9150614f13828561406a565b9150614f1e82614e7a565b9150614f2a828461406a565b9150614f3582614ec4565b9150819050949350505050565b5f614f4c826132cd565b9150614f57836132cd565b9250828201905080821115614f6f57614f6e613eb7565b5b92915050565b5f614f7f826132cd565b9150614f8a836132cd565b9250828202614f98816132cd565b91508282048414831517614faf57614fae613eb7565b5b509291505056fea264697066735822122091c64d7a4adcf112d7b6759fe4f5fb1e4f70fde6b3e361ce4378b4353ebd904564736f6c63430008180033","linkReferences":{}},"methodIdentifiers":{"applyBooster(uint256)":"d0b3c028","approve(address,uint256)":"095ea7b3","balanceOf(address)":"70a08231","forceTransfer(address,address,uint256)":"33bebb77","getApproved(uint256)":"081812fc","getSeedInfo(uint256)":"dd9dbf25","isApprovedForAll(address,address)":"e985e9c5","matureSeed(uint256)":"fb2ff94d","mintSeed(address,uint8,uint8)":"5f7560b6","name()":"06fdde03","owner()":"8da5cb5b","ownerOf(uint256)":"6352211e","renounceOwnership()":"715018a6","safeTransferFrom(address,address,uint256)":"42842e0e","safeTransferFrom(address,address,uint256,bytes)":"b88d4fde","seedInfo(uint256)":"cc6b2ac0","setApprovalForAll(address,bool)":"a22cb465","setBaseURI(string)":"55f804b3","startGrowing(uint256)":"f8e23937","supportsInterface(bytes4)":"01ffc9a7","symbol()":"95d89b41","tokenURI(uint256)":"c87b56dd","totalSupply()":"18160ddd","transferFrom(address,address,uint256)":"23b872dd","transferOwnership(address)":"f2fde38b"},"id":43}