{"abi":[{"type":"constructor","inputs":[{"name":"_seedNFT","type":"address","internalType":"address"},{"name":"_landNFT","type":"address","internalType":"address"},{"name":"_shop","type":"address","internalType":"address"},{"name":"_kindToken","type":"address","internalType":"address"}],"stateMutability":"nonpayable"},{"type":"function","name":"DAILY_HELP_LIMIT","inputs":[],"outputs":[{"name":"","type":"uint256","internalType":"uint256"}],"stateMutability":"view"},{"type":"function","name":"FERTILIZING_PERCENTAGE_REDUCTION","inputs":[],"outputs":[{"name":"","type":"uint256","internalType":"uint256"}],"stateMutability":"view"},{"type":"function","name":"MAX_BOOSTERS_PER_CROP","inputs":[],"outputs":[{"name":"","type":"uint256","internalType":"uint256"}],"stateMutability":"view"},{"type":"function","name":"WATERING_TIME_REDUCTION","inputs":[],"outputs":[{"name":"","type":"uint256","internalType":"uint256"}],"stateMutability":"view"},{"type":"function","name":"applyBooster","inputs":[{"name":"landId","type":"uint256","internalType":"uint256"},{"name":"boosterType","type":"uint8","internalType":"enum FarmGame.BoosterType"},{"name":"payWithKind","type":"bool","internalType":"bool"}],"outputs":[],"stateMutability":"payable"},{"type":"function","name":"boosterPrices","inputs":[{"name":"","type":"uint8","internalType":"enum FarmGame.BoosterType"}],"outputs":[{"name":"nativePrice","type":"uint256","internalType":"uint256"},{"name":"kindPrice","type":"uint256","internalType":"uint256"},{"name":"availableForNative","type":"bool","internalType":"bool"},{"name":"availableForKind","type":"bool","internalType":"bool"}],"stateMutability":"view"},{"type":"function","name":"buySeedWithKind","inputs":[{"name":"cropType","type":"uint8","internalType":"enum SeedNFT.CropType"}],"outputs":[],"stateMutability":"nonpayable"},{"type":"function","name":"buySeedWithNative","inputs":[{"name":"cropType","type":"uint8","internalType":"enum SeedNFT.CropType"}],"outputs":[],"stateMutability":"payable"},{"type":"function","name":"checkAndAdvanceGrowth","inputs":[{"name":"landId","type":"uint256","internalType":"uint256"}],"outputs":[],"stateMutability":"nonpayable"},{"type":"function","name":"claimLand","inputs":[{"name":"landId","type":"uint256","internalType":"uint256"},{"name":"tokenId","type":"uint256","internalType":"uint256"}],"outputs":[],"stateMutability":"nonpayable"},{"type":"function","name":"dailyHelps","inputs":[{"name":"","type":"address","internalType":"address"},{"name":"","type":"uint256","internalType":"uint256"}],"outputs":[{"name":"","type":"uint256","internalType":"uint256"}],"stateMutability":"view"},{"type":"function","name":"emergencyPause","inputs":[],"outputs":[],"stateMutability":"nonpayable"},{"type":"function","name":"gameEvents","inputs":[{"name":"","type":"uint256","internalType":"uint256"}],"outputs":[{"name":"player","type":"address","internalType":"address"},{"name":"timestamp","type":"uint256","internalType":"uint256"},{"name":"eventType","type":"string","internalType":"string"},{"name":"landId","type":"uint256","internalType":"uint256"},{"name":"seedTokenId","type":"uint256","internalType":"uint256"},{"name":"value","type":"uint256","internalType":"uint256"},{"name":"description","type":"string","internalType":"string"}],"stateMutability":"view"},{"type":"function","name":"getAllPlayers","inputs":[],"outputs":[{"name":"","type":"address[]","internalType":"address[]"}],"stateMutability":"view"},{"type":"function","name":"getAvailableSeedsForKind","inputs":[],"outputs":[{"name":"","type":"uint8[]","internalType":"enum SeedNFT.CropType[]"}],"stateMutability":"view"},{"type":"function","name":"getAvailableSeedsForNative","inputs":[],"outputs":[{"name":"","type":"uint8[]","internalType":"enum SeedNFT.CropType[]"}],"stateMutability":"view"},{"type":"function","name":"getBoosterPrice","inputs":[{"name":"boosterType","type":"uint8","internalType":"enum FarmGame.BoosterType"}],"outputs":[{"name":"","type":"tuple","internalType":"struct FarmGame.BoosterPrice","components":[{"name":"nativePrice","type":"uint256","internalType":"uint256"},{"name":"kindPrice","type":"uint256","internalType":"uint256"},{"name":"availableForNative","type":"bool","internalType":"bool"},{"name":"availableForKind","type":"bool","internalType":"bool"}]}],"stateMutability":"view"},{"type":"function","name":"getGlobalStats","inputs":[],"outputs":[{"name":"","type":"tuple","internalType":"struct FarmGame.GlobalStats","components":[{"name":"totalPlayers","type":"uint256","internalType":"uint256"},{"name":"totalHarvests","type":"uint256","internalType":"uint256"},{"name":"totalSteals","type":"uint256","internalType":"uint256"},{"name":"totalHelps","type":"uint256","internalType":"uint256"},{"name":"totalEvents","type":"uint256","internalType":"uint256"}]}],"stateMutability":"view"},{"type":"function","name":"getHarvestLeaderboard","inputs":[{"name":"limit","type":"uint256","internalType":"uint256"}],"outputs":[{"name":"","type":"tuple[]","internalType":"struct FarmGame.LeaderboardEntry[]","components":[{"name":"player","type":"address","internalType":"address"},{"name":"harvestCount","type":"uint256","internalType":"uint256"},{"name":"stealCount","type":"uint256","internalType":"uint256"},{"name":"helpCount","type":"uint256","internalType":"uint256"},{"name":"kindBalance","type":"uint256","internalType":"uint256"},{"name":"totalScore","type":"uint256","internalType":"uint256"},{"name":"rank","type":"uint256","internalType":"uint256"}]}],"stateMutability":"view"},{"type":"function","name":"getKindnessLeaderboard","inputs":[{"name":"limit","type":"uint256","internalType":"uint256"}],"outputs":[{"name":"","type":"tuple[]","internalType":"struct FarmGame.LeaderboardEntry[]","components":[{"name":"player","type":"address","internalType":"address"},{"name":"harvestCount","type":"uint256","internalType":"uint256"},{"name":"stealCount","type":"uint256","internalType":"uint256"},{"name":"helpCount","type":"uint256","internalType":"uint256"},{"name":"kindBalance","type":"uint256","internalType":"uint256"},{"name":"totalScore","type":"uint256","internalType":"uint256"},{"name":"rank","type":"uint256","internalType":"uint256"}]}],"stateMutability":"view"},{"type":"function","name":"getPlayerEventCount","inputs":[{"name":"player","type":"address","internalType":"address"}],"outputs":[{"name":"","type":"uint256","internalType":"uint256"}],"stateMutability":"view"},{"type":"function","name":"getPlayerEvents","inputs":[{"name":"player","type":"address","internalType":"address"},{"name":"limit","type":"uint256","internalType":"uint256"}],"outputs":[{"name":"","type":"tuple[]","internalType":"struct FarmGame.GameEvent[]","components":[{"name":"player","type":"address","internalType":"address"},{"name":"timestamp","type":"uint256","internalType":"uint256"},{"name":"eventType","type":"string","internalType":"string"},{"name":"landId","type":"uint256","internalType":"uint256"},{"name":"seedTokenId","type":"uint256","internalType":"uint256"},{"name":"value","type":"uint256","internalType":"uint256"},{"name":"description","type":"string","internalType":"string"}]}],"stateMutability":"view"},{"type":"function","name":"getPlayerRank","inputs":[{"name":"player","type":"address","internalType":"address"}],"outputs":[{"name":"harvestRank","type":"uint256","internalType":"uint256"},{"name":"kindnessRank","type":"uint256","internalType":"uint256"}],"stateMutability":"view"},{"type":"function","name":"getPlayerStats","inputs":[{"name":"player","type":"address","internalType":"address"}],"outputs":[{"name":"","type":"tuple","internalType":"struct FarmGame.PlayerStats","components":[{"name":"totalCropsHarvested","type":"uint256","internalType":"uint256"},{"name":"totalCropsStolen","type":"uint256","internalType":"uint256"},{"name":"totalHelpProvided","type":"uint256","internalType":"uint256"}]}],"stateMutability":"view"},{"type":"function","name":"getRecentEvents","inputs":[{"name":"limit","type":"uint256","internalType":"uint256"}],"outputs":[{"name":"","type":"tuple[]","internalType":"struct FarmGame.GameEvent[]","components":[{"name":"player","type":"address","internalType":"address"},{"name":"timestamp","type":"uint256","internalType":"uint256"},{"name":"eventType","type":"string","internalType":"string"},{"name":"landId","type":"uint256","internalType":"uint256"},{"name":"seedTokenId","type":"uint256","internalType":"uint256"},{"name":"value","type":"uint256","internalType":"uint256"},{"name":"description","type":"string","internalType":"string"}]}],"stateMutability":"view"},{"type":"function","name":"getRemainingDailyHelps","inputs":[{"name":"helper","type":"address","internalType":"address"}],"outputs":[{"name":"","type":"uint256","internalType":"uint256"}],"stateMutability":"view"},{"type":"function","name":"getSeedPrice","inputs":[{"name":"cropType","type":"uint8","internalType":"enum SeedNFT.CropType"}],"outputs":[{"name":"","type":"tuple","internalType":"struct Shop.SeedPrice","components":[{"name":"nativePrice","type":"uint256","internalType":"uint256"},{"name":"kindPrice","type":"uint256","internalType":"uint256"},{"name":"availableForNative","type":"bool","internalType":"bool"},{"name":"availableForKind","type":"bool","internalType":"bool"}]}],"stateMutability":"view"},{"type":"function","name":"getTotalPlayers","inputs":[],"outputs":[{"name":"","type":"uint256","internalType":"uint256"}],"stateMutability":"view"},{"type":"function","name":"harvestCrop","inputs":[{"name":"landId","type":"uint256","internalType":"uint256"}],"outputs":[],"stateMutability":"nonpayable"},{"type":"function","name":"helpOther","inputs":[{"name":"landId","type":"uint256","internalType":"uint256"},{"name":"boosterType","type":"uint8","internalType":"enum FarmGame.BoosterType"},{"name":"payWithKind","type":"bool","internalType":"bool"}],"outputs":[],"stateMutability":"payable"},{"type":"function","name":"isPlayerRegistered","inputs":[{"name":"player","type":"address","internalType":"address"}],"outputs":[{"name":"","type":"bool","internalType":"bool"}],"stateMutability":"view"},{"type":"function","name":"kindToken","inputs":[],"outputs":[{"name":"","type":"address","internalType":"contract KindnessToken"}],"stateMutability":"view"},{"type":"function","name":"landNFT","inputs":[],"outputs":[{"name":"","type":"address","internalType":"contract LandNFT"}],"stateMutability":"view"},{"type":"function","name":"lastHelpDay","inputs":[{"name":"","type":"address","internalType":"address"}],"outputs":[{"name":"","type":"uint256","internalType":"uint256"}],"stateMutability":"view"},{"type":"function","name":"owner","inputs":[],"outputs":[{"name":"","type":"address","internalType":"address"}],"stateMutability":"view"},{"type":"function","name":"playerEventIndexes","inputs":[{"name":"","type":"address","internalType":"address"},{"name":"","type":"uint256","internalType":"uint256"}],"outputs":[{"name":"","type":"uint256","internalType":"uint256"}],"stateMutability":"view"},{"type":"function","name":"playerList","inputs":[{"name":"","type":"uint256","internalType":"uint256"}],"outputs":[{"name":"","type":"address","internalType":"address"}],"stateMutability":"view"},{"type":"function","name":"playerStats","inputs":[{"name":"","type":"address","internalType":"address"}],"outputs":[{"name":"totalCropsHarvested","type":"uint256","internalType":"uint256"},{"name":"totalCropsStolen","type":"uint256","internalType":"uint256"},{"name":"totalHelpProvided","type":"uint256","internalType":"uint256"}],"stateMutability":"view"},{"type":"function","name":"registeredPlayers","inputs":[{"name":"","type":"address","internalType":"address"}],"outputs":[{"name":"","type":"bool","internalType":"bool"}],"stateMutability":"view"},{"type":"function","name":"renounceOwnership","inputs":[],"outputs":[],"stateMutability":"nonpayable"},{"type":"function","name":"seedNFT","inputs":[],"outputs":[{"name":"","type":"address","internalType":"contract SeedNFT"}],"stateMutability":"view"},{"type":"function","name":"shop","inputs":[],"outputs":[{"name":"","type":"address","internalType":"contract Shop"}],"stateMutability":"view"},{"type":"function","name":"stealCrop","inputs":[{"name":"landId","type":"uint256","internalType":"uint256"}],"outputs":[],"stateMutability":"nonpayable"},{"type":"function","name":"totalEvents","inputs":[],"outputs":[{"name":"","type":"uint256","internalType":"uint256"}],"stateMutability":"view"},{"type":"function","name":"totalPlayers","inputs":[],"outputs":[{"name":"","type":"uint256","internalType":"uint256"}],"stateMutability":"view"},{"type":"function","name":"transferOwnership","inputs":[{"name":"newOwner","type":"address","internalType":"address"}],"outputs":[],"stateMutability":"nonpayable"},{"type":"function","name":"updateBoosterPrice","inputs":[{"name":"boosterType","type":"uint8","internalType":"enum FarmGame.BoosterType"},{"name":"nativePrice","type":"uint256","internalType":"uint256"},{"name":"kindPrice","type":"uint256","internalType":"uint256"},{"name":"availableForNative","type":"bool","internalType":"bool"},{"name":"availableForKind","type":"bool","internalType":"bool"}],"outputs":[],"stateMutability":"nonpayable"},{"type":"function","name":"weatherRequestToLand","inputs":[{"name":"","type":"uint256","internalType":"uint256"}],"outputs":[{"name":"","type":"uint256","internalType":"uint256"}],"stateMutability":"view"},{"type":"function","name":"withdrawNative","inputs":[],"outputs":[],"stateMutability":"nonpayable"},{"type":"event","name":"BoosterApplied","inputs":[{"name":"player","type":"address","indexed":true,"internalType":"address"},{"name":"landId","type":"uint256","indexed":true,"internalType":"uint256"},{"name":"boosterType","type":"uint8","indexed":false,"internalType":"enum FarmGame.BoosterType"}],"anonymous":false},{"type":"event","name":"CropHarvested","inputs":[{"name":"player","type":"address","indexed":true,"internalType":"address"},{"name":"landId","type":"uint256","indexed":true,"internalType":"uint256"},{"name":"seedTokenId","type":"uint256","indexed":true,"internalType":"uint256"}],"anonymous":false},{"type":"event","name":"CropStolen","inputs":[{"name":"thief","type":"address","indexed":true,"internalType":"address"},{"name":"victim","type":"address","indexed":true,"internalType":"address"},{"name":"landId","type":"uint256","indexed":true,"internalType":"uint256"},{"name":"seedTokenId","type":"uint256","indexed":false,"internalType":"uint256"}],"anonymous":false},{"type":"event","name":"GameEventRecorded","inputs":[{"name":"player","type":"address","indexed":true,"internalType":"address"},{"name":"eventType","type":"string","indexed":true,"internalType":"string"},{"name":"landId","type":"uint256","indexed":true,"internalType":"uint256"},{"name":"timestamp","type":"uint256","indexed":false,"internalType":"uint256"}],"anonymous":false},{"type":"event","name":"HelpProvided","inputs":[{"name":"helper","type":"address","indexed":true,"internalType":"address"},{"name":"helped","type":"address","indexed":true,"internalType":"address"},{"name":"landId","type":"uint256","indexed":true,"internalType":"uint256"},{"name":"boosterType","type":"uint8","indexed":false,"internalType":"enum FarmGame.BoosterType"}],"anonymous":false},{"type":"event","name":"LandClaimed","inputs":[{"name":"player","type":"address","indexed":true,"internalType":"address"},{"name":"landId","type":"uint256","indexed":true,"internalType":"uint256"},{"name":"tokenId","type":"uint256","indexed":true,"internalType":"uint256"}],"anonymous":false},{"type":"event","name":"OwnershipTransferred","inputs":[{"name":"previousOwner","type":"address","indexed":true,"internalType":"address"},{"name":"newOwner","type":"address","indexed":true,"internalType":"address"}],"anonymous":false},{"type":"event","name":"PlayerRegistered","inputs":[{"name":"player","type":"address","indexed":true,"internalType":"address"},{"name":"timestamp","type":"uint256","indexed":false,"internalType":"uint256"}],"anonymous":false},{"type":"event","name":"SeedPurchased","inputs":[{"name":"buyer","type":"address","indexed":true,"internalType":"address"},{"name":"cropType","type":"uint8","indexed":false,"internalType":"enum SeedNFT.CropType"},{"name":"tokenId","type":"uint256","indexed":false,"internalType":"uint256"},{"name":"paidWithKind","type":"bool","indexed":false,"internalType":"bool"},{"name":"price","type":"uint256","indexed":false,"internalType":"uint256"}],"anonymous":false},{"type":"event","name":"WeatherRequested","inputs":[{"name":"landId","type":"uint256","indexed":true,"internalType":"uint256"},{"name":"requestId","type":"uint256","indexed":false,"internalType":"uint256"}],"anonymous":false},{"type":"event","name":"WeatherUpdated","inputs":[{"name":"landId","type":"uint256","indexed":true,"internalType":"uint256"},{"name":"weatherSeed","type":"uint256","indexed":false,"internalType":"uint256"}],"anonymous":false},{"type":"error","name":"OwnableInvalidOwner","inputs":[{"name":"owner","type":"address","internalType":"address"}]},{"type":"error","name":"OwnableUnauthorizedAccount","inputs":[{"name":"account","type":"address","internalType":"address"}]},{"type":"error","name":"ReentrancyGuardReentrantCall","inputs":[]}],"bytecode":{"object":"0x61010060405234801562000011575f80fd5b50604051620091ff380380620091ff83398181016040528101906200003791906200049f565b335f73ffffffffffffffffffffffffffffffffffffffff168173ffffffffffffffffffffffffffffffffffffffff1603620000ab575f6040517f1e4fbdf7000000000000000000000000000000000000000000000000000000008152600401620000a291906200051f565b60405180910390fd5b620000bc816200034760201b60201c565b506001620000df620000d36200040860201b60201c565b6200043160201b60201c565b5f01819055508373ffffffffffffffffffffffffffffffffffffffff1660808173ffffffffffffffffffffffffffffffffffffffff16815250508273ffffffffffffffffffffffffffffffffffffffff1660a08173ffffffffffffffffffffffffffffffffffffffff16815250508173ffffffffffffffffffffffffffffffffffffffff1660c08173ffffffffffffffffffffffffffffffffffffffff16815250508073ffffffffffffffffffffffffffffffffffffffff1660e08173ffffffffffffffffffffffffffffffffffffffff16815250506040518060800160405280655af3107a40008152602001670de0b6b3a764000081526020016001151581526020016001151581525060015f8060018111156200020357620002026200053a565b5b60018111156200021857620002176200053a565b5b81526020019081526020015f205f820151815f0155602082015181600101556040820151816002015f6101000a81548160ff02191690831515021790555060608201518160020160016101000a81548160ff021916908315150217905550905050604051806080016040528065b5e620f480008152602001671bc16d674ec8000081526020016001151581526020016001151581525060015f600180811115620002c757620002c66200053a565b5b6001811115620002dc57620002db6200053a565b5b81526020019081526020015f205f820151815f0155602082015181600101556040820151816002015f6101000a81548160ff02191690831515021790555060608201518160020160016101000a81548160ff0219169083151502179055509050505050505062000567565b5f805f9054906101000a900473ffffffffffffffffffffffffffffffffffffffff169050815f806101000a81548173ffffffffffffffffffffffffffffffffffffffff021916908373ffffffffffffffffffffffffffffffffffffffff1602179055508173ffffffffffffffffffffffffffffffffffffffff168173ffffffffffffffffffffffffffffffffffffffff167f8be0079c531659141344cd1fd0a4f28419497f9722a3daafe3b4186f6b6457e060405160405180910390a35050565b5f7f9b779b17422d0df92223018b32b4d1fa46e071723d6817e2486d003becc55f005f1b905090565b5f819050919050565b5f80fd5b5f73ffffffffffffffffffffffffffffffffffffffff82169050919050565b5f62000469826200043e565b9050919050565b6200047b816200045d565b811462000486575f80fd5b50565b5f81519050620004998162000470565b92915050565b5f805f8060808587031215620004ba57620004b96200043a565b5b5f620004c98782880162000489565b9450506020620004dc8782880162000489565b9350506040620004ef8782880162000489565b9250506060620005028782880162000489565b91505092959194509250565b62000519816200045d565b82525050565b5f602082019050620005345f8301846200050e565b92915050565b7f4e487b71000000000000000000000000000000000000000000000000000000005f52602160045260245ffd5b60805160a05160c05160e051618b37620006c85f395f818161142a0152818161150301528181611e7501528181611f57015281816123c301528181612a8c015281816137dc015281816138b501528181613ab501528181613eca0152818161406c0152614ac501525f8181610bbd01528181611d9201528181612168015281816149e00152818161523701526152db01525f8181610c4e01528181610e0301528181610f7f015281816110ec01528181611870015281816119ef015281816132a9015281816141580152818161437201528181614cf801528181614e4c0152615fad01525f8181610d5c0152818161126c0152818161167d01528181611a7501528181611b5001528181611ff00152818161361501528181613a2f015281816142e8015281816143f8015281816144d401528181614b0801528181614c0901528181614ed601528181614f690152818161518d01526154150152618b375ff3fe6080604052600436106102ad575f3560e01c806370e9e62311610174578063c4e7a75b116100db578063efa1c48211610094578063f3d1f97d1161006e578063f3d1f97d14610b21578063f60cdcf614610b4b578063f986344214610b75578063fc637ae214610b91576102ad565b8063efa1c48214610aa5578063f0cab62314610acf578063f2fde38b14610af9576102ad565b8063c4e7a75b14610961578063cc098bf61461099d578063cdafbbb6146109d9578063d5b4d6f414610a17578063ea1c80ab14610a53578063ef6f1a2f14610a7d576102ad565b8063a3877d1b1161012d578063a3877d1b14610830578063a697cb0e1461086c578063ae1ec92e146108a9578063ae6d9073146108d1578063b58c5f221461090d578063ba87068614610937576102ad565b806370e9e6231461071a578063715018a6146107565780637b652f731461076c57806384cd039a146107a85780638da5cb5b146107ea57806395ad818714610814576102ad565b806350431ce41161021857806365467c79116101d157806365467c79146105d35780636ab5b69c146105fd5780636b4169c3146106395780636d8e25fc146106635780636ea0e81c146106a25780636ef517e5146106de576102ad565b806350431ce4146104ff57806351858e271461051557806356863eed1461052b5780635d0cc38f1461054757806361179b4c1461056f578063631beab3146105ab576102ad565b8063354daed61161026a578063354daed6146103e157806337952bda1461040b57806339d022e1146104335780634529cae71461045d5780634bafce22146104875780634fd66eae146104c3576102ad565b80630881fa0d146102b15780630beb4513146102db5780631309d055146103055780631417b82a1461034157806324b0836e1461037d5780632b2ce55a146103a5575b5f80fd5b3480156102bc575f80fd5b506102c5610bbb565b6040516102d2919061630f565b60405180910390f35b3480156102e6575f80fd5b506102ef610bdf565b6040516102fc9190616340565b60405180910390f35b348015610310575f80fd5b5061032b600480360381019061032691906163a5565b610be4565b6040516103389190616340565b60405180910390f35b34801561034c575f80fd5b50610367600480360381019061036291906163a5565b610bf9565b60405161037491906163ea565b60405180910390f35b348015610388575f80fd5b506103a3600480360381019061039e919061642d565b610c4b565b005b3480156103b0575f80fd5b506103cb60048036038101906103c6919061642d565b610ea6565b6040516103d89190616340565b60405180910390f35b3480156103ec575f80fd5b506103f5610ebb565b6040516104029190616340565b60405180910390f35b348015610416575f80fd5b50610431600480360381019061042c91906164a5565b610ec0565b005b34801561043e575f80fd5b50610447610f7d565b604051610454919061653c565b60405180910390f35b348015610468575f80fd5b50610471610fa1565b60405161047e9190616340565b60405180910390f35b348015610492575f80fd5b506104ad60048036038101906104a891906163a5565b610faa565b6040516104ba91906163ea565b60405180910390f35b3480156104ce575f80fd5b506104e960048036038101906104e491906163a5565b610fc7565b6040516104f691906165a4565b60405180910390f35b34801561050a575f80fd5b5061051361103b565b005b348015610520575f80fd5b506105296110d7565b005b610545600480360381019061054091906165bd565b6110e1565b005b348015610552575f80fd5b5061056d6004803603810190610568919061642d565b611865565b005b34801561057a575f80fd5b50610595600480360381019061059091906163a5565b611cae565b6040516105a29190616340565b60405180910390f35b3480156105b6575f80fd5b506105d160048036038101906105cc9190616630565b611d87565b005b3480156105de575f80fd5b506105e7612164565b6040516105f49190616776565b60405180910390f35b348015610608575f80fd5b50610623600480360381019061061e919061642d565b6121fb565b60405161063091906168d9565b60405180910390f35b348015610644575f80fd5b5061064d612708565b60405161065a919061695f565b60405180910390f35b34801561066e575f80fd5b5061068960048036038101906106849190616978565b61283c565b60405161069994939291906169a3565b60405180910390f35b3480156106ad575f80fd5b506106c860048036038101906106c3919061642d565b612881565b6040516106d591906168d9565b60405180910390f35b3480156106e9575f80fd5b5061070460048036038101906106ff91906169e6565b612d9b565b6040516107119190616340565b60405180910390f35b348015610725575f80fd5b50610740600480360381019061073b919061642d565b612dc6565b60405161074d9190616c09565b60405180910390f35b348015610761575f80fd5b5061076a613055565b005b348015610777575f80fd5b50610792600480360381019061078d9190616978565b613068565b60405161079f9190616c8b565b60405180910390f35b3480156107b3575f80fd5b506107ce60048036038101906107c9919061642d565b6130ff565b6040516107e19796959493929190616cfb565b60405180910390f35b3480156107f5575f80fd5b506107fe613277565b60405161080b9190616d76565b60405180910390f35b61082e600480360381019061082991906165bd565b61329e565b005b34801561083b575f80fd5b50610856600480360381019061085191906163a5565b613d75565b6040516108639190616340565b60405180910390f35b348015610877575f80fd5b50610892600480360381019061088d91906163a5565b613dbe565b6040516108a0929190616d8f565b60405180910390f35b3480156108b4575f80fd5b506108cf60048036038101906108ca919061642d565b61414d565b005b3480156108dc575f80fd5b506108f760048036038101906108f2919061642d565b614654565b6040516109049190616d76565b60405180910390f35b348015610918575f80fd5b5061092161468f565b60405161092e9190616340565b60405180910390f35b348015610942575f80fd5b5061094b614694565b6040516109589190616340565b60405180910390f35b34801561096c575f80fd5b50610987600480360381019061098291906169e6565b61469a565b6040516109949190616c09565b60405180910390f35b3480156109a8575f80fd5b506109c360048036038101906109be9190616630565b6149d6565b6040516109d09190616e09565b60405180910390f35b3480156109e4575f80fd5b506109ff60048036038101906109fa91906163a5565b614a7d565b604051610a0e93929190616e22565b60405180910390f35b348015610a22575f80fd5b50610a3d6004803603810190610a3891906169e6565b614aa3565b604051610a4a9190616340565b60405180910390f35b348015610a5e575f80fd5b50610a67614ac3565b604051610a749190616e77565b60405180910390f35b348015610a88575f80fd5b50610aa36004803603810190610a9e9190616e90565b614ae7565b005b348015610ab0575f80fd5b50610ab9615100565b604051610ac69190616f76565b60405180910390f35b348015610ada575f80fd5b50610ae361518b565b604051610af09190616fb6565b60405180910390f35b348015610b04575f80fd5b50610b1f6004803603810190610b1a91906163a5565b6151af565b005b348015610b2c575f80fd5b50610b35615233565b604051610b429190616776565b60405180910390f35b348015610b56575f80fd5b50610b5f6152ca565b604051610b6c9190616340565b60405180910390f35b610b8f6004803603810190610b8a9190616630565b6152d0565b005b348015610b9c575f80fd5b50610ba56155e5565b604051610bb29190616340565b60405180910390f35b7f000000000000000000000000000000000000000000000000000000000000000081565b600581565b6004602052805f5260405f205f915090505481565b5f60055f8373ffffffffffffffffffffffffffffffffffffffff1673ffffffffffffffffffffffffffffffffffffffff1681526020019081526020015f205f9054906101000a900460ff169050919050565b5f7f000000000000000000000000000000000000000000000000000000000000000073ffffffffffffffffffffffffffffffffffffffff16636f6f9bef836040518263ffffffff1660e01b8152600401610ca59190616340565b61010060405180830381865afa158015610cc1573d5f803e3d5ffd5b505050506040513d601f19601f82011682018060405250810190610ce5919061715d565b905060016004811115610cfb57610cfa616684565b5b815f01516004811115610d1157610d10616684565b5b14610d51576040517f08c379a0000000000000000000000000000000000000000000000000000000008152600401610d48906171d3565b60405180910390fd5b5f816020015190505f7f000000000000000000000000000000000000000000000000000000000000000073ffffffffffffffffffffffffffffffffffffffff1663dd9dbf25836040518263ffffffff1660e01b8152600401610db39190616340565b60e060405180830381865afa158015610dce573d5f803e3d5ffd5b505050506040513d601f19601f82011682018060405250810190610df29190617332565b90505f610dfe826155ea565b90505f7f000000000000000000000000000000000000000000000000000000000000000073ffffffffffffffffffffffffffffffffffffffff1663fc99cc3987846040518363ffffffff1660e01b8152600401610e5c929190616d8f565b6020604051808303815f875af1158015610e78573d5f803e3d5ffd5b505050506040513d601f19601f82011682018060405250810190610e9c9190617371565b9050505050505050565b600b602052805f5260405f205f915090505481565b607881565b610ec861569c565b6040518060800160405280858152602001848152602001831515815260200182151581525060015f876001811115610f0357610f02616684565b5b6001811115610f1557610f14616684565b5b81526020019081526020015f205f820151815f0155602082015181600101556040820151816002015f6101000a81548160ff02191690831515021790555060608201518160020160016101000a81548160ff0219169083151502179055509050505050505050565b7f000000000000000000000000000000000000000000000000000000000000000081565b5f600754905090565b6005602052805f5260405f205f915054906101000a900460ff1681565b610fcf616163565b60035f8373ffffffffffffffffffffffffffffffffffffffff1673ffffffffffffffffffffffffffffffffffffffff1681526020019081526020015f206040518060600160405290815f8201548152602001600182015481526020016002820154815250509050919050565b61104361569c565b5f4790505f8111611089576040517f08c379a00000000000000000000000000000000000000000000000000000000081526004016110809061740c565b60405180910390fd5b611091613277565b73ffffffffffffffffffffffffffffffffffffffff166108fc8290811502906040515f60405180830381858888f193505050501580156110d3573d5f803e3d5ffd5b5050565b6110df61569c565b565b6110e9615723565b5f7f000000000000000000000000000000000000000000000000000000000000000073ffffffffffffffffffffffffffffffffffffffff16636f6f9bef856040518263ffffffff1660e01b81526004016111439190616340565b61010060405180830381865afa15801561115f573d5f803e3d5ffd5b505050506040513d601f19601f82011682018060405250810190611183919061715d565b90503373ffffffffffffffffffffffffffffffffffffffff168160e0015173ffffffffffffffffffffffffffffffffffffffff16146111f7576040517f08c379a00000000000000000000000000000000000000000000000000000000081526004016111ee90617474565b60405180910390fd5b6001600481111561120b5761120a616684565b5b815f0151600481111561122157611220616684565b5b14611261576040517f08c379a0000000000000000000000000000000000000000000000000000000008152600401611258906174dc565b60405180910390fd5b5f816020015190505f7f000000000000000000000000000000000000000000000000000000000000000073ffffffffffffffffffffffffffffffffffffffff1663dd9dbf25836040518263ffffffff1660e01b81526004016112c39190616340565b60e060405180830381865afa1580156112de573d5f803e3d5ffd5b505050506040513d601f19601f820116820180604052508101906113029190617332565b9050600a8160c0015160ff161061134e576040517f08c379a000000000000000000000000000000000000000000000000000000000815260040161134590617544565b60405180910390fd5b5f60015f87600181111561136557611364616684565b5b600181111561137757611376616684565b5b81526020019081526020015f206040518060800160405290815f820154815260200160018201548152602001600282015f9054906101000a900460ff161515151581526020016002820160019054906101000a900460ff16151515158152505090508415611592578060600151611423576040517f08c379a000000000000000000000000000000000000000000000000000000000815260040161141a906175d2565b60405180910390fd5b80602001517f000000000000000000000000000000000000000000000000000000000000000073ffffffffffffffffffffffffffffffffffffffff166370a08231336040518263ffffffff1660e01b81526004016114819190616d76565b602060405180830381865afa15801561149c573d5f803e3d5ffd5b505050506040513d601f19601f820116820180604052508101906114c091906175f0565b1015611501576040517f08c379a00000000000000000000000000000000000000000000000000000000081526004016114f890617665565b60405180910390fd5b7f000000000000000000000000000000000000000000000000000000000000000073ffffffffffffffffffffffffffffffffffffffff16639dc29fac3383602001516040518363ffffffff1660e01b8152600401611560929190617683565b5f604051808303815f87803b158015611577575f80fd5b505af1158015611589573d5f803e3d5ffd5b5050505061167b565b80604001516115d6576040517f08c379a00000000000000000000000000000000000000000000000000000000081526004016115cd9061771a565b60405180910390fd5b805f015134101561161c576040517f08c379a000000000000000000000000000000000000000000000000000000000815260040161161390617782565b60405180910390fd5b805f015134111561167a573373ffffffffffffffffffffffffffffffffffffffff166108fc825f01513461165091906177cd565b90811502906040515f60405180830381858888f19350505050158015611678573d5f803e3d5ffd5b505b5b7f000000000000000000000000000000000000000000000000000000000000000073ffffffffffffffffffffffffffffffffffffffff1663d0b3c028846040518263ffffffff1660e01b81526004016116d49190616340565b5f604051808303815f87803b1580156116eb575f80fd5b505af11580156116fd573d5f803e3d5ffd5b505050505f80600181111561171557611714616684565b5b87600181111561172857611727616684565b5b14611768576040518060400160405280600681526020017fe696bde882a5000000000000000000000000000000000000000000000000000081525061179f565b6040518060400160405280600681526020017fe6b587e6b0b400000000000000000000000000000000000000000000000000008152505b9050611804336040518060400160405280600581526020017f626f6f73740000000000000000000000000000000000000000000000000000008152508a876001866040516020016117f091906178ce565b604051602081830303815290604052615745565b873373ffffffffffffffffffffffffffffffffffffffff167f1e051d96a9f24faef9df9aeacb654f439b8f746d4df3682df5acc1bbc1b967c38960405161184b9190617940565b60405180910390a35050505050611860615945565b505050565b61186d615723565b5f7f000000000000000000000000000000000000000000000000000000000000000073ffffffffffffffffffffffffffffffffffffffff16636f6f9bef836040518263ffffffff1660e01b81526004016118c79190616340565b61010060405180830381865afa1580156118e3573d5f803e3d5ffd5b505050506040513d601f19601f82011682018060405250810190611907919061715d565b90503373ffffffffffffffffffffffffffffffffffffffff168160e0015173ffffffffffffffffffffffffffffffffffffffff161461197b576040517f08c379a000000000000000000000000000000000000000000000000000000000815260040161197290617474565b60405180910390fd5b6002600481111561198f5761198e616684565b5b815f015160048111156119a5576119a4616684565b5b146119e5576040517f08c379a00000000000000000000000000000000000000000000000000000000081526004016119dc906179a3565b60405180910390fd5b5f816020015190507f000000000000000000000000000000000000000000000000000000000000000073ffffffffffffffffffffffffffffffffffffffff16635d0cc38f846040518263ffffffff1660e01b8152600401611a469190616340565b5f604051808303815f87803b158015611a5d575f80fd5b505af1158015611a6f573d5f803e3d5ffd5b505050507f000000000000000000000000000000000000000000000000000000000000000073ffffffffffffffffffffffffffffffffffffffff1663fb2ff94d826040518263ffffffff1660e01b8152600401611acc9190616340565b5f604051808303815f87803b158015611ae3575f80fd5b505af1158015611af5573d5f803e3d5ffd5b5050505060035f3373ffffffffffffffffffffffffffffffffffffffff1673ffffffffffffffffffffffffffffffffffffffff1681526020019081526020015f205f015f815480929190611b48906179c1565b91905055505f7f000000000000000000000000000000000000000000000000000000000000000073ffffffffffffffffffffffffffffffffffffffff1663dd9dbf25836040518263ffffffff1660e01b8152600401611ba79190616340565b60e060405180830381865afa158015611bc2573d5f803e3d5ffd5b505050506040513d601f19601f82011682018060405250810190611be69190617332565b90505f611bf5825f015161595f565b9050611c5a336040518060400160405280600781526020017f68617276657374000000000000000000000000000000000000000000000000008152508786600186604051602001611c469190617a52565b604051602081830303815290604052615745565b82853373ffffffffffffffffffffffffffffffffffffffff167f1d2744d484bfd6c11eb698d6664c8bf1eb4260fbe4b9f99912e87eff5dd2ff8260405160405180910390a450505050611cab615945565b50565b5f806201518042611cbf9190617aa0565b90508060045f8573ffffffffffffffffffffffffffffffffffffffff1673ffffffffffffffffffffffffffffffffffffffff1681526020019081526020015f20541015611d1057600f915050611d82565b5f60025f8573ffffffffffffffffffffffffffffffffffffffff1673ffffffffffffffffffffffffffffffffffffffff1681526020019081526020015f205f8381526020019081526020015f20549050600f811015611d7b5780600f611d7691906177cd565b611d7d565b5f5b925050505b919050565b611d8f615723565b5f7f000000000000000000000000000000000000000000000000000000000000000073ffffffffffffffffffffffffffffffffffffffff1663cc098bf6836040518263ffffffff1660e01b8152600401611de99190617adf565b608060405180830381865afa158015611e04573d5f803e3d5ffd5b505050506040513d601f19601f82011682018060405250810190611e289190617b6d565b90508060600151611e6e576040517f08c379a0000000000000000000000000000000000000000000000000000000008152600401611e6590617c08565b60405180910390fd5b80602001517f000000000000000000000000000000000000000000000000000000000000000073ffffffffffffffffffffffffffffffffffffffff166370a08231336040518263ffffffff1660e01b8152600401611ecc9190616d76565b602060405180830381865afa158015611ee7573d5f803e3d5ffd5b505050506040513d601f19601f82011682018060405250810190611f0b91906175f0565b1015611f4c576040517f08c379a0000000000000000000000000000000000000000000000000000000008152600401611f4390617c96565b60405180910390fd5b611f5533615c13565b7f000000000000000000000000000000000000000000000000000000000000000073ffffffffffffffffffffffffffffffffffffffff16639dc29fac3383602001516040518363ffffffff1660e01b8152600401611fb4929190617683565b5f604051808303815f87803b158015611fcb575f80fd5b505af1158015611fdd573d5f803e3d5ffd5b505050505f611feb83615d7f565b90505f7f000000000000000000000000000000000000000000000000000000000000000073ffffffffffffffffffffffffffffffffffffffff16635f7560b63386856040518463ffffffff1660e01b815260040161204b93929190617cfa565b6020604051808303815f875af1158015612067573d5f803e3d5ffd5b505050506040513d601f19601f8201168201806040525081019061208b91906175f0565b90505f6120978561595f565b90506120fc336040518060400160405280600881526020017f70757263686173650000000000000000000000000000000000000000000000008152505f856001866040516020016120e89190617dc3565b604051602081830303815290604052615745565b3373ffffffffffffffffffffffffffffffffffffffff167f6b2d2e02a9bb1abdb0842f0c5321526b241590acebe2983c3bdd57166b81428686846001886020015160405161214d9493929190617def565b60405180910390a250505050612161615945565b50565b60607f000000000000000000000000000000000000000000000000000000000000000073ffffffffffffffffffffffffffffffffffffffff166365467c796040518163ffffffff1660e01b81526004015f60405180830381865afa1580156121ce573d5f803e3d5ffd5b505050506040513d5f823e3d601f19601f820116820180604052508101906121f69190617efa565b905090565b60605f8211801561220d575060648211155b61224c576040517f08c379a000000000000000000000000000000000000000000000000000000000815260040161224390617f8b565b60405180910390fd5b5f60068054905090505f81036122b8575f67ffffffffffffffff81111561227657612275616fd3565b5b6040519080825280602002602001820160405280156122af57816020015b61229c616181565b8152602001906001900390816122945790505b50915050612703565b5f8167ffffffffffffffff8111156122d3576122d2616fd3565b5b60405190808252806020026020018201604052801561230c57816020015b6122f9616181565b8152602001906001900390816122f15790505b5090505f5b828110156124dd575f6006828154811061232e5761232d617fa9565b5b905f5260205f20015f9054906101000a900473ffffffffffffffffffffffffffffffffffffffff1690505f60035f8373ffffffffffffffffffffffffffffffffffffffff1673ffffffffffffffffffffffffffffffffffffffff1681526020019081526020015f206040518060600160405290815f82015481526020016001820154815260200160028201548152505090505f7f000000000000000000000000000000000000000000000000000000000000000073ffffffffffffffffffffffffffffffffffffffff166370a08231846040518263ffffffff1660e01b815260040161241a9190616d76565b602060405180830381865afa158015612435573d5f803e3d5ffd5b505050506040513d601f19601f8201168201806040525081019061245991906175f0565b90506040518060e001604052808473ffffffffffffffffffffffffffffffffffffffff168152602001835f0151815260200183602001518152602001836040015181526020018281526020018281526020015f8152508585815181106124c2576124c1617fa9565b5b60200260200101819052505050508080600101915050612311565b505f5b6001836124ed91906177cd565b811015612610575f5b6001828561250491906177cd565b61250e91906177cd565b81101561260257826001826125239190617fd6565b8151811061253457612533617fa9565b5b60200260200101516080015183828151811061255357612552617fa9565b5b60200260200101516080015110156125f5575f83828151811061257957612578617fa9565b5b60200260200101519050836001836125919190617fd6565b815181106125a2576125a1617fa9565b5b60200260200101518483815181106125bd576125bc617fa9565b5b602002602001018190525080846001846125d79190617fd6565b815181106125e8576125e7617fa9565b5b6020026020010181905250505b80806001019150506124f6565b5080806001019150506124e0565b505f82851161261f5784612621565b825b90505f8167ffffffffffffffff81111561263e5761263d616fd3565b5b60405190808252806020026020018201604052801561267757816020015b612664616181565b81526020019060019003908161265c5790505b5090505f5b828110156126fa576001816126919190617fd6565b8482815181106126a4576126a3617fa9565b5b602002602001015160c00181815250508381815181106126c7576126c6617fa9565b5b60200260200101518282815181106126e2576126e1617fa9565b5b6020026020010181905250808060010191505061267c565b50809450505050505b919050565b6127106161cd565b5f805f805b600680549050811015612808575f60035f6006848154811061273a57612739617fa9565b5b905f5260205f20015f9054906101000a900473ffffffffffffffffffffffffffffffffffffffff1673ffffffffffffffffffffffffffffffffffffffff1673ffffffffffffffffffffffffffffffffffffffff1681526020019081526020015f206040518060600160405290815f8201548152602001600182015481526020016002820154815250509050805f0151856127d49190617fd6565b94508060200151846127e69190617fd6565b93508060400151836127f89190617fd6565b9250508080600101915050612715565b506040518060a001604052806007548152602001848152602001838152602001828152602001600a54815250935050505090565b6001602052805f5260405f205f91509050805f015490806001015490806002015f9054906101000a900460ff16908060020160019054906101000a900460ff16905084565b60605f82118015612893575060648211155b6128d2576040517f08c379a00000000000000000000000000000000000000000000000000000000081526004016128c990617f8b565b60405180910390fd5b5f60068054905090505f810361293e575f67ffffffffffffffff8111156128fc576128fb616fd3565b5b60405190808252806020026020018201604052801561293557816020015b612922616181565b81526020019060019003908161291a5790505b50915050612d96565b5f8167ffffffffffffffff81111561295957612958616fd3565b5b60405190808252806020026020018201604052801561299257816020015b61297f616181565b8152602001906001900390816129775790505b5090505f5b82811015612b70575f600682815481106129b4576129b3617fa9565b5b905f5260205f20015f9054906101000a900473ffffffffffffffffffffffffffffffffffffffff1690505f60035f8373ffffffffffffffffffffffffffffffffffffffff1673ffffffffffffffffffffffffffffffffffffffff1681526020019081526020015f206040518060600160405290815f82015481526020016001820154815260200160028201548152505090506040518060e001604052808373ffffffffffffffffffffffffffffffffffffffff168152602001825f0151815260200182602001518152602001826040015181526020017f000000000000000000000000000000000000000000000000000000000000000073ffffffffffffffffffffffffffffffffffffffff166370a08231856040518263ffffffff1660e01b8152600401612ae39190616d76565b602060405180830381865afa158015612afe573d5f803e3d5ffd5b505050506040513d601f19601f82011682018060405250810190612b2291906175f0565b81526020018260200151835f0151612b3a9190617fd6565b81526020015f815250848481518110612b5657612b55617fa9565b5b602002602001018190525050508080600101915050612997565b505f5b600183612b8091906177cd565b811015612ca3575f5b60018285612b9791906177cd565b612ba191906177cd565b811015612c955782600182612bb69190617fd6565b81518110612bc757612bc6617fa9565b5b602002602001015160a00151838281518110612be657612be5617fa9565b5b602002602001015160a001511015612c88575f838281518110612c0c57612c0b617fa9565b5b6020026020010151905083600183612c249190617fd6565b81518110612c3557612c34617fa9565b5b6020026020010151848381518110612c5057612c4f617fa9565b5b60200260200101819052508084600184612c6a9190617fd6565b81518110612c7b57612c7a617fa9565b5b6020026020010181905250505b8080600101915050612b89565b508080600101915050612b73565b505f828511612cb25784612cb4565b825b90505f8167ffffffffffffffff811115612cd157612cd0616fd3565b5b604051908082528060200260200182016040528015612d0a57816020015b612cf7616181565b815260200190600190039081612cef5790505b5090505f5b82811015612d8d57600181612d249190617fd6565b848281518110612d3757612d36617fa9565b5b602002602001015160c0018181525050838181518110612d5a57612d59617fa9565b5b6020026020010151828281518110612d7557612d74617fa9565b5b60200260200101819052508080600101915050612d0f565b50809450505050505b919050565b6009602052815f5260405f208181548110612db4575f80fd5b905f5260205f20015f91509150505481565b60605f82600a5411612dda57600a54612ddc565b825b90505f8167ffffffffffffffff811115612df957612df8616fd3565b5b604051908082528060200260200182016040528015612e3257816020015b612e1f6161f7565b815260200190600190039081612e175790505b5090505f5b8281101561304a576008816001600a54612e5191906177cd565b612e5b91906177cd565b81548110612e6c57612e6b617fa9565b5b905f5260205f2090600702016040518060e00160405290815f82015f9054906101000a900473ffffffffffffffffffffffffffffffffffffffff1673ffffffffffffffffffffffffffffffffffffffff1673ffffffffffffffffffffffffffffffffffffffff16815260200160018201548152602001600282018054612ef190618036565b80601f0160208091040260200160405190810160405280929190818152602001828054612f1d90618036565b8015612f685780601f10612f3f57610100808354040283529160200191612f68565b820191905f5260205f20905b815481529060010190602001808311612f4b57829003601f168201915b50505050508152602001600382015481526020016004820154815260200160058201548152602001600682018054612f9f90618036565b80601f0160208091040260200160405190810160405280929190818152602001828054612fcb90618036565b80156130165780601f10612fed57610100808354040283529160200191613016565b820191905f5260205f20905b815481529060010190602001808311612ff957829003601f168201915b50505050508152505082828151811061303257613031617fa9565b5b60200260200101819052508080600101915050612e37565b508092505050919050565b61305d61569c565b6130665f615eae565b565b613070616245565b60015f83600181111561308657613085616684565b5b600181111561309857613097616684565b5b81526020019081526020015f206040518060800160405290815f820154815260200160018201548152602001600282015f9054906101000a900460ff161515151581526020016002820160019054906101000a900460ff1615151515815250509050919050565b6008818154811061310e575f80fd5b905f5260205f2090600702015f91509050805f015f9054906101000a900473ffffffffffffffffffffffffffffffffffffffff169080600101549080600201805461315890618036565b80601f016020809104026020016040519081016040528092919081815260200182805461318490618036565b80156131cf5780601f106131a6576101008083540402835291602001916131cf565b820191905f5260205f20905b8154815290600101906020018083116131b257829003601f168201915b5050505050908060030154908060040154908060050154908060060180546131f690618036565b80601f016020809104026020016040519081016040528092919081815260200182805461322290618036565b801561326d5780601f106132445761010080835404028352916020019161326d565b820191905f5260205f20905b81548152906001019060200180831161325057829003601f168201915b5050505050905087565b5f805f9054906101000a900473ffffffffffffffffffffffffffffffffffffffff16905090565b6132a6615723565b5f7f000000000000000000000000000000000000000000000000000000000000000073ffffffffffffffffffffffffffffffffffffffff16636f6f9bef856040518263ffffffff1660e01b81526004016133009190616340565b61010060405180830381865afa15801561331c573d5f803e3d5ffd5b505050506040513d601f19601f82011682018060405250810190613340919061715d565b90503373ffffffffffffffffffffffffffffffffffffffff168160e0015173ffffffffffffffffffffffffffffffffffffffff16036133b4576040517f08c379a00000000000000000000000000000000000000000000000000000000081526004016133ab906180b0565b60405180910390fd5b5f73ffffffffffffffffffffffffffffffffffffffff168160e0015173ffffffffffffffffffffffffffffffffffffffff1603613426576040517f08c379a000000000000000000000000000000000000000000000000000000000815260040161341d90618118565b60405180910390fd5b6001600481111561343a57613439616684565b5b815f015160048111156134505761344f616684565b5b14613490576040517f08c379a0000000000000000000000000000000000000000000000000000000008152600401613487906174dc565b60405180910390fd5b5f62015180426134a09190617aa0565b90508060045f3373ffffffffffffffffffffffffffffffffffffffff1673ffffffffffffffffffffffffffffffffffffffff1681526020019081526020015f2054101561357b575f60025f3373ffffffffffffffffffffffffffffffffffffffff1673ffffffffffffffffffffffffffffffffffffffff1681526020019081526020015f205f8381526020019081526020015f20819055508060045f3373ffffffffffffffffffffffffffffffffffffffff1673ffffffffffffffffffffffffffffffffffffffff1681526020019081526020015f20819055505b600f60025f3373ffffffffffffffffffffffffffffffffffffffff1673ffffffffffffffffffffffffffffffffffffffff1681526020019081526020015f205f8381526020019081526020015f20541061360a576040517f08c379a0000000000000000000000000000000000000000000000000000000008152600401613601906181a6565b60405180910390fd5b5f826020015190505f7f000000000000000000000000000000000000000000000000000000000000000073ffffffffffffffffffffffffffffffffffffffff1663dd9dbf25836040518263ffffffff1660e01b815260040161366c9190616340565b60e060405180830381865afa158015613687573d5f803e3d5ffd5b505050506040513d601f19601f820116820180604052508101906136ab9190617332565b9050600a8160c0015160ff16106136f7576040517f08c379a00000000000000000000000000000000000000000000000000000000081526004016136ee90617544565b60405180910390fd5b61370033615c13565b5f60015f88600181111561371757613716616684565b5b600181111561372957613728616684565b5b81526020019081526020015f206040518060800160405290815f820154815260200160018201548152602001600282015f9054906101000a900460ff161515151581526020016002820160019054906101000a900460ff161515151581525050905085156139445780606001516137d5576040517f08c379a00000000000000000000000000000000000000000000000000000000081526004016137cc906175d2565b60405180910390fd5b80602001517f000000000000000000000000000000000000000000000000000000000000000073ffffffffffffffffffffffffffffffffffffffff166370a08231336040518263ffffffff1660e01b81526004016138339190616d76565b602060405180830381865afa15801561384e573d5f803e3d5ffd5b505050506040513d601f19601f8201168201806040525081019061387291906175f0565b10156138b3576040517f08c379a00000000000000000000000000000000000000000000000000000000081526004016138aa90617665565b60405180910390fd5b7f000000000000000000000000000000000000000000000000000000000000000073ffffffffffffffffffffffffffffffffffffffff16639dc29fac3383602001516040518363ffffffff1660e01b8152600401613912929190617683565b5f604051808303815f87803b158015613929575f80fd5b505af115801561393b573d5f803e3d5ffd5b50505050613a2d565b8060400151613988576040517f08c379a000000000000000000000000000000000000000000000000000000000815260040161397f9061771a565b60405180910390fd5b805f01513410156139ce576040517f08c379a00000000000000000000000000000000000000000000000000000000081526004016139c590617782565b60405180910390fd5b805f0151341115613a2c573373ffffffffffffffffffffffffffffffffffffffff166108fc825f015134613a0291906177cd565b90811502906040515f60405180830381858888f19350505050158015613a2a573d5f803e3d5ffd5b505b5b7f000000000000000000000000000000000000000000000000000000000000000073ffffffffffffffffffffffffffffffffffffffff1663d0b3c028846040518263ffffffff1660e01b8152600401613a869190616340565b5f604051808303815f87803b158015613a9d575f80fd5b505af1158015613aaf573d5f803e3d5ffd5b505050507f000000000000000000000000000000000000000000000000000000000000000073ffffffffffffffffffffffffffffffffffffffff1663266d161a338760e001516040518363ffffffff1660e01b8152600401613b129291906181c4565b5f604051808303815f87803b158015613b29575f80fd5b505af1158015613b3b573d5f803e3d5ffd5b5050505060025f3373ffffffffffffffffffffffffffffffffffffffff1673ffffffffffffffffffffffffffffffffffffffff1681526020019081526020015f205f8581526020019081526020015f205f815480929190613b9b906179c1565b919050555060035f3373ffffffffffffffffffffffffffffffffffffffff1673ffffffffffffffffffffffffffffffffffffffff1681526020019081526020015f206002015f815480929190613bf0906179c1565b91905055505f806001811115613c0957613c08616684565b5b886001811115613c1c57613c1b616684565b5b14613c5c576040518060400160405280600681526020017fe696bde882a50000000000000000000000000000000000000000000000000000815250613c93565b6040518060400160405280600681526020017fe6b587e6b0b400000000000000000000000000000000000000000000000000008152505b9050613cf8336040518060400160405280600481526020017f68656c70000000000000000000000000000000000000000000000000000000008152508b87600186604051602001613ce49190618235565b604051602081830303815290604052615745565b888660e0015173ffffffffffffffffffffffffffffffffffffffff163373ffffffffffffffffffffffffffffffffffffffff167f5301d0fd02891367a7d8d96d973104485f9bac61886c8b5912f25d995992172e8b604051613d5a9190617940565b60405180910390a4505050505050613d70615945565b505050565b5f60095f8373ffffffffffffffffffffffffffffffffffffffff1673ffffffffffffffffffffffffffffffffffffffff1681526020019081526020015f20805490509050919050565b5f8060055f8473ffffffffffffffffffffffffffffffffffffffff1673ffffffffffffffffffffffffffffffffffffffff1681526020019081526020015f205f9054906101000a900460ff16613e49576040517f08c379a0000000000000000000000000000000000000000000000000000000008152600401613e40906182a0565b60405180910390fd5b5f60035f8573ffffffffffffffffffffffffffffffffffffffff1673ffffffffffffffffffffffffffffffffffffffff1681526020019081526020015f206040518060600160405290815f82015481526020016001820154815260200160028201548152505090505f8160200151825f0151613ec59190617fd6565b90505f7f000000000000000000000000000000000000000000000000000000000000000073ffffffffffffffffffffffffffffffffffffffff166370a08231876040518263ffffffff1660e01b8152600401613f219190616d76565b602060405180830381865afa158015613f3c573d5f803e3d5ffd5b505050506040513d601f19601f82011682018060405250810190613f6091906175f0565b905060019450600193505f5b600680549050811015614144575f60068281548110613f8e57613f8d617fa9565b5b905f5260205f20015f9054906101000a900473ffffffffffffffffffffffffffffffffffffffff1690508773ffffffffffffffffffffffffffffffffffffffff168173ffffffffffffffffffffffffffffffffffffffff1614614136575f60035f8373ffffffffffffffffffffffffffffffffffffffff1673ffffffffffffffffffffffffffffffffffffffff1681526020019081526020015f206040518060600160405290815f82015481526020016001820154815260200160028201548152505090505f8160200151825f01516140679190617fd6565b90505f7f000000000000000000000000000000000000000000000000000000000000000073ffffffffffffffffffffffffffffffffffffffff166370a08231856040518263ffffffff1660e01b81526004016140c39190616d76565b602060405180830381865afa1580156140de573d5f803e3d5ffd5b505050506040513d601f19601f8201168201806040525081019061410291906175f0565b90508682111561411b578980614117906179c1565b9a50505b8581111561413257888061412e906179c1565b9950505b5050505b508080600101915050613f6c565b50505050915091565b614155615723565b5f7f000000000000000000000000000000000000000000000000000000000000000073ffffffffffffffffffffffffffffffffffffffff16636f6f9bef836040518263ffffffff1660e01b81526004016141af9190616340565b61010060405180830381865afa1580156141cb573d5f803e3d5ffd5b505050506040513d601f19601f820116820180604052508101906141ef919061715d565b90503373ffffffffffffffffffffffffffffffffffffffff168160e0015173ffffffffffffffffffffffffffffffffffffffff1603614263576040517f08c379a000000000000000000000000000000000000000000000000000000000815260040161425a9061832e565b60405180910390fd5b6002600481111561427757614276616684565b5b815f0151600481111561428d5761428c616684565b5b146142cd576040517f08c379a00000000000000000000000000000000000000000000000000000000081526004016142c4906179a3565b60405180910390fd5b5f816020015190505f8260e0015190506142e633615c13565b7f000000000000000000000000000000000000000000000000000000000000000073ffffffffffffffffffffffffffffffffffffffff166333bebb778233856040518463ffffffff1660e01b81526004016143439392919061834c565b5f604051808303815f87803b15801561435a575f80fd5b505af115801561436c573d5f803e3d5ffd5b505050507f000000000000000000000000000000000000000000000000000000000000000073ffffffffffffffffffffffffffffffffffffffff1663ae1ec92e856040518263ffffffff1660e01b81526004016143c99190616340565b5f604051808303815f87803b1580156143e0575f80fd5b505af11580156143f2573d5f803e3d5ffd5b505050507f000000000000000000000000000000000000000000000000000000000000000073ffffffffffffffffffffffffffffffffffffffff1663fb2ff94d836040518263ffffffff1660e01b815260040161444f9190616340565b5f604051808303815f87803b158015614466575f80fd5b505af1158015614478573d5f803e3d5ffd5b5050505060035f3373ffffffffffffffffffffffffffffffffffffffff1673ffffffffffffffffffffffffffffffffffffffff1681526020019081526020015f206001015f8154809291906144cc906179c1565b91905055505f7f000000000000000000000000000000000000000000000000000000000000000073ffffffffffffffffffffffffffffffffffffffff1663dd9dbf25846040518263ffffffff1660e01b815260040161452b9190616340565b60e060405180830381865afa158015614546573d5f803e3d5ffd5b505050506040513d601f19601f8201168201806040525081019061456a9190617332565b90505f614579825f015161595f565b90506145de336040518060400160405280600581526020017f737465616c00000000000000000000000000000000000000000000000000000081525088876001866040516020016145ca91906183cb565b604051602081830303815290604052615745565b858373ffffffffffffffffffffffffffffffffffffffff163373ffffffffffffffffffffffffffffffffffffffff167ff2fe43457378f8d24596a63cbd1b8896abe8d5620ba91107fe588449193d97588760405161463c9190616340565b60405180910390a45050505050614651615945565b50565b60068181548110614663575f80fd5b905f5260205f20015f915054906101000a900473ffffffffffffffffffffffffffffffffffffffff1681565b600f81565b600a5481565b60605f60095f8573ffffffffffffffffffffffffffffffffffffffff1673ffffffffffffffffffffffffffffffffffffffff1681526020019081526020015f2080548060200260200160405190810160405280929190818152602001828054801561472257602002820191905f5260205f20905b81548152602001906001019080831161470e575b505050505090505f815190505f8411801561473c57508084105b15614745578390505b5f8167ffffffffffffffff8111156147605761475f616fd3565b5b60405190808252806020026020018201604052801561479957816020015b6147866161f7565b81526020019060019003908161477e5790505b5090505f5b828110156149c957600884826001866147b791906177cd565b6147c191906177cd565b815181106147d2576147d1617fa9565b5b6020026020010151815481106147eb576147ea617fa9565b5b905f5260205f2090600702016040518060e00160405290815f82015f9054906101000a900473ffffffffffffffffffffffffffffffffffffffff1673ffffffffffffffffffffffffffffffffffffffff1673ffffffffffffffffffffffffffffffffffffffff1681526020016001820154815260200160028201805461487090618036565b80601f016020809104026020016040519081016040528092919081815260200182805461489c90618036565b80156148e75780601f106148be576101008083540402835291602001916148e7565b820191905f5260205f20905b8154815290600101906020018083116148ca57829003601f168201915b5050505050815260200160038201548152602001600482015481526020016005820154815260200160068201805461491e90618036565b80601f016020809104026020016040519081016040528092919081815260200182805461494a90618036565b80156149955780601f1061496c57610100808354040283529160200191614995565b820191905f5260205f20905b81548152906001019060200180831161497857829003601f168201915b5050505050815250508282815181106149b1576149b0617fa9565b5b6020026020010181905250808060010191505061479e565b5080935050505092915050565b6149de61626d565b7f000000000000000000000000000000000000000000000000000000000000000073ffffffffffffffffffffffffffffffffffffffff1663cc098bf6836040518263ffffffff1660e01b8152600401614a379190617adf565b608060405180830381865afa158015614a52573d5f803e3d5ffd5b505050506040513d601f19601f82011682018060405250810190614a769190617b6d565b9050919050565b6003602052805f5260405f205f91509050805f0154908060010154908060020154905083565b6002602052815f5260405f20602052805f5260405f205f91509150505481565b7f000000000000000000000000000000000000000000000000000000000000000081565b614aef615723565b3373ffffffffffffffffffffffffffffffffffffffff167f000000000000000000000000000000000000000000000000000000000000000073ffffffffffffffffffffffffffffffffffffffff16636352211e836040518263ffffffff1660e01b8152600401614b5f9190616340565b602060405180830381865afa158015614b7a573d5f803e3d5ffd5b505050506040513d601f19601f82011682018060405250810190614b9e91906183ec565b73ffffffffffffffffffffffffffffffffffffffff1614614bf4576040517f08c379a0000000000000000000000000000000000000000000000000000000008152600401614beb90618461565b60405180910390fd5b5f6002811115614c0757614c06616684565b5b7f000000000000000000000000000000000000000000000000000000000000000073ffffffffffffffffffffffffffffffffffffffff1663dd9dbf25836040518263ffffffff1660e01b8152600401614c609190616340565b60e060405180830381865afa158015614c7b573d5f803e3d5ffd5b505050506040513d601f19601f82011682018060405250810190614c9f9190617332565b604001516002811115614cb557614cb4616684565b5b14614cf5576040517f08c379a0000000000000000000000000000000000000000000000000000000008152600401614cec906184c9565b60405180910390fd5b5f7f000000000000000000000000000000000000000000000000000000000000000073ffffffffffffffffffffffffffffffffffffffff16636f6f9bef846040518263ffffffff1660e01b8152600401614d4f9190616340565b61010060405180830381865afa158015614d6b573d5f803e3d5ffd5b505050506040513d601f19601f82011682018060405250810190614d8f919061715d565b90505f6004811115614da457614da3616684565b5b815f01516004811115614dba57614db9616684565b5b14614dfa576040517f08c379a0000000000000000000000000000000000000000000000000000000008152600401614df190618531565b60405180910390fd5b8060600151421015614e41576040517f08c379a0000000000000000000000000000000000000000000000000000000008152600401614e3890618599565b60405180910390fd5b614e4a33615c13565b7f000000000000000000000000000000000000000000000000000000000000000073ffffffffffffffffffffffffffffffffffffffff16639bc5aedd8484336040518463ffffffff1660e01b8152600401614ea7939291906185b7565b5f604051808303815f87803b158015614ebe575f80fd5b505af1158015614ed0573d5f803e3d5ffd5b505050507f000000000000000000000000000000000000000000000000000000000000000073ffffffffffffffffffffffffffffffffffffffff1663f8e23937836040518263ffffffff1660e01b8152600401614f2d9190616340565b5f604051808303815f87803b158015614f44575f80fd5b505af1158015614f56573d5f803e3d5ffd5b505050505f614f6484615f6f565b90505f7f000000000000000000000000000000000000000000000000000000000000000073ffffffffffffffffffffffffffffffffffffffff1663dd9dbf25856040518263ffffffff1660e01b8152600401614fc09190616340565b60e060405180830381865afa158015614fdb573d5f803e3d5ffd5b505050506040513d601f19601f82011682018060405250810190614fff9190617332565b90505f61500e825f015161595f565b9050615073336040518060400160405280600581526020017f706c616e74000000000000000000000000000000000000000000000000000000815250888860018660405160200161505f9190618636565b604051602081830303815290604052615745565b84863373ffffffffffffffffffffffffffffffffffffffff167fe9d066f43c8a7c765b15b359553a8d0058f345fc38d18799ff4e431ea4f9ea9e60405160405180910390a4857f2dd11fcb08e31fe5be3a4714c671025df8219797265c11d3e8615ab1e96ed859846040516150e89190616340565b60405180910390a2505050506150fc615945565b5050565b6060600680548060200260200160405190810160405280929190818152602001828054801561518157602002820191905f5260205f20905b815f9054906101000a900473ffffffffffffffffffffffffffffffffffffffff1673ffffffffffffffffffffffffffffffffffffffff1681526020019060010190808311615138575b5050505050905090565b7f000000000000000000000000000000000000000000000000000000000000000081565b6151b761569c565b5f73ffffffffffffffffffffffffffffffffffffffff168173ffffffffffffffffffffffffffffffffffffffff1603615227575f6040517f1e4fbdf700000000000000000000000000000000000000000000000000000000815260040161521e9190616d76565b60405180910390fd5b61523081615eae565b50565b60607f000000000000000000000000000000000000000000000000000000000000000073ffffffffffffffffffffffffffffffffffffffff1663f3d1f97d6040518163ffffffff1660e01b81526004015f60405180830381865afa15801561529d573d5f803e3d5ffd5b505050506040513d5f823e3d601f19601f820116820180604052508101906152c59190617efa565b905090565b60075481565b6152d8615723565b5f7f000000000000000000000000000000000000000000000000000000000000000073ffffffffffffffffffffffffffffffffffffffff1663cc098bf6836040518263ffffffff1660e01b81526004016153329190617adf565b608060405180830381865afa15801561534d573d5f803e3d5ffd5b505050506040513d601f19601f820116820180604052508101906153719190617b6d565b905080604001516153b7576040517f08c379a00000000000000000000000000000000000000000000000000000000081526004016153ae906186c7565b60405180910390fd5b805f01513410156153fd576040517f08c379a00000000000000000000000000000000000000000000000000000000081526004016153f490617782565b60405180910390fd5b61540633615c13565b5f61541083615d7f565b90505f7f000000000000000000000000000000000000000000000000000000000000000073ffffffffffffffffffffffffffffffffffffffff16635f7560b63386856040518463ffffffff1660e01b815260040161547093929190617cfa565b6020604051808303815f875af115801561548c573d5f803e3d5ffd5b505050506040513d601f19601f820116820180604052508101906154b091906175f0565b90505f6154bc8561595f565b9050615521336040518060400160405280600881526020017f70757263686173650000000000000000000000000000000000000000000000008152505f8560018660405160200161550d919061872f565b604051602081830303815290604052615745565b3373ffffffffffffffffffffffffffffffffffffffff167f6b2d2e02a9bb1abdb0842f0c5321526b241590acebe2983c3bdd57166b81428686845f885f01516040516155709493929190617def565b60405180910390a2835f01513411156155d6573373ffffffffffffffffffffffffffffffffffffffff166108fc855f0151346155ac91906177cd565b90811502906040515f60405180830381858888f193505050501580156155d4573d5f803e3d5ffd5b505b505050506155e2615945565b50565b600a81565b5f80826080015190505f8360c0015160ff1690505f60028261560c9190617aa0565b90505f818361561b91906177cd565b905060788261562a919061875b565b8411615636575f61564f565b607882615643919061875b565b8461564e91906177cd565b5b93505f5b8181101561568f5760646005606461566b91906177cd565b86615676919061875b565b6156809190617aa0565b94508080600101915050615653565b5083945050505050919050565b6156a4616071565b73ffffffffffffffffffffffffffffffffffffffff166156c2613277565b73ffffffffffffffffffffffffffffffffffffffff1614615721576156e5616071565b6040517f118cdaa70000000000000000000000000000000000000000000000000000000081526004016157189190616d76565b60405180910390fd5b565b61572b616078565b600261573d6157386160b9565b6160e2565b5f0181905550565b61574e86615c13565b5f6040518060e001604052808873ffffffffffffffffffffffffffffffffffffffff168152602001428152602001878152602001868152602001858152602001848152602001838152509050600881908060018154018082558091505060019003905f5260205f2090600702015f909190919091505f820151815f015f6101000a81548173ffffffffffffffffffffffffffffffffffffffff021916908373ffffffffffffffffffffffffffffffffffffffff1602179055506020820151816001015560408201518160020190816158269190618930565b50606082015181600301556080820151816004015560a0820151816005015560c082015181600601908161585a9190618930565b50505060095f8873ffffffffffffffffffffffffffffffffffffffff1673ffffffffffffffffffffffffffffffffffffffff1681526020019081526020015f20600a54908060018154018082558091505060019003905f5260205f20015f9091909190915055600a5f8154809291906158d2906179c1565b919050555084866040516158e691906189ff565b60405180910390208873ffffffffffffffffffffffffffffffffffffffff167fbb183a4cc765d8c8413633c7d6d3e83741b81f505abfb9e4ba5ccb1b6f20e519426040516159349190616340565b60405180910390a450505050505050565b60016159576159526160b9565b6160e2565b5f0181905550565b60605f600581111561597457615973616684565b5b82600581111561598757615986616684565b5b036159c9576040518060400160405280600681526020017fe5b08fe9baa600000000000000000000000000000000000000000000000000008152509050615c0e565b600160058111156159dd576159dc616684565b5b8260058111156159f0576159ef616684565b5b03615a32576040518060400160405280600681526020017fe78e89e7b1b300000000000000000000000000000000000000000000000000008152509050615c0e565b60026005811115615a4657615a45616684565b5b826005811115615a5957615a58616684565b5b03615a9b576040518060400160405280600681526020017fe58d97e7939c00000000000000000000000000000000000000000000000000008152509050615c0e565b60036005811115615aaf57615aae616684565b5b826005811115615ac257615ac1616684565b5b03615b04576040518060400160405280600681526020017fe88d89e88e9300000000000000000000000000000000000000000000000000008152509050615c0e565b60046005811115615b1857615b17616684565b5b826005811115615b2b57615b2a616684565b5b03615b6d576040518060400160405280600681526020017fe891a1e8908400000000000000000000000000000000000000000000000000008152509050615c0e565b600580811115615b8057615b7f616684565b5b826005811115615b9357615b92616684565b5b03615bd5576040518060400160405280600681526020017fe8a5bfe7939c00000000000000000000000000000000000000000000000000008152509050615c0e565b6040518060400160405280600c81526020017fe69caae79fa5e4bd9ce789a9000000000000000000000000000000000000000081525090505b919050565b60055f8273ffffffffffffffffffffffffffffffffffffffff1673ffffffffffffffffffffffffffffffffffffffff1681526020019081526020015f205f9054906101000a900460ff16615d7c57600160055f8373ffffffffffffffffffffffffffffffffffffffff1673ffffffffffffffffffffffffffffffffffffffff1681526020019081526020015f205f6101000a81548160ff021916908315150217905550600681908060018154018082558091505060019003905f5260205f20015f9091909190916101000a81548173ffffffffffffffffffffffffffffffffffffffff021916908373ffffffffffffffffffffffffffffffffffffffff16021790555060075f815480929190615d28906179c1565b91905055508073ffffffffffffffffffffffffffffffffffffffff167f324cb0062138d65997c86cd3012489ceb351d602f2f55c7408306e8040c79f3f42604051615d739190616340565b60405180910390a25b50565b5f806005811115615d9357615d92616684565b5b826005811115615da657615da5616684565b5b1480615dd6575060016005811115615dc157615dc0616684565b5b826005811115615dd457615dd3616684565b5b145b80615e05575060026005811115615df057615def616684565b5b826005811115615e0357615e02616684565b5b145b15615e12575f9050615ea9565b60036005811115615e2657615e25616684565b5b826005811115615e3957615e38616684565b5b1480615e69575060046005811115615e5457615e53616684565b5b826005811115615e6757615e66616684565b5b145b80615e975750600580811115615e8257615e81616684565b5b826005811115615e9557615e94616684565b5b145b15615ea55760019050615ea9565b5f90505b919050565b5f805f9054906101000a900473ffffffffffffffffffffffffffffffffffffffff169050815f806101000a81548173ffffffffffffffffffffffffffffffffffffffff021916908373ffffffffffffffffffffffffffffffffffffffff1602179055508173ffffffffffffffffffffffffffffffffffffffff168173ffffffffffffffffffffffffffffffffffffffff167f8be0079c531659141344cd1fd0a4f28419497f9722a3daafe3b4186f6b6457e060405160405180910390a35050565b5f600c5f815480929190615f82906179c1565b91905055905081600b5f8381526020019081526020015f20819055505f615fa983336160eb565b90507f000000000000000000000000000000000000000000000000000000000000000073ffffffffffffffffffffffffffffffffffffffff1663f9c61bb984836040518363ffffffff1660e01b8152600401616006929190616d8f565b5f604051808303815f87803b15801561601d575f80fd5b505af115801561602f573d5f803e3d5ffd5b50505050827f8cb20d47ca8087e2e6995aa3a9e8183da5116f53bc7fd989f0d047c0e0f9e15d826040516160639190616340565b60405180910390a250919050565b5f33905090565b616080616147565b156160b7576040517f3ee5aeb500000000000000000000000000000000000000000000000000000000815260040160405180910390fd5b565b5f7f9b779b17422d0df92223018b32b4d1fa46e071723d6817e2486d003becc55f005f1b905090565b5f819050919050565b5f805f43116160fc575f801b61610b565b60014361610991906177cd565b405b90508042848644604051602001616126959493929190618aa3565b604051602081830303815290604052805190602001205f1c91505092915050565b5f600261615a6161556160b9565b6160e2565b5f015414905090565b60405180606001604052805f81526020015f81526020015f81525090565b6040518060e001604052805f73ffffffffffffffffffffffffffffffffffffffff1681526020015f81526020015f81526020015f81526020015f81526020015f81526020015f81525090565b6040518060a001604052805f81526020015f81526020015f81526020015f81526020015f81525090565b6040518060e001604052805f73ffffffffffffffffffffffffffffffffffffffff1681526020015f8152602001606081526020015f81526020015f81526020015f8152602001606081525090565b60405180608001604052805f81526020015f81526020015f151581526020015f151581525090565b60405180608001604052805f81526020015f81526020015f151581526020015f151581525090565b5f73ffffffffffffffffffffffffffffffffffffffff82169050919050565b5f819050919050565b5f6162d76162d26162cd84616295565b6162b4565b616295565b9050919050565b5f6162e8826162bd565b9050919050565b5f6162f9826162de565b9050919050565b616309816162ef565b82525050565b5f6020820190506163225f830184616300565b92915050565b5f819050919050565b61633a81616328565b82525050565b5f6020820190506163535f830184616331565b92915050565b5f604051905090565b5f80fd5b5f80fd5b5f61637482616295565b9050919050565b6163848161636a565b811461638e575f80fd5b50565b5f8135905061639f8161637b565b92915050565b5f602082840312156163ba576163b9616362565b5b5f6163c784828501616391565b91505092915050565b5f8115159050919050565b6163e4816163d0565b82525050565b5f6020820190506163fd5f8301846163db565b92915050565b61640c81616328565b8114616416575f80fd5b50565b5f8135905061642781616403565b92915050565b5f6020828403121561644257616441616362565b5b5f61644f84828501616419565b91505092915050565b60028110616464575f80fd5b50565b5f8135905061647581616458565b92915050565b616484816163d0565b811461648e575f80fd5b50565b5f8135905061649f8161647b565b92915050565b5f805f805f60a086880312156164be576164bd616362565b5b5f6164cb88828901616467565b95505060206164dc88828901616419565b94505060406164ed88828901616419565b93505060606164fe88828901616491565b925050608061650f88828901616491565b9150509295509295909350565b5f616526826162de565b9050919050565b6165368161651c565b82525050565b5f60208201905061654f5f83018461652d565b92915050565b61655e81616328565b82525050565b606082015f8201516165785f850182616555565b50602082015161658b6020850182616555565b50604082015161659e6040850182616555565b50505050565b5f6060820190506165b75f830184616564565b92915050565b5f805f606084860312156165d4576165d3616362565b5b5f6165e186828701616419565b93505060206165f286828701616467565b925050604061660386828701616491565b9150509250925092565b60068110616619575f80fd5b50565b5f8135905061662a8161660d565b92915050565b5f6020828403121561664557616644616362565b5b5f6166528482850161661c565b91505092915050565b5f81519050919050565b5f82825260208201905092915050565b5f819050602082019050919050565b7f4e487b71000000000000000000000000000000000000000000000000000000005f52602160045260245ffd5b600681106166c2576166c1616684565b5b50565b5f8190506166d2826166b1565b919050565b5f6166e1826166c5565b9050919050565b6166f1816166d7565b82525050565b5f61670283836166e8565b60208301905092915050565b5f602082019050919050565b5f6167248261665b565b61672e8185616665565b935061673983616675565b805f5b8381101561676957815161675088826166f7565b975061675b8361670e565b92505060018101905061673c565b5085935050505092915050565b5f6020820190508181035f83015261678e818461671a565b905092915050565b5f81519050919050565b5f82825260208201905092915050565b5f819050602082019050919050565b6167c88161636a565b82525050565b60e082015f8201516167e25f8501826167bf565b5060208201516167f56020850182616555565b5060408201516168086040850182616555565b50606082015161681b6060850182616555565b50608082015161682e6080850182616555565b5060a082015161684160a0850182616555565b5060c082015161685460c0850182616555565b50505050565b5f61686583836167ce565b60e08301905092915050565b5f602082019050919050565b5f61688782616796565b61689181856167a0565b935061689c836167b0565b805f5b838110156168cc5781516168b3888261685a565b97506168be83616871565b92505060018101905061689f565b5085935050505092915050565b5f6020820190508181035f8301526168f1818461687d565b905092915050565b60a082015f82015161690d5f850182616555565b5060208201516169206020850182616555565b5060408201516169336040850182616555565b5060608201516169466060850182616555565b5060808201516169596080850182616555565b50505050565b5f60a0820190506169725f8301846168f9565b92915050565b5f6020828403121561698d5761698c616362565b5b5f61699a84828501616467565b91505092915050565b5f6080820190506169b65f830187616331565b6169c36020830186616331565b6169d060408301856163db565b6169dd60608301846163db565b95945050505050565b5f80604083850312156169fc576169fb616362565b5b5f616a0985828601616391565b9250506020616a1a85828601616419565b9150509250929050565b5f81519050919050565b5f82825260208201905092915050565b5f819050602082019050919050565b5f81519050919050565b5f82825260208201905092915050565b5f5b83811015616a84578082015181840152602081019050616a69565b5f8484015250505050565b5f601f19601f8301169050919050565b5f616aa982616a4d565b616ab38185616a57565b9350616ac3818560208601616a67565b616acc81616a8f565b840191505092915050565b5f60e083015f830151616aec5f8601826167bf565b506020830151616aff6020860182616555565b5060408301518482036040860152616b178282616a9f565b9150506060830151616b2c6060860182616555565b506080830151616b3f6080860182616555565b5060a0830151616b5260a0860182616555565b5060c083015184820360c0860152616b6a8282616a9f565b9150508091505092915050565b5f616b828383616ad7565b905092915050565b5f602082019050919050565b5f616ba082616a24565b616baa8185616a2e565b935083602082028501616bbc85616a3e565b805f5b85811015616bf75784840389528151616bd88582616b77565b9450616be383616b8a565b925060208a01995050600181019050616bbf565b50829750879550505050505092915050565b5f6020820190508181035f830152616c218184616b96565b905092915050565b616c32816163d0565b82525050565b608082015f820151616c4c5f850182616555565b506020820151616c5f6020850182616555565b506040820151616c726040850182616c29565b506060820151616c856060850182616c29565b50505050565b5f608082019050616c9e5f830184616c38565b92915050565b616cad8161636a565b82525050565b5f82825260208201905092915050565b5f616ccd82616a4d565b616cd78185616cb3565b9350616ce7818560208601616a67565b616cf081616a8f565b840191505092915050565b5f60e082019050616d0e5f83018a616ca4565b616d1b6020830189616331565b8181036040830152616d2d8188616cc3565b9050616d3c6060830187616331565b616d496080830186616331565b616d5660a0830185616331565b81810360c0830152616d688184616cc3565b905098975050505050505050565b5f602082019050616d895f830184616ca4565b92915050565b5f604082019050616da25f830185616331565b616daf6020830184616331565b9392505050565b608082015f820151616dca5f850182616555565b506020820151616ddd6020850182616555565b506040820151616df06040850182616c29565b506060820151616e036060850182616c29565b50505050565b5f608082019050616e1c5f830184616db6565b92915050565b5f606082019050616e355f830186616331565b616e426020830185616331565b616e4f6040830184616331565b949350505050565b5f616e61826162de565b9050919050565b616e7181616e57565b82525050565b5f602082019050616e8a5f830184616e68565b92915050565b5f8060408385031215616ea657616ea5616362565b5b5f616eb385828601616419565b9250506020616ec485828601616419565b9150509250929050565b5f81519050919050565b5f82825260208201905092915050565b5f819050602082019050919050565b5f616f0283836167bf565b60208301905092915050565b5f602082019050919050565b5f616f2482616ece565b616f2e8185616ed8565b9350616f3983616ee8565b805f5b83811015616f69578151616f508882616ef7565b9750616f5b83616f0e565b925050600181019050616f3c565b5085935050505092915050565b5f6020820190508181035f830152616f8e8184616f1a565b905092915050565b5f616fa0826162de565b9050919050565b616fb081616f96565b82525050565b5f602082019050616fc95f830184616fa7565b92915050565b5f80fd5b7f4e487b71000000000000000000000000000000000000000000000000000000005f52604160045260245ffd5b61700982616a8f565b810181811067ffffffffffffffff8211171561702857617027616fd3565b5b80604052505050565b5f61703a616359565b90506170468282617000565b919050565b60058110617057575f80fd5b50565b5f815190506170688161704b565b92915050565b5f8151905061707c81616403565b92915050565b5f815190506170908161637b565b92915050565b5f61010082840312156170ac576170ab616fcf565b5b6170b7610100617031565b90505f6170c68482850161705a565b5f8301525060206170d98482850161706e565b60208301525060406170ed8482850161706e565b60408301525060606171018482850161706e565b60608301525060806171158482850161706e565b60808301525060a06171298482850161706e565b60a08301525060c061713d8482850161706e565b60c08301525060e061715184828501617082565b60e08301525092915050565b5f610100828403121561717357617172616362565b5b5f61718084828501617096565b91505092915050565b7f4661726d47616d653a204c616e64206e6f742067726f77696e670000000000005f82015250565b5f6171bd601a83616cb3565b91506171c882617189565b602082019050919050565b5f6020820190508181035f8301526171ea816171b1565b9050919050565b5f815190506171ff8161660d565b92915050565b60038110617211575f80fd5b50565b5f8151905061722281617205565b92915050565b60038110617234575f80fd5b50565b5f8151905061724581617228565b92915050565b5f60ff82169050919050565b6172608161724b565b811461726a575f80fd5b50565b5f8151905061727b81617257565b92915050565b5f60e0828403121561729657617295616fcf565b5b6172a060e0617031565b90505f6172af848285016171f1565b5f8301525060206172c284828501617214565b60208301525060406172d684828501617237565b60408301525060606172ea8482850161706e565b60608301525060806172fe8482850161706e565b60808301525060a06173128482850161706e565b60a08301525060c06173268482850161726d565b60c08301525092915050565b5f60e0828403121561734757617346616362565b5b5f61735484828501617281565b91505092915050565b5f8151905061736b8161647b565b92915050565b5f6020828403121561738657617385616362565b5b5f6173938482850161735d565b91505092915050565b7f4661726d47616d653a204e6f206e617469766520746f6b656e7320746f2077695f8201527f7468647261770000000000000000000000000000000000000000000000000000602082015250565b5f6173f6602683616cb3565b91506174018261739c565b604082019050919050565b5f6020820190508181035f830152617423816173ea565b9050919050565b7f4661726d47616d653a204e6f7420746865206661726d657200000000000000005f82015250565b5f61745e601883616cb3565b91506174698261742a565b602082019050919050565b5f6020820190508181035f83015261748b81617452565b9050919050565b7f4661726d47616d653a2043726f70206e6f742067726f77696e670000000000005f82015250565b5f6174c6601a83616cb3565b91506174d182617492565b602082019050919050565b5f6020820190508181035f8301526174f3816174ba565b9050919050565b7f4661726d47616d653a204d617820626f6f7374657273207265616368656400005f82015250565b5f61752e601e83616cb3565b9150617539826174fa565b602082019050919050565b5f6020820190508181035f83015261755b81617522565b9050919050565b7f4661726d47616d653a20426f6f73746572206e6f7420617661696c61626c65205f8201527f666f72204b494e44000000000000000000000000000000000000000000000000602082015250565b5f6175bc602883616cb3565b91506175c782617562565b604082019050919050565b5f6020820190508181035f8301526175e9816175b0565b9050919050565b5f6020828403121561760557617604616362565b5b5f6176128482850161706e565b91505092915050565b7f4661726d47616d653a20496e73756666696369656e74204b494e4400000000005f82015250565b5f61764f601b83616cb3565b915061765a8261761b565b602082019050919050565b5f6020820190508181035f83015261767c81617643565b9050919050565b5f6040820190506176965f830185616ca4565b6176a36020830184616331565b9392505050565b7f4661726d47616d653a20426f6f73746572206e6f7420617661696c61626c65205f8201527f666f72206e617469766520746f6b656e00000000000000000000000000000000602082015250565b5f617704603083616cb3565b915061770f826176aa565b604082019050919050565b5f6020820190508181035f830152617731816176f8565b9050919050565b7f4661726d47616d653a20496e73756666696369656e74207061796d656e7400005f82015250565b5f61776c601e83616cb3565b915061777782617738565b602082019050919050565b5f6020820190508181035f83015261779981617760565b9050919050565b7f4e487b71000000000000000000000000000000000000000000000000000000005f52601160045260245ffd5b5f6177d782616328565b91506177e283616328565b92508282039050818111156177fa576177f96177a0565b5b92915050565b5f81905092915050565b7fe4bdbfe794a8e4ba8600000000000000000000000000000000000000000000005f82015250565b5f61783e600983617800565b91506178498261780a565b600982019050919050565b5f61785e82616a4d565b6178688185617800565b9350617878818560208601616a67565b80840191505092915050565b7fe98193e585b700000000000000000000000000000000000000000000000000005f82015250565b5f6178b8600683617800565b91506178c382617884565b600682019050919050565b5f6178d882617832565b91506178e48284617854565b91506178ef826178ac565b915081905092915050565b6002811061790b5761790a616684565b5b50565b5f81905061791b826178fa565b919050565b5f61792a8261790e565b9050919050565b61793a81617920565b82525050565b5f6020820190506179535f830184617931565b92915050565b7f4661726d47616d653a2043726f70206e6f7420726561647900000000000000005f82015250565b5f61798d601883616cb3565b915061799882617959565b602082019050919050565b5f6020820190508181035f8301526179ba81617981565b9050919050565b5f6179cb82616328565b91507fffffffffffffffffffffffffffffffffffffffffffffffffffffffffffffffff82036179fd576179fc6177a0565b5b600182019050919050565b7fe694b6e88eb7e4ba8600000000000000000000000000000000000000000000005f82015250565b5f617a3c600983617800565b9150617a4782617a08565b600982019050919050565b5f617a5c82617a30565b9150617a688284617854565b915081905092915050565b7f4e487b71000000000000000000000000000000000000000000000000000000005f52601260045260245ffd5b5f617aaa82616328565b9150617ab583616328565b925082617ac557617ac4617a73565b5b828204905092915050565b617ad9816166d7565b82525050565b5f602082019050617af25f830184617ad0565b92915050565b5f60808284031215617b0d57617b0c616fcf565b5b617b176080617031565b90505f617b268482850161706e565b5f830152506020617b398482850161706e565b6020830152506040617b4d8482850161735d565b6040830152506060617b618482850161735d565b60608301525092915050565b5f60808284031215617b8257617b81616362565b5b5f617b8f84828501617af8565b91505092915050565b7f4661726d47616d653a2053656564206e6f7420617661696c61626c6520666f725f8201527f204b494e4420746f6b656e000000000000000000000000000000000000000000602082015250565b5f617bf2602b83616cb3565b9150617bfd82617b98565b604082019050919050565b5f6020820190508181035f830152617c1f81617be6565b9050919050565b7f4661726d47616d653a20496e73756666696369656e74204b494e442062616c615f8201527f6e63650000000000000000000000000000000000000000000000000000000000602082015250565b5f617c80602383616cb3565b9150617c8b82617c26565b604082019050919050565b5f6020820190508181035f830152617cad81617c74565b9050919050565b60038110617cc557617cc4616684565b5b50565b5f819050617cd582617cb4565b919050565b5f617ce482617cc8565b9050919050565b617cf481617cda565b82525050565b5f606082019050617d0d5f830186616ca4565b617d1a6020830185617ad0565b617d276040830184617ceb565b949350505050565b7fe794a84b494e44e8b4ade4b9b0e4ba86000000000000000000000000000000005f82015250565b5f617d63601083617800565b9150617d6e82617d2f565b601082019050919050565b7fe7a78de5ad9000000000000000000000000000000000000000000000000000005f82015250565b5f617dad600683617800565b9150617db882617d79565b600682019050919050565b5f617dcd82617d57565b9150617dd98284617854565b9150617de482617da1565b915081905092915050565b5f608082019050617e025f830187617ad0565b617e0f6020830186616331565b617e1c60408301856163db565b617e296060830184616331565b95945050505050565b5f80fd5b5f67ffffffffffffffff821115617e5057617e4f616fd3565b5b602082029050602081019050919050565b5f80fd5b5f617e77617e7284617e36565b617031565b90508083825260208201905060208402830185811115617e9a57617e99617e61565b5b835b81811015617ec35780617eaf88826171f1565b845260208401935050602081019050617e9c565b5050509392505050565b5f82601f830112617ee157617ee0617e32565b5b8151617ef1848260208601617e65565b91505092915050565b5f60208284031215617f0f57617f0e616362565b5b5f82015167ffffffffffffffff811115617f2c57617f2b616366565b5b617f3884828501617ecd565b91505092915050565b7f496e76616c6964206c696d6974000000000000000000000000000000000000005f82015250565b5f617f75600d83616cb3565b9150617f8082617f41565b602082019050919050565b5f6020820190508181035f830152617fa281617f69565b9050919050565b7f4e487b71000000000000000000000000000000000000000000000000000000005f52603260045260245ffd5b5f617fe082616328565b9150617feb83616328565b9250828201905080821115618003576180026177a0565b5b92915050565b7f4e487b71000000000000000000000000000000000000000000000000000000005f52602260045260245ffd5b5f600282049050600182168061804d57607f821691505b6020821081036180605761805f618009565b5b50919050565b7f4661726d47616d653a2043616e6e6f742068656c7020796f757273656c6600005f82015250565b5f61809a601e83616cb3565b91506180a582618066565b602082019050919050565b5f6020820190508181035f8301526180c78161808e565b9050919050565b7f4661726d47616d653a204e6f206661726d6572206f6e2074686973206c616e645f82015250565b5f618102602083616cb3565b915061810d826180ce565b602082019050919050565b5f6020820190508181035f83015261812f816180f6565b9050919050565b7f4661726d47616d653a204461696c792068656c70206c696d69742072656163685f8201527f6564000000000000000000000000000000000000000000000000000000000000602082015250565b5f618190602283616cb3565b915061819b82618136565b604082019050919050565b5f6020820190508181035f8301526181bd81618184565b9050919050565b5f6040820190506181d75f830185616ca4565b6181e46020830184616ca4565b9392505050565b7fe5b8aee58aa9e585b6e4bb96e5869ce6b09100000000000000000000000000005f82015250565b5f61821f601283617800565b915061822a826181eb565b601282019050919050565b5f61823f82618213565b915061824b8284617854565b915081905092915050565b7f506c61796572206e6f74207265676973746572656400000000000000000000005f82015250565b5f61828a601583616cb3565b915061829582618256565b602082019050919050565b5f6020820190508181035f8301526182b78161827e565b9050919050565b7f4661726d47616d653a2043616e6e6f7420737465616c2066726f6d20796f75725f8201527f73656c6600000000000000000000000000000000000000000000000000000000602082015250565b5f618318602483616cb3565b9150618323826182be565b604082019050919050565b5f6020820190508181035f8301526183458161830c565b9050919050565b5f60608201905061835f5f830186616ca4565b61836c6020830185616ca4565b6183796040830184616331565b949350505050565b7fe581b7e58f96e4ba8600000000000000000000000000000000000000000000005f82015250565b5f6183b5600983617800565b91506183c082618381565b600982019050919050565b5f6183d5826183a9565b91506183e18284617854565b915081905092915050565b5f6020828403121561840157618400616362565b5b5f61840e84828501617082565b91505092915050565b7f4661726d47616d653a204e6f742073656564206f776e657200000000000000005f82015250565b5f61844b601883616cb3565b915061845682618417565b602082019050919050565b5f6020820190508181035f8301526184788161843f565b9050919050565b7f4661726d47616d653a2053656564206e6f7420696e20536565642073746167655f82015250565b5f6184b3602083616cb3565b91506184be8261847f565b602082019050919050565b5f6020820190508181035f8301526184e0816184a7565b9050919050565b7f4661726d47616d653a204c616e64206e6f7420617661696c61626c65000000005f82015250565b5f61851b601c83616cb3565b9150618526826184e7565b602082019050919050565b5f6020820190508181035f8301526185488161850f565b9050919050565b7f4661726d47616d653a204c616e6420696e20636f6f6c646f776e0000000000005f82015250565b5f618583601a83616cb3565b915061858e8261854f565b602082019050919050565b5f6020820190508181035f8301526185b081618577565b9050919050565b5f6060820190506185ca5f830186616331565b6185d76020830185616331565b6185e46040830184616ca4565b949350505050565b7fe7a78de6a48de4ba8600000000000000000000000000000000000000000000005f82015250565b5f618620600983617800565b915061862b826185ec565b600982019050919050565b5f61864082618614565b915061864c8284617854565b915081905092915050565b7f4661726d47616d653a2053656564206e6f7420617661696c61626c6520666f725f8201527f206e617469766520746f6b656e00000000000000000000000000000000000000602082015250565b5f6186b1602d83616cb3565b91506186bc82618657565b604082019050919050565b5f6020820190508181035f8301526186de816186a5565b9050919050565b7fe8b4ade4b9b0e4ba8600000000000000000000000000000000000000000000005f82015250565b5f618719600983617800565b9150618724826186e5565b600982019050919050565b5f6187398261870d565b91506187458284617854565b915061875082617da1565b915081905092915050565b5f61876582616328565b915061877083616328565b925082820261877e81616328565b91508282048414831517618795576187946177a0565b5b5092915050565b5f819050815f5260205f209050919050565b5f6020601f8301049050919050565b5f82821b905092915050565b5f600883026187f87fffffffffffffffffffffffffffffffffffffffffffffffffffffffffffffffff826187bd565b61880286836187bd565b95508019841693508086168417925050509392505050565b5f61883461882f61882a84616328565b6162b4565b616328565b9050919050565b5f819050919050565b61884d8361881a565b6188616188598261883b565b8484546187c9565b825550505050565b5f90565b618875618869565b618880818484618844565b505050565b5b818110156188a3576188985f8261886d565b600181019050618886565b5050565b601f8211156188e8576188b98161879c565b6188c2846187ae565b810160208510156188d1578190505b6188e56188dd856187ae565b830182618885565b50505b505050565b5f82821c905092915050565b5f6189085f19846008026188ed565b1980831691505092915050565b5f61892083836188f9565b9150826002028217905092915050565b61893982616a4d565b67ffffffffffffffff81111561895257618951616fd3565b5b61895c8254618036565b6189678282856188a7565b5f60209050601f831160018114618998575f8415618986578287015190505b6189908582618915565b8655506189f7565b601f1984166189a68661879c565b5f5b828110156189cd578489015182556001820191506020850194506020810190506189a8565b868310156189ea57848901516189e6601f8916826188f9565b8355505b6001600288020188555050505b505050505050565b5f618a0a8284617854565b915081905092915050565b5f819050919050565b5f819050919050565b618a38618a3382618a15565b618a1e565b82525050565b5f819050919050565b618a58618a5382616328565b618a3e565b82525050565b5f8160601b9050919050565b5f618a7482618a5e565b9050919050565b5f618a8582618a6a565b9050919050565b618a9d618a988261636a565b618a7b565b82525050565b5f618aae8288618a27565b602082019150618abe8287618a47565b602082019150618ace8286618a8c565b601482019150618ade8285618a47565b602082019150618aee8284618a47565b602082019150819050969550505050505056fea26469706673582212203d8ebbddc2b7ac4d0f3f44f86df99403cf5218339d72f29c9a568b7c15b5797964736f6c63430008180033","linkReferences":{}},"methodIdentifiers":{"DAILY_HELP_LIMIT()":"b58c5f22","FERTILIZING_PERCENTAGE_REDUCTION()":"0beb4513","MAX_BOOSTERS_PER_CROP()":"fc637ae2","WATERING_TIME_REDUCTION()":"354daed6","applyBooster(uint256,uint8,bool)":"56863eed","boosterPrices(uint8)":"6d8e25fc","buySeedWithKind(uint8)":"631beab3","buySeedWithNative(uint8)":"f9863442","checkAndAdvanceGrowth(uint256)":"24b0836e","claimLand(uint256,uint256)":"ef6f1a2f","dailyHelps(address,uint256)":"d5b4d6f4","emergencyPause()":"51858e27","gameEvents(uint256)":"84cd039a","getAllPlayers()":"efa1c482","getAvailableSeedsForKind()":"f3d1f97d","getAvailableSeedsForNative()":"65467c79","getBoosterPrice(uint8)":"7b652f73","getGlobalStats()":"6b4169c3","getHarvestLeaderboard(uint256)":"6ea0e81c","getKindnessLeaderboard(uint256)":"6ab5b69c","getPlayerEventCount(address)":"a3877d1b","getPlayerEvents(address,uint256)":"c4e7a75b","getPlayerRank(address)":"a697cb0e","getPlayerStats(address)":"4fd66eae","getRecentEvents(uint256)":"70e9e623","getRemainingDailyHelps(address)":"61179b4c","getSeedPrice(uint8)":"cc098bf6","getTotalPlayers()":"4529cae7","harvestCrop(uint256)":"5d0cc38f","helpOther(uint256,uint8,bool)":"95ad8187","isPlayerRegistered(address)":"1417b82a","kindToken()":"ea1c80ab","landNFT()":"39d022e1","lastHelpDay(address)":"1309d055","owner()":"8da5cb5b","playerEventIndexes(address,uint256)":"6ef517e5","playerList(uint256)":"ae6d9073","playerStats(address)":"cdafbbb6","registeredPlayers(address)":"4bafce22","renounceOwnership()":"715018a6","seedNFT()":"f0cab623","shop()":"0881fa0d","stealCrop(uint256)":"ae1ec92e","totalEvents()":"ba870686","totalPlayers()":"f60cdcf6","transferOwnership(address)":"f2fde38b","updateBoosterPrice(uint8,uint256,uint256,bool,bool)":"37952bda","weatherRequestToLand(uint256)":"2b2ce55a","withdrawNative()":"50431ce4"},"id":40}