{"abi":[{"type":"function","name":"batchTestDifferentScenarios","inputs":[{"name":"count","type":"uint256","internalType":"uint256"}],"outputs":[],"stateMutability":"nonpayable"},{"type":"function","name":"batchTestSameUser","inputs":[{"name":"count","type":"uint256","internalType":"uint256"}],"outputs":[],"stateMutability":"nonpayable"},{"type":"function","name":"checkSeedUniqueness","inputs":[{"name":"landId","type":"uint256","internalType":"uint256"},{"name":"count","type":"uint256","internalType":"uint256"}],"outputs":[{"name":"uniqueSeeds","type":"uint256","internalType":"uint256"},{"name":"totalSeeds","type":"uint256","internalType":"uint256"}],"stateMutability":"view"},{"type":"function","name":"generateWeatherForLand","inputs":[{"name":"landId","type":"uint256","internalType":"uint256"}],"outputs":[{"name":"","type":"uint8","internalType":"enum BlockhashRandomTest.WeatherType"}],"stateMutability":"nonpayable"},{"type":"function","name":"generateWeatherSeed","inputs":[{"name":"landId","type":"uint256","internalType":"uint256"},{"name":"user","type":"address","internalType":"address"}],"outputs":[{"name":"","type":"bytes32","internalType":"bytes32"}],"stateMutability":"view"},{"type":"function","name":"getCurrentBlockInfo","inputs":[],"outputs":[{"name":"blockNumber","type":"uint256","internalType":"uint256"},{"name":"timestamp","type":"uint256","internalType":"uint256"},{"name":"currentBlockHash","type":"bytes32","internalType":"bytes32"},{"name":"previousBlockHash","type":"bytes32","internalType":"bytes32"},{"name":"difficulty","type":"uint256","internalType":"uint256"}],"stateMutability":"view"},{"type":"function","name":"getLandTestHistory","inputs":[{"name":"landId","type":"uint256","internalType":"uint256"}],"outputs":[{"name":"seeds","type":"bytes32[]","internalType":"bytes32[]"},{"name":"blockNumbers","type":"uint256[]","internalType":"uint256[]"},{"name":"timestamps","type":"uint256[]","internalType":"uint256[]"},{"name":"users","type":"address[]","internalType":"address[]"},{"name":"weathers","type":"uint8[]","internalType":"enum BlockhashRandomTest.WeatherType[]"}],"stateMutability":"view"},{"type":"function","name":"getWeatherDistribution","inputs":[],"outputs":[{"name":"sunnyCount","type":"uint256","internalType":"uint256"},{"name":"rainyCount","type":"uint256","internalType":"uint256"},{"name":"cloudyCount","type":"uint256","internalType":"uint256"},{"name":"stormCount","type":"uint256","internalType":"uint256"},{"name":"total","type":"uint256","internalType":"uint256"}],"stateMutability":"view"},{"type":"function","name":"getWeatherPercentages","inputs":[],"outputs":[{"name":"sunnyPercent","type":"uint256","internalType":"uint256"},{"name":"rainyPercent","type":"uint256","internalType":"uint256"},{"name":"cloudyPercent","type":"uint256","internalType":"uint256"},{"name":"stormPercent","type":"uint256","internalType":"uint256"}],"stateMutability":"view"},{"type":"function","name":"resetStats","inputs":[],"outputs":[],"stateMutability":"nonpayable"},{"type":"function","name":"seedToWeather","inputs":[{"name":"seed","type":"bytes32","internalType":"bytes32"}],"outputs":[{"name":"","type":"uint8","internalType":"enum BlockhashRandomTest.WeatherType"}],"stateMutability":"pure"},{"type":"function","name":"testResults","inputs":[{"name":"","type":"uint256","internalType":"uint256"},{"name":"","type":"uint256","internalType":"uint256"}],"outputs":[{"name":"seed","type":"bytes32","internalType":"bytes32"},{"name":"blockNumber","type":"uint256","internalType":"uint256"},{"name":"timestamp","type":"uint256","internalType":"uint256"},{"name":"user","type":"address","internalType":"address"},{"name":"weather","type":"uint8","internalType":"enum BlockhashRandomTest.WeatherType"}],"stateMutability":"view"},{"type":"function","name":"testSameBlockCalls","inputs":[{"name":"landId","type":"uint256","internalType":"uint256"},{"name":"count","type":"uint256","internalType":"uint256"}],"outputs":[{"name":"allDifferent","type":"bool","internalType":"bool"}],"stateMutability":"nonpayable"},{"type":"function","name":"totalTests","inputs":[],"outputs":[{"name":"","type":"uint256","internalType":"uint256"}],"stateMutability":"view"},{"type":"function","name":"weatherCount","inputs":[{"name":"","type":"uint8","internalType":"enum BlockhashRandomTest.WeatherType"}],"outputs":[{"name":"","type":"uint256","internalType":"uint256"}],"stateMutability":"view"},{"type":"event","name":"RandomGenerated","inputs":[{"name":"testId","type":"uint256","indexed":true,"internalType":"uint256"},{"name":"seed","type":"bytes32","indexed":false,"internalType":"bytes32"},{"name":"weather","type":"uint8","indexed":false,"internalType":"enum BlockhashRandomTest.WeatherType"},{"name":"blockNumber","type":"uint256","indexed":false,"internalType":"uint256"},{"name":"user","type":"address","indexed":false,"internalType":"address"}],"anonymous":false}],"bytecode":{"object":"0x608060405234801561000f575f80fd5b50611f6e8061001d5f395ff3fe608060405234801561000f575f80fd5b50600436106100f3575f3560e01c8063724ec8a211610095578063a79c2a1c11610064578063a79c2a1c1461029c578063c7d2f4be146102be578063c99cee2f146102ef578063cffc800b14610311576100f3565b8063724ec8a2146102145780637777cfe31461021e5780638aae29621461024e5780639a7d78d91461026c576100f3565b80633fb9260f116100d15780633fb9260f1461017c578063449ba2ca146101ac5780635338ad03146101c857806364f8bf02146101f8576100f3565b806327557299146100f7578063349741f3146101185780633e3baaf71461014c575b5f80fd5b6100ff610345565b60405161010f9493929190611479565b60405180910390f35b610132600480360381019061012d91906114ea565b6104b0565b60405161014395949392919061188e565b60405180910390f35b610166600480360381019061016191906114ea565b610836565b6040516101739190611911565b60405180910390f35b6101966004803603810190610191919061192a565b610a12565b6040516101a39190611982565b60405180910390f35b6101c660048036038101906101c191906114ea565b610b64565b005b6101e260048036038101906101dd91906119c5565b610d97565b6040516101ef9190611911565b60405180910390f35b610212600480360381019061020d91906114ea565b610ded565b005b61021c610fed565b005b61023860048036038101906102339190611a13565b6110e0565b6040516102459190611a3e565b60405180910390f35b6102566110f5565b6040516102639190611a3e565b60405180910390f35b61028660048036038101906102819190611a81565b6110fb565b6040516102939190611ace565b60405180910390f35b6102a4611140565b6040516102b5959493929190611ae7565b60405180910390f35b6102d860048036038101906102d3919061192a565b611233565b6040516102e6929190611b38565b60405180910390f35b6102f76113c1565b604051610308959493929190611b5f565b60405180910390f35b61032b6004803603810190610326919061192a565b6113ea565b60405161033c959493929190611bbf565b60405180910390f35b5f805f805f60025403610363575f805f8093509350935093506104aa565b600254606460015f80600381111561037e5761037d61179c565b5b60038111156103905761038f61179c565b5b81526020019081526020015f20546103a89190611c3d565b6103b29190611cab565b600254606460015f600160038111156103ce576103cd61179c565b5b60038111156103e0576103df61179c565b5b81526020019081526020015f20546103f89190611c3d565b6104029190611cab565b600254606460015f6002600381111561041e5761041d61179c565b5b60038111156104305761042f61179c565b5b81526020019081526020015f20546104489190611c3d565b6104529190611cab565b600254606460015f60038081111561046d5761046c61179c565b5b600381111561047f5761047e61179c565b5b81526020019081526020015f20546104979190611c3d565b6104a19190611cab565b93509350935093505b90919293565b60608060608060605f805f8881526020019081526020015f2090505f818054905090508067ffffffffffffffff8111156104ed576104ec611cdb565b5b60405190808252806020026020018201604052801561051b5781602001602082028036833780820191505090505b5096508067ffffffffffffffff81111561053857610537611cdb565b5b6040519080825280602002602001820160405280156105665781602001602082028036833780820191505090505b5095508067ffffffffffffffff81111561058357610582611cdb565b5b6040519080825280602002602001820160405280156105b15781602001602082028036833780820191505090505b5094508067ffffffffffffffff8111156105ce576105cd611cdb565b5b6040519080825280602002602001820160405280156105fc5781602001602082028036833780820191505090505b5093508067ffffffffffffffff81111561061957610618611cdb565b5b6040519080825280602002602001820160405280156106475781602001602082028036833780820191505090505b5092505f5b8181101561082a5782818154811061066757610666611d08565b5b905f5260205f2090600402015f015488828151811061068957610688611d08565b5b6020026020010181815250508281815481106106a8576106a7611d08565b5b905f5260205f209060040201600101548782815181106106cb576106ca611d08565b5b6020026020010181815250508281815481106106ea576106e9611d08565b5b905f5260205f2090600402016002015486828151811061070d5761070c611d08565b5b60200260200101818152505082818154811061072c5761072b611d08565b5b905f5260205f2090600402016003015f9054906101000a900473ffffffffffffffffffffffffffffffffffffffff1685828151811061076e5761076d611d08565b5b602002602001019073ffffffffffffffffffffffffffffffffffffffff16908173ffffffffffffffffffffffffffffffffffffffff16815250508281815481106107bb576107ba611d08565b5b905f5260205f20906004020160030160149054906101000a900460ff168482815181106107eb576107ea611d08565b5b602002602001019060038111156108055761080461179c565b5b908160038111156108195761081861179c565b5b81525050808060010191505061064c565b50505091939590929450565b5f8061084283336110fb565b90505f61084e82610d97565b90505f808581526020019081526020015f206040518060a001604052808481526020014381526020014281526020013373ffffffffffffffffffffffffffffffffffffffff1681526020018360038111156108ac576108ab61179c565b5b815250908060018154018082558091505060019003905f5260205f2090600402015f909190919091505f820151815f015560208201518160010155604082015181600201556060820151816003015f6101000a81548173ffffffffffffffffffffffffffffffffffffffff021916908373ffffffffffffffffffffffffffffffffffffffff16021790555060808201518160030160146101000a81548160ff021916908360038111156109625761096161179c565b5b0217905550505060015f82600381111561097f5761097e61179c565b5b60038111156109915761099061179c565b5b81526020019081526020015f205f8154809291906109ae90611d35565b919050555060025f8154809291906109c590611d35565b9190505550837f7dca0dc353a38f083cbb220de1ff463490ce3bcb8923ed0cbda21b02cb1ae2fd83834333604051610a009493929190611d7c565b60405180910390a28092505050919050565b5f808267ffffffffffffffff811115610a2e57610a2d611cdb565b5b604051908082528060200260200182016040528015610a5c5781602001602082028036833780820191505090505b5090505f5b83811015610ad0575f813373ffffffffffffffffffffffffffffffffffffffff16610a8c9190611dbf565b9050610aa38287610a9d9190611dbf565b826110fb565b838381518110610ab657610ab5611d08565b5b602002602001018181525050508080600101915050610a61565b50600191505f5b83811015610b5c575f600182610aed9190611dbf565b90505b84811015610b4857828181518110610b0b57610b0a611d08565b5b6020026020010151838381518110610b2657610b25611d08565b5b602002602001015103610b3b575f9350610b48565b8080600101915050610af0565b508215610b5c578080600101915050610ad7565b505092915050565b5f5b81811015610d93575f600a82610b7c9190611df2565b6107d0610b899190611dbf565b90505f610ba38284611000610b9e9190611dbf565b6110fb565b90505f610baf82610d97565b90505f808481526020019081526020015f206040518060a0016040528084815260200143815260200142815260200186611000610bec9190611dbf565b73ffffffffffffffffffffffffffffffffffffffff168152602001836003811115610c1a57610c1961179c565b5b815250908060018154018082558091505060019003905f5260205f2090600402015f909190919091505f820151815f015560208201518160010155604082015181600201556060820151816003015f6101000a81548173ffffffffffffffffffffffffffffffffffffffff021916908373ffffffffffffffffffffffffffffffffffffffff16021790555060808201518160030160146101000a81548160ff02191690836003811115610cd057610ccf61179c565b5b0217905550505060015f826003811115610ced57610cec61179c565b5b6003811115610cff57610cfe61179c565b5b81526020019081526020015f205f815480929190610d1c90611d35565b919050555060025f815480929190610d3390611d35565b9190505550827f7dca0dc353a38f083cbb220de1ff463490ce3bcb8923ed0cbda21b02cb1ae2fd83834388611000610d6b9190611dbf565b604051610d7b9493929190611d7c565b60405180910390a25050508080600101915050610b66565b5050565b5f806064835f1c610da89190611df2565b90506028811015610dbc575f915050610de8565b6041811015610dcf576001915050610de8565b6050811015610de2576002915050610de8565b60039150505b919050565b5f5b81811015610fe9575f816103e8610e069190611dbf565b90505f610e1382336110fb565b90505f610e1f82610d97565b90505f808481526020019081526020015f206040518060a001604052808481526020014381526020014281526020013373ffffffffffffffffffffffffffffffffffffffff168152602001836003811115610e7d57610e7c61179c565b5b815250908060018154018082558091505060019003905f5260205f2090600402015f909190919091505f820151815f015560208201518160010155604082015181600201556060820151816003015f6101000a81548173ffffffffffffffffffffffffffffffffffffffff021916908373ffffffffffffffffffffffffffffffffffffffff16021790555060808201518160030160146101000a81548160ff02191690836003811115610f3357610f3261179c565b5b0217905550505060015f826003811115610f5057610f4f61179c565b5b6003811115610f6257610f6161179c565b5b81526020019081526020015f205f815480929190610f7f90611d35565b919050555060025f815480929190610f9690611d35565b9190505550827f7dca0dc353a38f083cbb220de1ff463490ce3bcb8923ed0cbda21b02cb1ae2fd83834333604051610fd19493929190611d7c565b60405180910390a25050508080600101915050610def565b5050565b5f60015f8060038111156110045761100361179c565b5b60038111156110165761101561179c565b5b81526020019081526020015f20819055505f60015f6001600381111561103f5761103e61179c565b5b60038111156110515761105061179c565b5b81526020019081526020015f20819055505f60015f6002600381111561107a5761107961179c565b5b600381111561108c5761108b61179c565b5b81526020019081526020015f20819055505f60015f6003808111156110b4576110b361179c565b5b60038111156110c6576110c561179c565b5b81526020019081526020015f20819055505f600281905550565b6001602052805f5260405f205f915090505481565b60025481565b5f6001436111099190611e22565b4042838544604051602001611122959493929190611eda565b60405160208183030381529060405280519060200120905092915050565b5f805f805f60015f80600381111561115b5761115a61179c565b5b600381111561116d5761116c61179c565b5b81526020019081526020015f205460015f600160038111156111925761119161179c565b5b60038111156111a4576111a361179c565b5b81526020019081526020015f205460015f600260038111156111c9576111c861179c565b5b60038111156111db576111da61179c565b5b81526020019081526020015f205460015f6003808111156111ff576111fe61179c565b5b60038111156112115761121061179c565b5b81526020019081526020015f2054600254945094509450945094509091929394565b5f805f805f8681526020019081526020015f2090505f8467ffffffffffffffff81111561126357611262611cdb565b5b6040519080825280602002602001820160405280156112915781602001602082028036833780820191505090505b5090505f858380549050106112a657856112ac565b82805490505b90505f5b818110156113205783818386805490506112ca9190611e22565b6112d49190611dbf565b815481106112e5576112e4611d08565b5b905f5260205f2090600402015f015483828151811061130757611306611d08565b5b60200260200101818152505080806001019150506112b0565b505f805b828110156113af575f600190505f5b8281101561138b5785818151811061134e5761134d611d08565b5b602002602001015186848151811061136957611368611d08565b5b60200260200101510361137e575f915061138b565b8080600101915050611333565b5080156113a157828061139d90611d35565b9350505b508080600101915050611324565b50808295509550505050509250929050565b5f805f805f434243406001436113d79190611e22565b4044945094509450945094509091929394565b5f602052815f5260405f208181548110611402575f80fd5b905f5260205f2090600402015f9150915050805f015490806001015490806002015490806003015f9054906101000a900473ffffffffffffffffffffffffffffffffffffffff16908060030160149054906101000a900460ff16905085565b5f819050919050565b61147381611461565b82525050565b5f60808201905061148c5f83018761146a565b611499602083018661146a565b6114a6604083018561146a565b6114b3606083018461146a565b95945050505050565b5f80fd5b6114c981611461565b81146114d3575f80fd5b50565b5f813590506114e4816114c0565b92915050565b5f602082840312156114ff576114fe6114bc565b5b5f61150c848285016114d6565b91505092915050565b5f81519050919050565b5f82825260208201905092915050565b5f819050602082019050919050565b5f819050919050565b6115508161153e565b82525050565b5f6115618383611547565b60208301905092915050565b5f602082019050919050565b5f61158382611515565b61158d818561151f565b93506115988361152f565b805f5b838110156115c85781516115af8882611556565b97506115ba8361156d565b92505060018101905061159b565b5085935050505092915050565b5f81519050919050565b5f82825260208201905092915050565b5f819050602082019050919050565b61160781611461565b82525050565b5f61161883836115fe565b60208301905092915050565b5f602082019050919050565b5f61163a826115d5565b61164481856115df565b935061164f836115ef565b805f5b8381101561167f578151611666888261160d565b975061167183611624565b925050600181019050611652565b5085935050505092915050565b5f81519050919050565b5f82825260208201905092915050565b5f819050602082019050919050565b5f73ffffffffffffffffffffffffffffffffffffffff82169050919050565b5f6116de826116b5565b9050919050565b6116ee816116d4565b82525050565b5f6116ff83836116e5565b60208301905092915050565b5f602082019050919050565b5f6117218261168c565b61172b8185611696565b9350611736836116a6565b805f5b8381101561176657815161174d88826116f4565b97506117588361170b565b925050600181019050611739565b5085935050505092915050565b5f81519050919050565b5f82825260208201905092915050565b5f819050602082019050919050565b7f4e487b71000000000000000000000000000000000000000000000000000000005f52602160045260245ffd5b600481106117da576117d961179c565b5b50565b5f8190506117ea826117c9565b919050565b5f6117f9826117dd565b9050919050565b611809816117ef565b82525050565b5f61181a8383611800565b60208301905092915050565b5f602082019050919050565b5f61183c82611773565b611846818561177d565b93506118518361178d565b805f5b83811015611881578151611868888261180f565b975061187383611826565b925050600181019050611854565b5085935050505092915050565b5f60a0820190508181035f8301526118a68188611579565b905081810360208301526118ba8187611630565b905081810360408301526118ce8186611630565b905081810360608301526118e28185611717565b905081810360808301526118f68184611832565b90509695505050505050565b61190b816117ef565b82525050565b5f6020820190506119245f830184611902565b92915050565b5f80604083850312156119405761193f6114bc565b5b5f61194d858286016114d6565b925050602061195e858286016114d6565b9150509250929050565b5f8115159050919050565b61197c81611968565b82525050565b5f6020820190506119955f830184611973565b92915050565b6119a48161153e565b81146119ae575f80fd5b50565b5f813590506119bf8161199b565b92915050565b5f602082840312156119da576119d96114bc565b5b5f6119e7848285016119b1565b91505092915050565b600481106119fc575f80fd5b50565b5f81359050611a0d816119f0565b92915050565b5f60208284031215611a2857611a276114bc565b5b5f611a35848285016119ff565b91505092915050565b5f602082019050611a515f83018461146a565b92915050565b611a60816116d4565b8114611a6a575f80fd5b50565b5f81359050611a7b81611a57565b92915050565b5f8060408385031215611a9757611a966114bc565b5b5f611aa4858286016114d6565b9250506020611ab585828601611a6d565b9150509250929050565b611ac88161153e565b82525050565b5f602082019050611ae15f830184611abf565b92915050565b5f60a082019050611afa5f83018861146a565b611b07602083018761146a565b611b14604083018661146a565b611b21606083018561146a565b611b2e608083018461146a565b9695505050505050565b5f604082019050611b4b5f83018561146a565b611b58602083018461146a565b9392505050565b5f60a082019050611b725f83018861146a565b611b7f602083018761146a565b611b8c6040830186611abf565b611b996060830185611abf565b611ba6608083018461146a565b9695505050505050565b611bb9816116d4565b82525050565b5f60a082019050611bd25f830188611abf565b611bdf602083018761146a565b611bec604083018661146a565b611bf96060830185611bb0565b611c066080830184611902565b9695505050505050565b7f4e487b71000000000000000000000000000000000000000000000000000000005f52601160045260245ffd5b5f611c4782611461565b9150611c5283611461565b9250828202611c6081611461565b91508282048414831517611c7757611c76611c10565b5b5092915050565b7f4e487b71000000000000000000000000000000000000000000000000000000005f52601260045260245ffd5b5f611cb582611461565b9150611cc083611461565b925082611cd057611ccf611c7e565b5b828204905092915050565b7f4e487b71000000000000000000000000000000000000000000000000000000005f52604160045260245ffd5b7f4e487b71000000000000000000000000000000000000000000000000000000005f52603260045260245ffd5b5f611d3f82611461565b91507fffffffffffffffffffffffffffffffffffffffffffffffffffffffffffffffff8203611d7157611d70611c10565b5b600182019050919050565b5f608082019050611d8f5f830187611abf565b611d9c6020830186611902565b611da9604083018561146a565b611db66060830184611bb0565b95945050505050565b5f611dc982611461565b9150611dd483611461565b9250828201905080821115611dec57611deb611c10565b5b92915050565b5f611dfc82611461565b9150611e0783611461565b925082611e1757611e16611c7e565b5b828206905092915050565b5f611e2c82611461565b9150611e3783611461565b9250828203905081811115611e4f57611e4e611c10565b5b92915050565b5f819050919050565b611e6f611e6a8261153e565b611e55565b82525050565b5f819050919050565b611e8f611e8a82611461565b611e75565b82525050565b5f8160601b9050919050565b5f611eab82611e95565b9050919050565b5f611ebc82611ea1565b9050919050565b611ed4611ecf826116d4565b611eb2565b82525050565b5f611ee58288611e5e565b602082019150611ef58287611e7e565b602082019150611f058286611ec3565b601482019150611f158285611e7e565b602082019150611f258284611e7e565b602082019150819050969550505050505056fea264697066735822122072c60645ad194cdda73874193ab4925b8f83c08ec9a510a889ff55f8d702921864736f6c63430008180033","linkReferences":{}},"methodIdentifiers":{"batchTestDifferentScenarios(uint256)":"449ba2ca","batchTestSameUser(uint256)":"64f8bf02","checkSeedUniqueness(uint256,uint256)":"c7d2f4be","generateWeatherForLand(uint256)":"3e3baaf7","generateWeatherSeed(uint256,address)":"9a7d78d9","getCurrentBlockInfo()":"c99cee2f","getLandTestHistory(uint256)":"349741f3","getWeatherDistribution()":"a79c2a1c","getWeatherPercentages()":"27557299","resetStats()":"724ec8a2","seedToWeather(bytes32)":"5338ad03","testResults(uint256,uint256)":"cffc800b","testSameBlockCalls(uint256,uint256)":"3fb9260f","totalTests()":"8aae2962","weatherCount(uint8)":"7777cfe3"},"id":38}