{"abi":[{"type":"constructor","inputs":[{"name":"_seedNFT","type":"address","internalType":"address"},{"name":"_kindToken","type":"address","internalType":"address"}],"stateMutability":"nonpayable"},{"type":"function","name":"buySeedWithKind","inputs":[{"name":"cropType","type":"uint8","internalType":"enum SeedNFT.CropType"}],"outputs":[],"stateMutability":"nonpayable"},{"type":"function","name":"buySeedWithNative","inputs":[{"name":"cropType","type":"uint8","internalType":"enum SeedNFT.CropType"}],"outputs":[],"stateMutability":"payable"},{"type":"function","name":"emergencyWithdrawKind","inputs":[],"outputs":[],"stateMutability":"nonpayable"},{"type":"function","name":"getAvailableSeedsForKind","inputs":[],"outputs":[{"name":"","type":"uint8[]","internalType":"enum SeedNFT.CropType[]"}],"stateMutability":"view"},{"type":"function","name":"getAvailableSeedsForNative","inputs":[],"outputs":[{"name":"","type":"uint8[]","internalType":"enum SeedNFT.CropType[]"}],"stateMutability":"view"},{"type":"function","name":"getSeedPrice","inputs":[{"name":"cropType","type":"uint8","internalType":"enum SeedNFT.CropType"}],"outputs":[{"name":"","type":"tuple","internalType":"struct Shop.SeedPrice","components":[{"name":"nativePrice","type":"uint256","internalType":"uint256"},{"name":"kindPrice","type":"uint256","internalType":"uint256"},{"name":"availableForNative","type":"bool","internalType":"bool"},{"name":"availableForKind","type":"bool","internalType":"bool"}]}],"stateMutability":"view"},{"type":"function","name":"getUserPurchaseCount","inputs":[{"name":"user","type":"address","internalType":"address"}],"outputs":[{"name":"","type":"uint256","internalType":"uint256"}],"stateMutability":"view"},{"type":"function","name":"kindToken","inputs":[],"outputs":[{"name":"","type":"address","internalType":"contract KindnessToken"}],"stateMutability":"view"},{"type":"function","name":"owner","inputs":[],"outputs":[{"name":"","type":"address","internalType":"address"}],"stateMutability":"view"},{"type":"function","name":"renounceOwnership","inputs":[],"outputs":[],"stateMutability":"nonpayable"},{"type":"function","name":"seedNFT","inputs":[],"outputs":[{"name":"","type":"address","internalType":"contract SeedNFT"}],"stateMutability":"view"},{"type":"function","name":"seedPrices","inputs":[{"name":"","type":"uint8","internalType":"enum SeedNFT.CropType"}],"outputs":[{"name":"nativePrice","type":"uint256","internalType":"uint256"},{"name":"kindPrice","type":"uint256","internalType":"uint256"},{"name":"availableForNative","type":"bool","internalType":"bool"},{"name":"availableForKind","type":"bool","internalType":"bool"}],"stateMutability":"view"},{"type":"function","name":"totalPurchases","inputs":[{"name":"","type":"address","internalType":"address"}],"outputs":[{"name":"","type":"uint256","internalType":"uint256"}],"stateMutability":"view"},{"type":"function","name":"transferOwnership","inputs":[{"name":"newOwner","type":"address","internalType":"address"}],"outputs":[],"stateMutability":"nonpayable"},{"type":"function","name":"updateSeedPrice","inputs":[{"name":"cropType","type":"uint8","internalType":"enum SeedNFT.CropType"},{"name":"nativePrice","type":"uint256","internalType":"uint256"},{"name":"kindPrice","type":"uint256","internalType":"uint256"},{"name":"availableForNative","type":"bool","internalType":"bool"},{"name":"availableForKind","type":"bool","internalType":"bool"}],"outputs":[],"stateMutability":"nonpayable"},{"type":"function","name":"withdrawNative","inputs":[],"outputs":[],"stateMutability":"nonpayable"},{"type":"event","name":"OwnershipTransferred","inputs":[{"name":"previousOwner","type":"address","indexed":true,"internalType":"address"},{"name":"newOwner","type":"address","indexed":true,"internalType":"address"}],"anonymous":false},{"type":"event","name":"PriceUpdated","inputs":[{"name":"cropType","type":"uint8","indexed":false,"internalType":"enum SeedNFT.CropType"},{"name":"nativePrice","type":"uint256","indexed":false,"internalType":"uint256"},{"name":"kindPrice","type":"uint256","indexed":false,"internalType":"uint256"}],"anonymous":false},{"type":"event","name":"SeedPurchased","inputs":[{"name":"buyer","type":"address","indexed":true,"internalType":"address"},{"name":"cropType","type":"uint8","indexed":false,"internalType":"enum SeedNFT.CropType"},{"name":"rarity","type":"uint8","indexed":false,"internalType":"enum SeedNFT.Rarity"},{"name":"tokenId","type":"uint256","indexed":false,"internalType":"uint256"},{"name":"paidWithKind","type":"bool","indexed":false,"internalType":"bool"},{"name":"price","type":"uint256","indexed":false,"internalType":"uint256"}],"anonymous":false},{"type":"error","name":"OwnableInvalidOwner","inputs":[{"name":"owner","type":"address","internalType":"address"}]},{"type":"error","name":"OwnableUnauthorizedAccount","inputs":[{"name":"account","type":"address","internalType":"address"}]},{"type":"error","name":"ReentrancyGuardReentrantCall","inputs":[]}],"bytecode":{"object":"0x60c060405234801562000010575f80fd5b50604051620028bf380380620028bf83398181016040528101906200003691906200071c565b335f73ffffffffffffffffffffffffffffffffffffffff168173ffffffffffffffffffffffffffffffffffffffff1603620000aa575f6040517f1e4fbdf7000000000000000000000000000000000000000000000000000000008152600401620000a1919062000772565b60405180910390fd5b620000bb81620005c460201b60201c565b506001620000de620000d26200068560201b60201c565b620006ae60201b60201c565b5f01819055508173ffffffffffffffffffffffffffffffffffffffff1660808173ffffffffffffffffffffffffffffffffffffffff16815250508073ffffffffffffffffffffffffffffffffffffffff1660a08173ffffffffffffffffffffffffffffffffffffffff1681525050604051806080016040528066038d7ea4c6800081526020015f81526020016001151581526020015f151581525060015f8060058111156200019257620001916200078d565b5b6005811115620001a757620001a66200078d565b5b81526020019081526020015f205f820151815f0155602082015181600101556040820151816002015f6101000a81548160ff02191690831515021790555060608201518160020160016101000a81548160ff02191690831515021790555090505060405180608001604052806605543df729c00081526020015f81526020016001151581526020015f151581525060015f600160058111156200024f576200024e6200078d565b5b60058111156200026457620002636200078d565b5b81526020019081526020015f205f820151815f0155602082015181600101556040820151816002015f6101000a81548160ff02191690831515021790555060608201518160020160016101000a81548160ff021916908315150217905550905050604051806080016040528066071afd498d000081526020015f81526020016001151581526020015f151581525060015f600260058111156200030c576200030b6200078d565b5b60058111156200032157620003206200078d565b5b81526020019081526020015f205f820151815f0155602082015181600101556040820151816002015f6101000a81548160ff02191690831515021790555060608201518160020160016101000a81548160ff02191690831515021790555090505060405180608001604052805f8152602001678ac7230489e8000081526020015f151581526020016001151581525060015f60036005811115620003ca57620003c96200078d565b5b6005811115620003df57620003de6200078d565b5b81526020019081526020015f205f820151815f0155602082015181600101556040820151816002015f6101000a81548160ff02191690831515021790555060608201518160020160016101000a81548160ff02191690831515021790555090505060405180608001604052805f815260200167d02ab486cedc000081526020015f151581526020016001151581525060015f600460058111156200048857620004876200078d565b5b60058111156200049d576200049c6200078d565b5b81526020019081526020015f205f820151815f0155602082015181600101556040820151816002015f6101000a81548160ff02191690831515021790555060608201518160020160016101000a81548160ff02191690831515021790555090505060405180608001604052805f81526020016801158e460913d0000081526020015f151581526020016001151581525060015f6005808111156200054657620005456200078d565b5b60058111156200055b576200055a6200078d565b5b81526020019081526020015f205f820151815f0155602082015181600101556040820151816002015f6101000a81548160ff02191690831515021790555060608201518160020160016101000a81548160ff0219169083151502179055509050505050620007ba565b5f805f9054906101000a900473ffffffffffffffffffffffffffffffffffffffff169050815f806101000a81548173ffffffffffffffffffffffffffffffffffffffff021916908373ffffffffffffffffffffffffffffffffffffffff1602179055508173ffffffffffffffffffffffffffffffffffffffff168173ffffffffffffffffffffffffffffffffffffffff167f8be0079c531659141344cd1fd0a4f28419497f9722a3daafe3b4186f6b6457e060405160405180910390a35050565b5f7f9b779b17422d0df92223018b32b4d1fa46e071723d6817e2486d003becc55f005f1b905090565b5f819050919050565b5f80fd5b5f73ffffffffffffffffffffffffffffffffffffffff82169050919050565b5f620006e682620006bb565b9050919050565b620006f881620006da565b811462000703575f80fd5b50565b5f815190506200071681620006ed565b92915050565b5f8060408385031215620007355762000734620006b7565b5b5f620007448582860162000706565b9250506020620007578582860162000706565b9150509250929050565b6200076c81620006da565b82525050565b5f602082019050620007875f83018462000761565b92915050565b7f4e487b71000000000000000000000000000000000000000000000000000000005f52602160045260245ffd5b60805160a0516120b9620008065f395f818161039c0152818161043e015281816106a20152818161077b0152610d7701525f818161081401528181610d9b015261115401526120b95ff3fe6080604052600436106100f2575f3560e01c806391b96b6311610089578063f0cab62311610058578063f0cab623146102f9578063f2fde38b14610323578063f3d1f97d1461034b578063f986344214610375576100f2565b806391b96b631461022f578063bf1497fb1461026b578063cc098bf614610293578063ea1c80ab146102cf576100f2565b806365467c79116100c557806365467c7914610189578063715018a6146101b35780637ad37869146101c95780638da5cb5b14610205576100f2565b806335762d27146100f657806350431ce41461010c5780635a19d08d14610122578063631beab314610161575b5f80fd5b348015610101575f80fd5b5061010a610391565b005b348015610117575f80fd5b506101206104e3565b005b34801561012d575f80fd5b50610148600480360381019061014391906116a0565b61057f565b60405161015894939291906116fd565b60405180910390f35b34801561016c575f80fd5b50610187600480360381019061018291906116a0565b6105c4565b005b348015610194575f80fd5b5061019d61096c565b6040516101aa919061185b565b60405180910390f35b3480156101be575f80fd5b506101c7610b51565b005b3480156101d4575f80fd5b506101ef60048036038101906101ea91906118d5565b610b64565b6040516101fc9190611900565b60405180910390f35b348015610210575f80fd5b50610219610b79565b6040516102269190611928565b60405180910390f35b34801561023a575f80fd5b50610255600480360381019061025091906118d5565b610ba0565b6040516102629190611900565b60405180910390f35b348015610276575f80fd5b50610291600480360381019061028c9190611995565b610be6565b005b34801561029e575f80fd5b506102b960048036038101906102b491906116a0565b610cde565b6040516102c69190611a7d565b60405180910390f35b3480156102da575f80fd5b506102e3610d75565b6040516102f09190611af1565b60405180910390f35b348015610304575f80fd5b5061030d610d99565b60405161031a9190611b2a565b60405180910390f35b34801561032e575f80fd5b50610349600480360381019061034491906118d5565b610dbd565b005b348015610356575f80fd5b5061035f610e41565b60405161036c919061185b565b60405180910390f35b61038f600480360381019061038a91906116a0565b611028565b005b610399611308565b5f7f000000000000000000000000000000000000000000000000000000000000000073ffffffffffffffffffffffffffffffffffffffff166370a08231306040518263ffffffff1660e01b81526004016103f39190611928565b602060405180830381865afa15801561040e573d5f803e3d5ffd5b505050506040513d601f19601f820116820180604052508101906104329190611b57565b90505f8111156104e0577f000000000000000000000000000000000000000000000000000000000000000073ffffffffffffffffffffffffffffffffffffffff1663a9059cbb610480610b79565b836040518363ffffffff1660e01b815260040161049e929190611b82565b6020604051808303815f875af11580156104ba573d5f803e3d5ffd5b505050506040513d601f19601f820116820180604052508101906104de9190611bbd565b505b50565b6104eb611308565b5f4790505f8111610531576040517f08c379a000000000000000000000000000000000000000000000000000000000815260040161052890611c68565b60405180910390fd5b610539610b79565b73ffffffffffffffffffffffffffffffffffffffff166108fc8290811502906040515f60405180830381858888f1935050505015801561057b573d5f803e3d5ffd5b5050565b6001602052805f5260405f205f91509050805f015490806001015490806002015f9054906101000a900460ff16908060020160019054906101000a900460ff16905084565b6105cc61138f565b5f60015f8360058111156105e3576105e2611769565b5b60058111156105f5576105f4611769565b5b81526020019081526020015f206040518060800160405290815f820154815260200160018201548152602001600282015f9054906101000a900460ff161515151581526020016002820160019054906101000a900460ff1615151515815250509050806060015161069b576040517f08c379a000000000000000000000000000000000000000000000000000000000815260040161069290611cf6565b60405180910390fd5b80602001517f000000000000000000000000000000000000000000000000000000000000000073ffffffffffffffffffffffffffffffffffffffff166370a08231336040518263ffffffff1660e01b81526004016106f99190611928565b602060405180830381865afa158015610714573d5f803e3d5ffd5b505050506040513d601f19601f820116820180604052508101906107389190611b57565b1015610779576040517f08c379a000000000000000000000000000000000000000000000000000000000815260040161077090611d5e565b60405180910390fd5b7f000000000000000000000000000000000000000000000000000000000000000073ffffffffffffffffffffffffffffffffffffffff16639dc29fac3383602001516040518363ffffffff1660e01b81526004016107d8929190611b82565b5f604051808303815f87803b1580156107ef575f80fd5b505af1158015610801573d5f803e3d5ffd5b505050505f61080f836113b1565b90505f7f000000000000000000000000000000000000000000000000000000000000000073ffffffffffffffffffffffffffffffffffffffff16635f7560b63386856040518463ffffffff1660e01b815260040161086f93929190611dd1565b6020604051808303815f875af115801561088b573d5f803e3d5ffd5b505050506040513d601f19601f820116820180604052508101906108af9190611b57565b905060025f3373ffffffffffffffffffffffffffffffffffffffff1673ffffffffffffffffffffffffffffffffffffffff1681526020019081526020015f205f8154809291906108fe90611e33565b91905055503373ffffffffffffffffffffffffffffffffffffffff167f3a4f013c675bbd84524435300ab461e8c4bba384e53af67f16c4b1ee061bc10f85848460018860200151604051610956959493929190611e7a565b60405180910390a25050506109696114e0565b50565b60605f805b60058081111561098457610983611769565b5b8111610a085760015f8260058111156109a05761099f611769565b5b60058111156109b2576109b1611769565b5b60058111156109c4576109c3611769565b5b81526020019081526020015f206002015f9054906101000a900460ff16156109f55781806109f190611e33565b9250505b8080610a0090611e33565b915050610971565b505f8167ffffffffffffffff811115610a2457610a23611ecb565b5b604051908082528060200260200182016040528015610a525781602001602082028036833780820191505090505b5090505f805b600580811115610a6b57610a6a611769565b5b8111610b475760015f826005811115610a8757610a86611769565b5b6005811115610a9957610a98611769565b5b6005811115610aab57610aaa611769565b5b81526020019081526020015f206002015f9054906101000a900460ff1615610b3457806005811115610ae057610adf611769565b5b838381518110610af357610af2611ef8565b5b60200260200101906005811115610b0d57610b0c611769565b5b90816005811115610b2157610b20611769565b5b815250508180610b3090611e33565b9250505b8080610b3f90611e33565b915050610a58565b5081935050505090565b610b59611308565b610b625f6114fa565b565b6002602052805f5260405f205f915090505481565b5f805f9054906101000a900473ffffffffffffffffffffffffffffffffffffffff16905090565b5f60025f8373ffffffffffffffffffffffffffffffffffffffff1673ffffffffffffffffffffffffffffffffffffffff1681526020019081526020015f20549050919050565b610bee611308565b6040518060800160405280858152602001848152602001831515815260200182151581525060015f876005811115610c2957610c28611769565b5b6005811115610c3b57610c3a611769565b5b81526020019081526020015f205f820151815f0155602082015181600101556040820151816002015f6101000a81548160ff02191690831515021790555060608201518160020160016101000a81548160ff0219169083151502179055509050507f0632454824820b4b1fd6f29fdc288d3b437e7ae937523b584eed6967b39e7595858585604051610ccf93929190611f25565b60405180910390a15050505050565b610ce6611651565b60015f836005811115610cfc57610cfb611769565b5b6005811115610d0e57610d0d611769565b5b81526020019081526020015f206040518060800160405290815f820154815260200160018201548152602001600282015f9054906101000a900460ff161515151581526020016002820160019054906101000a900460ff1615151515815250509050919050565b7f000000000000000000000000000000000000000000000000000000000000000081565b7f000000000000000000000000000000000000000000000000000000000000000081565b610dc5611308565b5f73ffffffffffffffffffffffffffffffffffffffff168173ffffffffffffffffffffffffffffffffffffffff1603610e35575f6040517f1e4fbdf7000000000000000000000000000000000000000000000000000000008152600401610e2c9190611928565b60405180910390fd5b610e3e816114fa565b50565b60605f805b600580811115610e5957610e58611769565b5b8111610ede5760015f826005811115610e7557610e74611769565b5b6005811115610e8757610e86611769565b5b6005811115610e9957610e98611769565b5b81526020019081526020015f2060020160019054906101000a900460ff1615610ecb578180610ec790611e33565b9250505b8080610ed690611e33565b915050610e46565b505f8167ffffffffffffffff811115610efa57610ef9611ecb565b5b604051908082528060200260200182016040528015610f285781602001602082028036833780820191505090505b5090505f805b600580811115610f4157610f40611769565b5b811161101e5760015f826005811115610f5d57610f5c611769565b5b6005811115610f6f57610f6e611769565b5b6005811115610f8157610f80611769565b5b81526020019081526020015f2060020160019054906101000a900460ff161561100b57806005811115610fb757610fb6611769565b5b838381518110610fca57610fc9611ef8565b5b60200260200101906005811115610fe457610fe3611769565b5b90816005811115610ff857610ff7611769565b5b81525050818061100790611e33565b9250505b808061101690611e33565b915050610f2e565b5081935050505090565b61103061138f565b5f60015f83600581111561104757611046611769565b5b600581111561105957611058611769565b5b81526020019081526020015f206040518060800160405290815f820154815260200160018201548152602001600282015f9054906101000a900460ff161515151581526020016002820160019054906101000a900460ff161515151581525050905080604001516110ff576040517f08c379a00000000000000000000000000000000000000000000000000000000081526004016110f690611fca565b60405180910390fd5b805f0151341015611145576040517f08c379a000000000000000000000000000000000000000000000000000000000815260040161113c90612032565b60405180910390fd5b5f61114f836113b1565b90505f7f000000000000000000000000000000000000000000000000000000000000000073ffffffffffffffffffffffffffffffffffffffff16635f7560b63386856040518463ffffffff1660e01b81526004016111af93929190611dd1565b6020604051808303815f875af11580156111cb573d5f803e3d5ffd5b505050506040513d601f19601f820116820180604052508101906111ef9190611b57565b905060025f3373ffffffffffffffffffffffffffffffffffffffff1673ffffffffffffffffffffffffffffffffffffffff1681526020019081526020015f205f81548092919061123e90611e33565b91905055503373ffffffffffffffffffffffffffffffffffffffff167f3a4f013c675bbd84524435300ab461e8c4bba384e53af67f16c4b1ee061bc10f8584845f885f0151604051611294959493929190611e7a565b60405180910390a2825f01513411156112fa573373ffffffffffffffffffffffffffffffffffffffff166108fc845f0151346112d09190612050565b90811502906040515f60405180830381858888f193505050501580156112f8573d5f803e3d5ffd5b505b5050506113056114e0565b50565b6113106115bb565b73ffffffffffffffffffffffffffffffffffffffff1661132e610b79565b73ffffffffffffffffffffffffffffffffffffffff161461138d576113516115bb565b6040517f118cdaa70000000000000000000000000000000000000000000000000000000081526004016113849190611928565b60405180910390fd5b565b6113976115c2565b60026113a96113a4611603565b61162c565b5f0181905550565b5f8060058111156113c5576113c4611769565b5b8260058111156113d8576113d7611769565b5b14806114085750600160058111156113f3576113f2611769565b5b82600581111561140657611405611769565b5b145b8061143757506002600581111561142257611421611769565b5b82600581111561143557611434611769565b5b145b15611444575f90506114db565b6003600581111561145857611457611769565b5b82600581111561146b5761146a611769565b5b148061149b57506004600581111561148657611485611769565b5b82600581111561149957611498611769565b5b145b806114c957506005808111156114b4576114b3611769565b5b8260058111156114c7576114c6611769565b5b145b156114d757600190506114db565b5f90505b919050565b60016114f26114ed611603565b61162c565b5f0181905550565b5f805f9054906101000a900473ffffffffffffffffffffffffffffffffffffffff169050815f806101000a81548173ffffffffffffffffffffffffffffffffffffffff021916908373ffffffffffffffffffffffffffffffffffffffff1602179055508173ffffffffffffffffffffffffffffffffffffffff168173ffffffffffffffffffffffffffffffffffffffff167f8be0079c531659141344cd1fd0a4f28419497f9722a3daafe3b4186f6b6457e060405160405180910390a35050565b5f33905090565b6115ca611635565b15611601576040517f3ee5aeb500000000000000000000000000000000000000000000000000000000815260040160405180910390fd5b565b5f7f9b779b17422d0df92223018b32b4d1fa46e071723d6817e2486d003becc55f005f1b905090565b5f819050919050565b5f6002611648611643611603565b61162c565b5f015414905090565b60405180608001604052805f81526020015f81526020015f151581526020015f151581525090565b5f80fd5b60068110611689575f80fd5b50565b5f8135905061169a8161167d565b92915050565b5f602082840312156116b5576116b4611679565b5b5f6116c28482850161168c565b91505092915050565b5f819050919050565b6116dd816116cb565b82525050565b5f8115159050919050565b6116f7816116e3565b82525050565b5f6080820190506117105f8301876116d4565b61171d60208301866116d4565b61172a60408301856116ee565b61173760608301846116ee565b95945050505050565b5f81519050919050565b5f82825260208201905092915050565b5f819050602082019050919050565b7f4e487b71000000000000000000000000000000000000000000000000000000005f52602160045260245ffd5b600681106117a7576117a6611769565b5b50565b5f8190506117b782611796565b919050565b5f6117c6826117aa565b9050919050565b6117d6816117bc565b82525050565b5f6117e783836117cd565b60208301905092915050565b5f602082019050919050565b5f61180982611740565b611813818561174a565b935061181e8361175a565b805f5b8381101561184e57815161183588826117dc565b9750611840836117f3565b925050600181019050611821565b5085935050505092915050565b5f6020820190508181035f83015261187381846117ff565b905092915050565b5f73ffffffffffffffffffffffffffffffffffffffff82169050919050565b5f6118a48261187b565b9050919050565b6118b48161189a565b81146118be575f80fd5b50565b5f813590506118cf816118ab565b92915050565b5f602082840312156118ea576118e9611679565b5b5f6118f7848285016118c1565b91505092915050565b5f6020820190506119135f8301846116d4565b92915050565b6119228161189a565b82525050565b5f60208201905061193b5f830184611919565b92915050565b61194a816116cb565b8114611954575f80fd5b50565b5f8135905061196581611941565b92915050565b611974816116e3565b811461197e575f80fd5b50565b5f8135905061198f8161196b565b92915050565b5f805f805f60a086880312156119ae576119ad611679565b5b5f6119bb8882890161168c565b95505060206119cc88828901611957565b94505060406119dd88828901611957565b93505060606119ee88828901611981565b92505060806119ff88828901611981565b9150509295509295909350565b611a15816116cb565b82525050565b611a24816116e3565b82525050565b608082015f820151611a3e5f850182611a0c565b506020820151611a516020850182611a0c565b506040820151611a646040850182611a1b565b506060820151611a776060850182611a1b565b50505050565b5f608082019050611a905f830184611a2a565b92915050565b5f819050919050565b5f611ab9611ab4611aaf8461187b565b611a96565b61187b565b9050919050565b5f611aca82611a9f565b9050919050565b5f611adb82611ac0565b9050919050565b611aeb81611ad1565b82525050565b5f602082019050611b045f830184611ae2565b92915050565b5f611b1482611ac0565b9050919050565b611b2481611b0a565b82525050565b5f602082019050611b3d5f830184611b1b565b92915050565b5f81519050611b5181611941565b92915050565b5f60208284031215611b6c57611b6b611679565b5b5f611b7984828501611b43565b91505092915050565b5f604082019050611b955f830185611919565b611ba260208301846116d4565b9392505050565b5f81519050611bb78161196b565b92915050565b5f60208284031215611bd257611bd1611679565b5b5f611bdf84828501611ba9565b91505092915050565b5f82825260208201905092915050565b7f53686f703a204e6f206e617469766520746f6b656e7320746f207769746864725f8201527f6177000000000000000000000000000000000000000000000000000000000000602082015250565b5f611c52602283611be8565b9150611c5d82611bf8565b604082019050919050565b5f6020820190508181035f830152611c7f81611c46565b9050919050565b7f53686f703a2053656564206e6f7420617661696c61626c6520666f72204b494e5f8201527f4420746f6b656e00000000000000000000000000000000000000000000000000602082015250565b5f611ce0602783611be8565b9150611ceb82611c86565b604082019050919050565b5f6020820190508181035f830152611d0d81611cd4565b9050919050565b7f53686f703a20496e73756666696369656e74204b494e442062616c616e6365005f82015250565b5f611d48601f83611be8565b9150611d5382611d14565b602082019050919050565b5f6020820190508181035f830152611d7581611d3c565b9050919050565b611d85816117bc565b82525050565b60038110611d9c57611d9b611769565b5b50565b5f819050611dac82611d8b565b919050565b5f611dbb82611d9f565b9050919050565b611dcb81611db1565b82525050565b5f606082019050611de45f830186611919565b611df16020830185611d7c565b611dfe6040830184611dc2565b949350505050565b7f4e487b71000000000000000000000000000000000000000000000000000000005f52601160045260245ffd5b5f611e3d826116cb565b91507fffffffffffffffffffffffffffffffffffffffffffffffffffffffffffffffff8203611e6f57611e6e611e06565b5b600182019050919050565b5f60a082019050611e8d5f830188611d7c565b611e9a6020830187611dc2565b611ea760408301866116d4565b611eb460608301856116ee565b611ec160808301846116d4565b9695505050505050565b7f4e487b71000000000000000000000000000000000000000000000000000000005f52604160045260245ffd5b7f4e487b71000000000000000000000000000000000000000000000000000000005f52603260045260245ffd5b5f606082019050611f385f830186611d7c565b611f4560208301856116d4565b611f5260408301846116d4565b949350505050565b7f53686f703a2053656564206e6f7420617661696c61626c6520666f72206e61745f8201527f69766520746f6b656e0000000000000000000000000000000000000000000000602082015250565b5f611fb4602983611be8565b9150611fbf82611f5a565b604082019050919050565b5f6020820190508181035f830152611fe181611fa8565b9050919050565b7f53686f703a20496e73756666696369656e74207061796d656e740000000000005f82015250565b5f61201c601a83611be8565b915061202782611fe8565b602082019050919050565b5f6020820190508181035f83015261204981612010565b9050919050565b5f61205a826116cb565b9150612065836116cb565b925082820390508181111561207d5761207c611e06565b5b9291505056fea26469706673582212204aaa84c058f17b5974516ca5aaf4f969e1d41d9256ee6f8b90071614cf7b5c7e64736f6c63430008180033","linkReferences":{}},"methodIdentifiers":{"buySeedWithKind(uint8)":"631beab3","buySeedWithNative(uint8)":"f9863442","emergencyWithdrawKind()":"35762d27","getAvailableSeedsForKind()":"f3d1f97d","getAvailableSeedsForNative()":"65467c79","getSeedPrice(uint8)":"cc098bf6","getUserPurchaseCount(address)":"91b96b63","kindToken()":"ea1c80ab","owner()":"8da5cb5b","renounceOwnership()":"715018a6","seedNFT()":"f0cab623","seedPrices(uint8)":"5a19d08d","totalPurchases(address)":"7ad37869","transferOwnership(address)":"f2fde38b","updateSeedPrice(uint8,uint256,uint256,bool,bool)":"bf1497fb","withdrawNative()":"50431ce4"},"id":44}