{"abi":[{"type":"constructor","inputs":[],"stateMutability":"nonpayable"},{"type":"function","name":"DAILY_HELP_LIMIT","inputs":[],"outputs":[{"name":"","type":"uint256","internalType":"uint256"}],"stateMutability":"view"},{"type":"function","name":"HELP_REWARD","inputs":[],"outputs":[{"name":"","type":"uint256","internalType":"uint256"}],"stateMutability":"view"},{"type":"function","name":"allowance","inputs":[{"name":"owner","type":"address","internalType":"address"},{"name":"spender","type":"address","internalType":"address"}],"outputs":[{"name":"","type":"uint256","internalType":"uint256"}],"stateMutability":"view"},{"type":"function","name":"approve","inputs":[{"name":"spender","type":"address","internalType":"address"},{"name":"value","type":"uint256","internalType":"uint256"}],"outputs":[{"name":"","type":"bool","internalType":"bool"}],"stateMutability":"nonpayable"},{"type":"function","name":"balanceOf","inputs":[{"name":"account","type":"address","internalType":"address"}],"outputs":[{"name":"","type":"uint256","internalType":"uint256"}],"stateMutability":"view"},{"type":"function","name":"burn","inputs":[{"name":"from","type":"address","internalType":"address"},{"name":"amount","type":"uint256","internalType":"uint256"}],"outputs":[],"stateMutability":"nonpayable"},{"type":"function","name":"dailyHelpCount","inputs":[{"name":"","type":"address","internalType":"address"},{"name":"","type":"uint256","internalType":"uint256"}],"outputs":[{"name":"","type":"uint256","internalType":"uint256"}],"stateMutability":"view"},{"type":"function","name":"decimals","inputs":[],"outputs":[{"name":"","type":"uint8","internalType":"uint8"}],"stateMutability":"view"},{"type":"function","name":"getCurrentDay","inputs":[],"outputs":[{"name":"","type":"uint256","internalType":"uint256"}],"stateMutability":"view"},{"type":"function","name":"getDailyHelpCount","inputs":[{"name":"helper","type":"address","internalType":"address"},{"name":"day","type":"uint256","internalType":"uint256"}],"outputs":[{"name":"","type":"uint256","internalType":"uint256"}],"stateMutability":"view"},{"type":"function","name":"getRemainingDailyHelps","inputs":[{"name":"helper","type":"address","internalType":"address"}],"outputs":[{"name":"","type":"uint256","internalType":"uint256"}],"stateMutability":"view"},{"type":"function","name":"lastHelpDay","inputs":[{"name":"","type":"address","internalType":"address"}],"outputs":[{"name":"","type":"uint256","internalType":"uint256"}],"stateMutability":"view"},{"type":"function","name":"mint","inputs":[{"name":"to","type":"address","internalType":"address"},{"name":"amount","type":"uint256","internalType":"uint256"}],"outputs":[],"stateMutability":"nonpayable"},{"type":"function","name":"name","inputs":[],"outputs":[{"name":"","type":"string","internalType":"string"}],"stateMutability":"view"},{"type":"function","name":"owner","inputs":[],"outputs":[{"name":"","type":"address","internalType":"address"}],"stateMutability":"view"},{"type":"function","name":"renounceOwnership","inputs":[],"outputs":[],"stateMutability":"nonpayable"},{"type":"function","name":"rewardKindness","inputs":[{"name":"helper","type":"address","internalType":"address"},{"name":"helped","type":"address","internalType":"address"}],"outputs":[],"stateMutability":"nonpayable"},{"type":"function","name":"symbol","inputs":[],"outputs":[{"name":"","type":"string","internalType":"string"}],"stateMutability":"view"},{"type":"function","name":"totalSupply","inputs":[],"outputs":[{"name":"","type":"uint256","internalType":"uint256"}],"stateMutability":"view"},{"type":"function","name":"transfer","inputs":[{"name":"to","type":"address","internalType":"address"},{"name":"value","type":"uint256","internalType":"uint256"}],"outputs":[{"name":"","type":"bool","internalType":"bool"}],"stateMutability":"nonpayable"},{"type":"function","name":"transferFrom","inputs":[{"name":"from","type":"address","internalType":"address"},{"name":"to","type":"address","internalType":"address"},{"name":"value","type":"uint256","internalType":"uint256"}],"outputs":[{"name":"","type":"bool","internalType":"bool"}],"stateMutability":"nonpayable"},{"type":"function","name":"transferOwnership","inputs":[{"name":"newOwner","type":"address","internalType":"address"}],"outputs":[],"stateMutability":"nonpayable"},{"type":"event","name":"Approval","inputs":[{"name":"owner","type":"address","indexed":true,"internalType":"address"},{"name":"spender","type":"address","indexed":true,"internalType":"address"},{"name":"value","type":"uint256","indexed":false,"internalType":"uint256"}],"anonymous":false},{"type":"event","name":"DailyLimitReached","inputs":[{"name":"helper","type":"address","indexed":true,"internalType":"address"},{"name":"day","type":"uint256","indexed":false,"internalType":"uint256"}],"anonymous":false},{"type":"event","name":"KindnessRewarded","inputs":[{"name":"helper","type":"address","indexed":true,"internalType":"address"},{"name":"helped","type":"address","indexed":true,"internalType":"address"},{"name":"amount","type":"uint256","indexed":false,"internalType":"uint256"}],"anonymous":false},{"type":"event","name":"OwnershipTransferred","inputs":[{"name":"previousOwner","type":"address","indexed":true,"internalType":"address"},{"name":"newOwner","type":"address","indexed":true,"internalType":"address"}],"anonymous":false},{"type":"event","name":"Transfer","inputs":[{"name":"from","type":"address","indexed":true,"internalType":"address"},{"name":"to","type":"address","indexed":true,"internalType":"address"},{"name":"value","type":"uint256","indexed":false,"internalType":"uint256"}],"anonymous":false},{"type":"error","name":"ERC20InsufficientAllowance","inputs":[{"name":"spender","type":"address","internalType":"address"},{"name":"allowance","type":"uint256","internalType":"uint256"},{"name":"needed","type":"uint256","internalType":"uint256"}]},{"type":"error","name":"ERC20InsufficientBalance","inputs":[{"name":"sender","type":"address","internalType":"address"},{"name":"balance","type":"uint256","internalType":"uint256"},{"name":"needed","type":"uint256","internalType":"uint256"}]},{"type":"error","name":"ERC20InvalidApprover","inputs":[{"name":"approver","type":"address","internalType":"address"}]},{"type":"error","name":"ERC20InvalidReceiver","inputs":[{"name":"receiver","type":"address","internalType":"address"}]},{"type":"error","name":"ERC20InvalidSender","inputs":[{"name":"sender","type":"address","internalType":"address"}]},{"type":"error","name":"ERC20InvalidSpender","inputs":[{"name":"spender","type":"address","internalType":"address"}]},{"type":"error","name":"OwnableInvalidOwner","inputs":[{"name":"owner","type":"address","internalType":"address"}]},{"type":"error","name":"OwnableUnauthorizedAccount","inputs":[{"name":"account","type":"address","internalType":"address"}]}],"bytecode":{"object":"0x608060405234801562000010575f80fd5b50336040518060400160405280600e81526020017f4b696e646e65737320546f6b656e0000000000000000000000000000000000008152506040518060400160405280600481526020017f4b494e440000000000000000000000000000000000000000000000000000000081525081600390816200008f919062000456565b508060049081620000a1919062000456565b5050505f73ffffffffffffffffffffffffffffffffffffffff168173ffffffffffffffffffffffffffffffffffffffff160362000117575f6040517f1e4fbdf70000000000000000000000000000000000000000000000000000000081526004016200010e91906200057d565b60405180910390fd5b62000128816200012f60201b60201c565b5062000598565b5f60055f9054906101000a900473ffffffffffffffffffffffffffffffffffffffff1690508160055f6101000a81548173ffffffffffffffffffffffffffffffffffffffff021916908373ffffffffffffffffffffffffffffffffffffffff1602179055508173ffffffffffffffffffffffffffffffffffffffff168173ffffffffffffffffffffffffffffffffffffffff167f8be0079c531659141344cd1fd0a4f28419497f9722a3daafe3b4186f6b6457e060405160405180910390a35050565b5f81519050919050565b7f4e487b71000000000000000000000000000000000000000000000000000000005f52604160045260245ffd5b7f4e487b71000000000000000000000000000000000000000000000000000000005f52602260045260245ffd5b5f60028204905060018216806200026e57607f821691505b60208210810362000284576200028362000229565b5b50919050565b5f819050815f5260205f209050919050565b5f6020601f8301049050919050565b5f82821b905092915050565b5f60088302620002e87fffffffffffffffffffffffffffffffffffffffffffffffffffffffffffffffff82620002ab565b620002f48683620002ab565b95508019841693508086168417925050509392505050565b5f819050919050565b5f819050919050565b5f6200033e6200033862000332846200030c565b62000315565b6200030c565b9050919050565b5f819050919050565b62000359836200031e565b62000371620003688262000345565b848454620002b7565b825550505050565b5f90565b6200038762000379565b620003948184846200034e565b505050565b5b81811015620003bb57620003af5f826200037d565b6001810190506200039a565b5050565b601f8211156200040a57620003d4816200028a565b620003df846200029c565b81016020851015620003ef578190505b62000407620003fe856200029c565b83018262000399565b50505b505050565b5f82821c905092915050565b5f6200042c5f19846008026200040f565b1980831691505092915050565b5f6200044683836200041b565b9150826002028217905092915050565b6200046182620001f2565b67ffffffffffffffff8111156200047d576200047c620001fc565b5b62000489825462000256565b62000496828285620003bf565b5f60209050601f831160018114620004cc575f8415620004b7578287015190505b620004c3858262000439565b86555062000532565b601f198416620004dc866200028a565b5f5b828110156200050557848901518255600182019150602085019450602081019050620004de565b8683101562000525578489015162000521601f8916826200041b565b8355505b6001600288020188555050505b505050505050565b5f73ffffffffffffffffffffffffffffffffffffffff82169050919050565b5f62000565826200053a565b9050919050565b620005778162000559565b82525050565b5f602082019050620005925f8301846200056c565b92915050565b611a3980620005a65f395ff3fe608060405234801561000f575f80fd5b5060043610610140575f3560e01c806361179b4c116100b65780639dc29fac1161007a5780639dc29fac14610378578063a9059cbb14610394578063b58c5f22146103c4578063dd62ed3e146103e2578063e78baf6114610412578063f2fde38b1461044257610140565b806361179b4c146102d257806370a0823114610302578063715018a6146103325780638da5cb5b1461033c57806395d89b411461035a57610140565b806323b872dd1161010857806323b872dd146101fe578063266d161a1461022e5780632cbcd78e1461024a578063313ce5671461027a5780633e6968b61461029857806340c10f19146102b657610140565b806306fdde0314610144578063095ea7b3146101625780631309d0551461019257806318160ddd146101c2578063208a4c3d146101e0575b5f80fd5b61014c61045e565b604051610159919061150b565b60405180910390f35b61017c600480360381019061017791906115bc565b6104ee565b6040516101899190611614565b60405180910390f35b6101ac60048036038101906101a7919061162d565b610510565b6040516101b99190611667565b60405180910390f35b6101ca610525565b6040516101d79190611667565b60405180910390f35b6101e861052e565b6040516101f59190611667565b60405180910390f35b61021860048036038101906102139190611680565b61053a565b6040516102259190611614565b60405180910390f35b610248600480360381019061024391906116d0565b610568565b005b610264600480360381019061025f91906115bc565b6108e0565b6040516102719190611667565b60405180910390f35b610282610936565b60405161028f9190611729565b60405180910390f35b6102a061093e565b6040516102ad9190611667565b60405180910390f35b6102d060048036038101906102cb91906115bc565b610953565b005b6102ec60048036038101906102e7919061162d565b610969565b6040516102f99190611667565b60405180910390f35b61031c6004803603810190610317919061162d565b610a42565b6040516103299190611667565b60405180910390f35b61033a610a87565b005b610344610a9a565b6040516103519190611751565b60405180910390f35b610362610ac2565b60405161036f919061150b565b60405180910390f35b610392600480360381019061038d91906115bc565b610b52565b005b6103ae60048036038101906103a991906115bc565b610b68565b6040516103bb9190611614565b60405180910390f35b6103cc610b8a565b6040516103d99190611667565b60405180910390f35b6103fc60048036038101906103f791906116d0565b610b8f565b6040516104099190611667565b60405180910390f35b61042c600480360381019061042791906115bc565b610c11565b6040516104399190611667565b60405180910390f35b61045c6004803603810190610457919061162d565b610c31565b005b60606003805461046d90611797565b80601f016020809104026020016040519081016040528092919081815260200182805461049990611797565b80156104e45780601f106104bb576101008083540402835291602001916104e4565b820191905f5260205f20905b8154815290600101906020018083116104c757829003601f168201915b5050505050905090565b5f806104f8610cb5565b9050610505818585610cbc565b600191505092915050565b6007602052805f5260405f205f915090505481565b5f600254905090565b670de0b6b3a764000081565b5f80610544610cb5565b9050610551858285610cce565b61055c858585610d61565b60019150509392505050565b610570610e51565b8073ffffffffffffffffffffffffffffffffffffffff168273ffffffffffffffffffffffffffffffffffffffff16036105de576040517f08c379a00000000000000000000000000000000000000000000000000000000081526004016105d590611811565b60405180910390fd5b5f62015180426105ee9190611889565b90508060075f8573ffffffffffffffffffffffffffffffffffffffff1673ffffffffffffffffffffffffffffffffffffffff1681526020019081526020015f205410156106c9575f60065f8573ffffffffffffffffffffffffffffffffffffffff1673ffffffffffffffffffffffffffffffffffffffff1681526020019081526020015f205f8381526020019081526020015f20819055508060075f8573ffffffffffffffffffffffffffffffffffffffff1673ffffffffffffffffffffffffffffffffffffffff1681526020019081526020015f20819055505b600f60065f8573ffffffffffffffffffffffffffffffffffffffff1673ffffffffffffffffffffffffffffffffffffffff1681526020019081526020015f205f8381526020019081526020015f205410610758576040517f08c379a000000000000000000000000000000000000000000000000000000000815260040161074f90611903565b60405180910390fd5b60065f8473ffffffffffffffffffffffffffffffffffffffff1673ffffffffffffffffffffffffffffffffffffffff1681526020019081526020015f205f8281526020019081526020015f205f8154809291906107b490611921565b91905055506107cb83670de0b6b3a7640000610ed8565b8173ffffffffffffffffffffffffffffffffffffffff168373ffffffffffffffffffffffffffffffffffffffff167f72f57b3280939639a9d802105f3c55e3d43b5998d8ede84ae14ffdae8aa57db2670de0b6b3a76400006040516108309190611667565b60405180910390a3600f60065f8573ffffffffffffffffffffffffffffffffffffffff1673ffffffffffffffffffffffffffffffffffffffff1681526020019081526020015f205f8381526020019081526020015f2054036108db578273ffffffffffffffffffffffffffffffffffffffff167f6432208db115f9d57d80b1166fd8969b3b0804bf53ea87d11957517a369e1f9e826040516108d29190611667565b60405180910390a25b505050565b5f60065f8473ffffffffffffffffffffffffffffffffffffffff1673ffffffffffffffffffffffffffffffffffffffff1681526020019081526020015f205f8381526020019081526020015f2054905092915050565b5f6012905090565b5f620151804261094e9190611889565b905090565b61095b610e51565b6109658282610ed8565b5050565b5f80620151804261097a9190611889565b90508060075f8573ffffffffffffffffffffffffffffffffffffffff1673ffffffffffffffffffffffffffffffffffffffff1681526020019081526020015f205410156109cb57600f915050610a3d565b5f60065f8573ffffffffffffffffffffffffffffffffffffffff1673ffffffffffffffffffffffffffffffffffffffff1681526020019081526020015f205f8381526020019081526020015f20549050600f811015610a365780600f610a319190611968565b610a38565b5f5b925050505b919050565b5f805f8373ffffffffffffffffffffffffffffffffffffffff1673ffffffffffffffffffffffffffffffffffffffff1681526020019081526020015f20549050919050565b610a8f610e51565b610a985f610f57565b565b5f60055f9054906101000a900473ffffffffffffffffffffffffffffffffffffffff16905090565b606060048054610ad190611797565b80601f0160208091040260200160405190810160405280929190818152602001828054610afd90611797565b8015610b485780601f10610b1f57610100808354040283529160200191610b48565b820191905f5260205f20905b815481529060010190602001808311610b2b57829003601f168201915b5050505050905090565b610b5a610e51565b610b64828261101a565b5050565b5f80610b72610cb5565b9050610b7f818585610d61565b600191505092915050565b600f81565b5f60015f8473ffffffffffffffffffffffffffffffffffffffff1673ffffffffffffffffffffffffffffffffffffffff1681526020019081526020015f205f8373ffffffffffffffffffffffffffffffffffffffff1673ffffffffffffffffffffffffffffffffffffffff1681526020019081526020015f2054905092915050565b6006602052815f5260405f20602052805f5260405f205f91509150505481565b610c39610e51565b5f73ffffffffffffffffffffffffffffffffffffffff168173ffffffffffffffffffffffffffffffffffffffff1603610ca9575f6040517f1e4fbdf7000000000000000000000000000000000000000000000000000000008152600401610ca09190611751565b60405180910390fd5b610cb281610f57565b50565b5f33905090565b610cc98383836001611099565b505050565b5f610cd98484610b8f565b90507fffffffffffffffffffffffffffffffffffffffffffffffffffffffffffffffff811015610d5b5781811015610d4c578281836040517ffb8f41b2000000000000000000000000000000000000000000000000000000008152600401610d439392919061199b565b60405180910390fd5b610d5a84848484035f611099565b5b50505050565b5f73ffffffffffffffffffffffffffffffffffffffff168373ffffffffffffffffffffffffffffffffffffffff1603610dd1575f6040517f96c6fd1e000000000000000000000000000000000000000000000000000000008152600401610dc89190611751565b60405180910390fd5b5f73ffffffffffffffffffffffffffffffffffffffff168273ffffffffffffffffffffffffffffffffffffffff1603610e41575f6040517fec442f05000000000000000000000000000000000000000000000000000000008152600401610e389190611751565b60405180910390fd5b610e4c838383611268565b505050565b610e59610cb5565b73ffffffffffffffffffffffffffffffffffffffff16610e77610a9a565b73ffffffffffffffffffffffffffffffffffffffff1614610ed657610e9a610cb5565b6040517f118cdaa7000000000000000000000000000000000000000000000000000000008152600401610ecd9190611751565b60405180910390fd5b565b5f73ffffffffffffffffffffffffffffffffffffffff168273ffffffffffffffffffffffffffffffffffffffff1603610f48575f6040517fec442f05000000000000000000000000000000000000000000000000000000008152600401610f3f9190611751565b60405180910390fd5b610f535f8383611268565b5050565b5f60055f9054906101000a900473ffffffffffffffffffffffffffffffffffffffff1690508160055f6101000a81548173ffffffffffffffffffffffffffffffffffffffff021916908373ffffffffffffffffffffffffffffffffffffffff1602179055508173ffffffffffffffffffffffffffffffffffffffff168173ffffffffffffffffffffffffffffffffffffffff167f8be0079c531659141344cd1fd0a4f28419497f9722a3daafe3b4186f6b6457e060405160405180910390a35050565b5f73ffffffffffffffffffffffffffffffffffffffff168273ffffffffffffffffffffffffffffffffffffffff160361108a575f6040517f96c6fd1e0000000000000000000000000000000000000000000000000000000081526004016110819190611751565b60405180910390fd5b611095825f83611268565b5050565b5f73ffffffffffffffffffffffffffffffffffffffff168473ffffffffffffffffffffffffffffffffffffffff1603611109575f6040517fe602df050000000000000000000000000000000000000000000000000000000081526004016111009190611751565b60405180910390fd5b5f73ffffffffffffffffffffffffffffffffffffffff168373ffffffffffffffffffffffffffffffffffffffff1603611179575f6040517f94280d620000000000000000000000000000000000000000000000000000000081526004016111709190611751565b60405180910390fd5b8160015f8673ffffffffffffffffffffffffffffffffffffffff1673ffffffffffffffffffffffffffffffffffffffff1681526020019081526020015f205f8573ffffffffffffffffffffffffffffffffffffffff1673ffffffffffffffffffffffffffffffffffffffff1681526020019081526020015f20819055508015611262578273ffffffffffffffffffffffffffffffffffffffff168473ffffffffffffffffffffffffffffffffffffffff167f8c5be1e5ebec7d5bd14f71427d1e84f3dd0314c0f7b2291e5b200ac8c7c3b925846040516112599190611667565b60405180910390a35b50505050565b5f73ffffffffffffffffffffffffffffffffffffffff168373ffffffffffffffffffffffffffffffffffffffff16036112b8578060025f8282546112ac91906119d0565b92505081905550611386565b5f805f8573ffffffffffffffffffffffffffffffffffffffff1673ffffffffffffffffffffffffffffffffffffffff1681526020019081526020015f2054905081811015611341578381836040517fe450d38c0000000000000000000000000000000000000000000000000000000081526004016113389392919061199b565b60405180910390fd5b8181035f808673ffffffffffffffffffffffffffffffffffffffff1673ffffffffffffffffffffffffffffffffffffffff1681526020019081526020015f2081905550505b5f73ffffffffffffffffffffffffffffffffffffffff168273ffffffffffffffffffffffffffffffffffffffff16036113cd578060025f8282540392505081905550611417565b805f808473ffffffffffffffffffffffffffffffffffffffff1673ffffffffffffffffffffffffffffffffffffffff1681526020019081526020015f205f82825401925050819055505b8173ffffffffffffffffffffffffffffffffffffffff168373ffffffffffffffffffffffffffffffffffffffff167fddf252ad1be2c89b69c2b068fc378daa952ba7f163c4a11628f55a4df523b3ef836040516114749190611667565b60405180910390a3505050565b5f81519050919050565b5f82825260208201905092915050565b5f5b838110156114b857808201518184015260208101905061149d565b5f8484015250505050565b5f601f19601f8301169050919050565b5f6114dd82611481565b6114e7818561148b565b93506114f781856020860161149b565b611500816114c3565b840191505092915050565b5f6020820190508181035f83015261152381846114d3565b905092915050565b5f80fd5b5f73ffffffffffffffffffffffffffffffffffffffff82169050919050565b5f6115588261152f565b9050919050565b6115688161154e565b8114611572575f80fd5b50565b5f813590506115838161155f565b92915050565b5f819050919050565b61159b81611589565b81146115a5575f80fd5b50565b5f813590506115b681611592565b92915050565b5f80604083850312156115d2576115d161152b565b5b5f6115df85828601611575565b92505060206115f0858286016115a8565b9150509250929050565b5f8115159050919050565b61160e816115fa565b82525050565b5f6020820190506116275f830184611605565b92915050565b5f602082840312156116425761164161152b565b5b5f61164f84828501611575565b91505092915050565b61166181611589565b82525050565b5f60208201905061167a5f830184611658565b92915050565b5f805f606084860312156116975761169661152b565b5b5f6116a486828701611575565b93505060206116b586828701611575565b92505060406116c6868287016115a8565b9150509250925092565b5f80604083850312156116e6576116e561152b565b5b5f6116f385828601611575565b925050602061170485828601611575565b9150509250929050565b5f60ff82169050919050565b6117238161170e565b82525050565b5f60208201905061173c5f83018461171a565b92915050565b61174b8161154e565b82525050565b5f6020820190506117645f830184611742565b92915050565b7f4e487b71000000000000000000000000000000000000000000000000000000005f52602260045260245ffd5b5f60028204905060018216806117ae57607f821691505b6020821081036117c1576117c061176a565b5b50919050565b7f4b494e443a2043616e6e6f742068656c7020796f757273656c660000000000005f82015250565b5f6117fb601a8361148b565b9150611806826117c7565b602082019050919050565b5f6020820190508181035f830152611828816117ef565b9050919050565b7f4e487b71000000000000000000000000000000000000000000000000000000005f52601260045260245ffd5b7f4e487b71000000000000000000000000000000000000000000000000000000005f52601160045260245ffd5b5f61189382611589565b915061189e83611589565b9250826118ae576118ad61182f565b5b828204905092915050565b7f4b494e443a204461696c792068656c70206c696d6974207265616368656400005f82015250565b5f6118ed601e8361148b565b91506118f8826118b9565b602082019050919050565b5f6020820190508181035f83015261191a816118e1565b9050919050565b5f61192b82611589565b91507fffffffffffffffffffffffffffffffffffffffffffffffffffffffffffffffff820361195d5761195c61185c565b5b600182019050919050565b5f61197282611589565b915061197d83611589565b92508282039050818111156119955761199461185c565b5b92915050565b5f6060820190506119ae5f830186611742565b6119bb6020830185611658565b6119c86040830184611658565b949350505050565b5f6119da82611589565b91506119e583611589565b92508282019050808211156119fd576119fc61185c565b5b9291505056fea2646970667358221220fd0789b1485c70d62c4520109239d7eedf5e4caf17eca0c898b681f6fc0b54c664736f6c63430008180033","linkReferences":{}},"methodIdentifiers":{"DAILY_HELP_LIMIT()":"b58c5f22","HELP_REWARD()":"208a4c3d","allowance(address,address)":"dd62ed3e","approve(address,uint256)":"095ea7b3","balanceOf(address)":"70a08231","burn(address,uint256)":"9dc29fac","dailyHelpCount(address,uint256)":"e78baf61","decimals()":"313ce567","getCurrentDay()":"3e6968b6","getDailyHelpCount(address,uint256)":"2cbcd78e","getRemainingDailyHelps(address)":"61179b4c","lastHelpDay(address)":"1309d055","mint(address,uint256)":"40c10f19","name()":"06fdde03","owner()":"8da5cb5b","renounceOwnership()":"715018a6","rewardKindness(address,address)":"266d161a","symbol()":"95d89b41","totalSupply()":"18160ddd","transfer(address,uint256)":"a9059cbb","transferFrom(address,address,uint256)":"23b872dd","transferOwnership(address)":"f2fde38b"},"id":41}