{"abi":[{"type":"constructor","inputs":[{"name":"totalLands","type":"uint256","internalType":"uint256"}],"stateMutability":"nonpayable"},{"type":"function","name":"COOLDOWN_PERIOD","inputs":[],"outputs":[{"name":"","type":"uint256","internalType":"uint256"}],"stateMutability":"view"},{"type":"function","name":"MAX_WEATHER_SEGMENTS","inputs":[],"outputs":[{"name":"","type":"uint256","internalType":"uint256"}],"stateMutability":"view"},{"type":"function","name":"WEATHER_SEGMENT_DURATION","inputs":[],"outputs":[{"name":"","type":"uint256","internalType":"uint256"}],"stateMutability":"view"},{"type":"function","name":"advanceGrowth","inputs":[{"name":"landId","type":"uint256","internalType":"uint256"},{"name":"baseGrowthTime","type":"uint256","internalType":"uint256"}],"outputs":[{"name":"isRipe","type":"bool","internalType":"bool"}],"stateMutability":"nonpayable"},{"type":"function","name":"approve","inputs":[{"name":"to","type":"address","internalType":"address"},{"name":"tokenId","type":"uint256","internalType":"uint256"}],"outputs":[],"stateMutability":"nonpayable"},{"type":"function","name":"balanceOf","inputs":[{"name":"owner","type":"address","internalType":"address"}],"outputs":[{"name":"","type":"uint256","internalType":"uint256"}],"stateMutability":"view"},{"type":"function","name":"checkAndUpdateIdleStatus","inputs":[],"outputs":[],"stateMutability":"nonpayable"},{"type":"function","name":"claimLand","inputs":[{"name":"landId","type":"uint256","internalType":"uint256"},{"name":"seedTokenId","type":"uint256","internalType":"uint256"},{"name":"farmer","type":"address","internalType":"address"}],"outputs":[],"stateMutability":"nonpayable"},{"type":"function","name":"getApproved","inputs":[{"name":"tokenId","type":"uint256","internalType":"uint256"}],"outputs":[{"name":"","type":"address","internalType":"address"}],"stateMutability":"view"},{"type":"function","name":"getAvailableLands","inputs":[],"outputs":[{"name":"","type":"uint256[]","internalType":"uint256[]"}],"stateMutability":"view"},{"type":"function","name":"getLandInfo","inputs":[{"name":"landId","type":"uint256","internalType":"uint256"}],"outputs":[{"name":"","type":"tuple","internalType":"struct LandNFT.LandInfo","components":[{"name":"state","type":"uint8","internalType":"enum LandNFT.LandState"},{"name":"seedTokenId","type":"uint256","internalType":"uint256"},{"name":"claimTime","type":"uint256","internalType":"uint256"},{"name":"lockEndTime","type":"uint256","internalType":"uint256"},{"name":"weatherSeed","type":"uint256","internalType":"uint256"},{"name":"lastWeatherUpdateTime","type":"uint256","internalType":"uint256"},{"name":"accumulatedGrowth","type":"uint256","internalType":"uint256"},{"name":"currentFarmer","type":"address","internalType":"address"}]}],"stateMutability":"view"},{"type":"function","name":"getTotalLands","inputs":[],"outputs":[{"name":"","type":"uint256","internalType":"uint256"}],"stateMutability":"view"},{"type":"function","name":"harvestCrop","inputs":[{"name":"landId","type":"uint256","internalType":"uint256"}],"outputs":[],"stateMutability":"nonpayable"},{"type":"function","name":"isApprovedForAll","inputs":[{"name":"owner","type":"address","internalType":"address"},{"name":"operator","type":"address","internalType":"address"}],"outputs":[{"name":"","type":"bool","internalType":"bool"}],"stateMutability":"view"},{"type":"function","name":"landInfo","inputs":[{"name":"","type":"uint256","internalType":"uint256"}],"outputs":[{"name":"state","type":"uint8","internalType":"enum LandNFT.LandState"},{"name":"seedTokenId","type":"uint256","internalType":"uint256"},{"name":"claimTime","type":"uint256","internalType":"uint256"},{"name":"lockEndTime","type":"uint256","internalType":"uint256"},{"name":"weatherSeed","type":"uint256","internalType":"uint256"},{"name":"lastWeatherUpdateTime","type":"uint256","internalType":"uint256"},{"name":"accumulatedGrowth","type":"uint256","internalType":"uint256"},{"name":"currentFarmer","type":"address","internalType":"address"}],"stateMutability":"view"},{"type":"function","name":"name","inputs":[],"outputs":[{"name":"","type":"string","internalType":"string"}],"stateMutability":"view"},{"type":"function","name":"owner","inputs":[],"outputs":[{"name":"","type":"address","internalType":"address"}],"stateMutability":"view"},{"type":"function","name":"ownerOf","inputs":[{"name":"tokenId","type":"uint256","internalType":"uint256"}],"outputs":[{"name":"","type":"address","internalType":"address"}],"stateMutability":"view"},{"type":"function","name":"renounceOwnership","inputs":[],"outputs":[],"stateMutability":"nonpayable"},{"type":"function","name":"safeTransferFrom","inputs":[{"name":"from","type":"address","internalType":"address"},{"name":"to","type":"address","internalType":"address"},{"name":"tokenId","type":"uint256","internalType":"uint256"}],"outputs":[],"stateMutability":"nonpayable"},{"type":"function","name":"safeTransferFrom","inputs":[{"name":"from","type":"address","internalType":"address"},{"name":"to","type":"address","internalType":"address"},{"name":"tokenId","type":"uint256","internalType":"uint256"},{"name":"data","type":"bytes","internalType":"bytes"}],"outputs":[],"stateMutability":"nonpayable"},{"type":"function","name":"setApprovalForAll","inputs":[{"name":"operator","type":"address","internalType":"address"},{"name":"approved","type":"bool","internalType":"bool"}],"outputs":[],"stateMutability":"nonpayable"},{"type":"function","name":"setBaseURI","inputs":[{"name":"baseURI","type":"string","internalType":"string"}],"outputs":[],"stateMutability":"nonpayable"},{"type":"function","name":"setWeatherSeed","inputs":[{"name":"landId","type":"uint256","internalType":"uint256"},{"name":"weatherSeed","type":"uint256","internalType":"uint256"}],"outputs":[],"stateMutability":"nonpayable"},{"type":"function","name":"simulateWeatherForLand","inputs":[{"name":"landId","type":"uint256","internalType":"uint256"}],"outputs":[{"name":"","type":"uint8[]","internalType":"enum LandNFT.WeatherType[]"},{"name":"","type":"uint256[]","internalType":"uint256[]"}],"stateMutability":"view"},{"type":"function","name":"stealCrop","inputs":[{"name":"landId","type":"uint256","internalType":"uint256"}],"outputs":[],"stateMutability":"nonpayable"},{"type":"function","name":"supportsInterface","inputs":[{"name":"interfaceId","type":"bytes4","internalType":"bytes4"}],"outputs":[{"name":"","type":"bool","internalType":"bool"}],"stateMutability":"view"},{"type":"function","name":"symbol","inputs":[],"outputs":[{"name":"","type":"string","internalType":"string"}],"stateMutability":"view"},{"type":"function","name":"tokenURI","inputs":[{"name":"tokenId","type":"uint256","internalType":"uint256"}],"outputs":[{"name":"","type":"string","internalType":"string"}],"stateMutability":"view"},{"type":"function","name":"transferFrom","inputs":[{"name":"from","type":"address","internalType":"address"},{"name":"to","type":"address","internalType":"address"},{"name":"tokenId","type":"uint256","internalType":"uint256"}],"outputs":[],"stateMutability":"nonpayable"},{"type":"function","name":"transferOwnership","inputs":[{"name":"newOwner","type":"address","internalType":"address"}],"outputs":[],"stateMutability":"nonpayable"},{"type":"event","name":"Approval","inputs":[{"name":"owner","type":"address","indexed":true,"internalType":"address"},{"name":"approved","type":"address","indexed":true,"internalType":"address"},{"name":"tokenId","type":"uint256","indexed":true,"internalType":"uint256"}],"anonymous":false},{"type":"event","name":"ApprovalForAll","inputs":[{"name":"owner","type":"address","indexed":true,"internalType":"address"},{"name":"operator","type":"address","indexed":true,"internalType":"address"},{"name":"approved","type":"bool","indexed":false,"internalType":"bool"}],"anonymous":false},{"type":"event","name":"GrowthProgressUpdated","inputs":[{"name":"landId","type":"uint256","indexed":true,"internalType":"uint256"},{"name":"accumulatedGrowth","type":"uint256","indexed":false,"internalType":"uint256"}],"anonymous":false},{"type":"event","name":"LandClaimed","inputs":[{"name":"landId","type":"uint256","indexed":true,"internalType":"uint256"},{"name":"farmer","type":"address","indexed":true,"internalType":"address"},{"name":"seedTokenId","type":"uint256","indexed":true,"internalType":"uint256"}],"anonymous":false},{"type":"event","name":"LandStateChanged","inputs":[{"name":"landId","type":"uint256","indexed":true,"internalType":"uint256"},{"name":"newState","type":"uint8","indexed":false,"internalType":"enum LandNFT.LandState"}],"anonymous":false},{"type":"event","name":"OwnershipTransferred","inputs":[{"name":"previousOwner","type":"address","indexed":true,"internalType":"address"},{"name":"newOwner","type":"address","indexed":true,"internalType":"address"}],"anonymous":false},{"type":"event","name":"Transfer","inputs":[{"name":"from","type":"address","indexed":true,"internalType":"address"},{"name":"to","type":"address","indexed":true,"internalType":"address"},{"name":"tokenId","type":"uint256","indexed":true,"internalType":"uint256"}],"anonymous":false},{"type":"event","name":"WeatherGenerated","inputs":[{"name":"landId","type":"uint256","indexed":true,"internalType":"uint256"},{"name":"weatherSeed","type":"uint256","indexed":false,"internalType":"uint256"}],"anonymous":false},{"type":"error","name":"ERC721IncorrectOwner","inputs":[{"name":"sender","type":"address","internalType":"address"},{"name":"tokenId","type":"uint256","internalType":"uint256"},{"name":"owner","type":"address","internalType":"address"}]},{"type":"error","name":"ERC721InsufficientApproval","inputs":[{"name":"operator","type":"address","internalType":"address"},{"name":"tokenId","type":"uint256","internalType":"uint256"}]},{"type":"error","name":"ERC721InvalidApprover","inputs":[{"name":"approver","type":"address","internalType":"address"}]},{"type":"error","name":"ERC721InvalidOperator","inputs":[{"name":"operator","type":"address","internalType":"address"}]},{"type":"error","name":"ERC721InvalidOwner","inputs":[{"name":"owner","type":"address","internalType":"address"}]},{"type":"error","name":"ERC721InvalidReceiver","inputs":[{"name":"receiver","type":"address","internalType":"address"}]},{"type":"error","name":"ERC721InvalidSender","inputs":[{"name":"sender","type":"address","internalType":"address"}]},{"type":"error","name":"ERC721NonexistentToken","inputs":[{"name":"tokenId","type":"uint256","internalType":"uint256"}]},{"type":"error","name":"OwnableInvalidOwner","inputs":[{"name":"owner","type":"address","internalType":"address"}]},{"type":"error","name":"OwnableUnauthorizedAccount","inputs":[{"name":"account","type":"address","internalType":"address"}]},{"type":"error","name":"StringsInsufficientHexLength","inputs":[{"name":"value","type":"uint256","internalType":"uint256"},{"name":"length","type":"uint256","internalType":"uint256"}]}],"bytecode":{"object":"0x608060405234801562000010575f80fd5b5060405162006c0c38038062006c0c833981810160405281019062000036919062000be4565b336040518060400160405280600d81526020017f4661726d204c616e64204e4654000000000000000000000000000000000000008152506040518060400160405280600481526020017f4c414e4400000000000000000000000000000000000000000000000000000000815250815f9081620000b3919062000e6f565b508060019081620000c5919062000e6f565b5050505f73ffffffffffffffffffffffffffffffffffffffff168173ffffffffffffffffffffffffffffffffffffffff16036200013b575f6040517f1e4fbdf700000000000000000000000000000000000000000000000000000000815260040162000132919062000f96565b60405180910390fd5b6200014c81620002b260201b60201c565b50806008819055505f5b81811015620002aa576200017130826200037560201b60201c565b6040518061010001604052805f600481111562000193576200019262000fb1565b5b81526020015f81526020015f81526020015f81526020015f81526020015f81526020015f81526020015f73ffffffffffffffffffffffffffffffffffffffff1681525060075f8381526020019081526020015f205f820151815f015f6101000a81548160ff0219169083600481111562000212576200021162000fb1565b5b02179055506020820151816001015560408201518160020155606082015181600301556080820151816004015560a0820151816005015560c0820151816006015560e0820151816007015f6101000a81548173ffffffffffffffffffffffffffffffffffffffff021916908373ffffffffffffffffffffffffffffffffffffffff160217905550905050808060010191505062000156565b505062001035565b5f60065f9054906101000a900473ffffffffffffffffffffffffffffffffffffffff1690508160065f6101000a81548173ffffffffffffffffffffffffffffffffffffffff021916908373ffffffffffffffffffffffffffffffffffffffff1602179055508173ffffffffffffffffffffffffffffffffffffffff168173ffffffffffffffffffffffffffffffffffffffff167f8be0079c531659141344cd1fd0a4f28419497f9722a3daafe3b4186f6b6457e060405160405180910390a35050565b5f73ffffffffffffffffffffffffffffffffffffffff168273ffffffffffffffffffffffffffffffffffffffff1603620003e8575f6040517f64a0ae92000000000000000000000000000000000000000000000000000000008152600401620003df919062000f96565b60405180910390fd5b5f620003fc83835f6200047660201b60201c565b90505f73ffffffffffffffffffffffffffffffffffffffff168173ffffffffffffffffffffffffffffffffffffffff161462000471575f6040517f73c6ac6e00000000000000000000000000000000000000000000000000000000815260040162000468919062000f96565b60405180910390fd5b505050565b5f8062000489846200069c60201b60201c565b90505f73ffffffffffffffffffffffffffffffffffffffff168373ffffffffffffffffffffffffffffffffffffffff1614620004d357620004d2818486620006d560201b60201c565b5b5f73ffffffffffffffffffffffffffffffffffffffff168173ffffffffffffffffffffffffffffffffffffffff161462000567576200051b5f855f80620007a660201b60201c565b600160035f8373ffffffffffffffffffffffffffffffffffffffff1673ffffffffffffffffffffffffffffffffffffffff1681526020019081526020015f205f82825403925050819055505b5f73ffffffffffffffffffffffffffffffffffffffff168573ffffffffffffffffffffffffffffffffffffffff1614620005e757600160035f8773ffffffffffffffffffffffffffffffffffffffff1673ffffffffffffffffffffffffffffffffffffffff1681526020019081526020015f205f82825401925050819055505b8460025f8681526020019081526020015f205f6101000a81548173ffffffffffffffffffffffffffffffffffffffff021916908373ffffffffffffffffffffffffffffffffffffffff160217905550838573ffffffffffffffffffffffffffffffffffffffff168273ffffffffffffffffffffffffffffffffffffffff167fddf252ad1be2c89b69c2b068fc378daa952ba7f163c4a11628f55a4df523b3ef60405160405180910390a4809150509392505050565b5f60025f8381526020019081526020015f205f9054906101000a900473ffffffffffffffffffffffffffffffffffffffff169050919050565b620006e88383836200097d60201b60201c565b620007a1575f73ffffffffffffffffffffffffffffffffffffffff168373ffffffffffffffffffffffffffffffffffffffff16036200076057806040517f7e27328900000000000000000000000000000000000000000000000000000000815260040162000757919062000fef565b60405180910390fd5b81816040517f177e802f000000000000000000000000000000000000000000000000000000008152600401620007989291906200100a565b60405180910390fd5b505050565b8080620007df57505f73ffffffffffffffffffffffffffffffffffffffff168273ffffffffffffffffffffffffffffffffffffffff1614155b1562000928575f620007f78462000a5060201b60201c565b90505f73ffffffffffffffffffffffffffffffffffffffff168373ffffffffffffffffffffffffffffffffffffffff16141580156200086257508273ffffffffffffffffffffffffffffffffffffffff168173ffffffffffffffffffffffffffffffffffffffff1614155b80156200087e57506200087c818462000ae160201b60201c565b155b15620008c357826040517fa9fbf51f000000000000000000000000000000000000000000000000000000008152600401620008ba919062000f96565b60405180910390fd5b81156200092657838573ffffffffffffffffffffffffffffffffffffffff168273ffffffffffffffffffffffffffffffffffffffff167f8c5be1e5ebec7d5bd14f71427d1e84f3dd0314c0f7b2291e5b200ac8c7c3b92560405160405180910390a45b505b8360045f8581526020019081526020015f205f6101000a81548173ffffffffffffffffffffffffffffffffffffffff021916908373ffffffffffffffffffffffffffffffffffffffff16021790555050505050565b5f8073ffffffffffffffffffffffffffffffffffffffff168373ffffffffffffffffffffffffffffffffffffffff161415801562000a4757508273ffffffffffffffffffffffffffffffffffffffff168473ffffffffffffffffffffffffffffffffffffffff161480620009ff5750620009fe848462000ae160201b60201c565b5b8062000a4657508273ffffffffffffffffffffffffffffffffffffffff1662000a2e8362000b6f60201b60201c565b73ffffffffffffffffffffffffffffffffffffffff16145b5b90509392505050565b5f8062000a63836200069c60201b60201c565b90505f73ffffffffffffffffffffffffffffffffffffffff168173ffffffffffffffffffffffffffffffffffffffff160362000ad857826040517f7e27328900000000000000000000000000000000000000000000000000000000815260040162000acf919062000fef565b60405180910390fd5b80915050919050565b5f60055f8473ffffffffffffffffffffffffffffffffffffffff1673ffffffffffffffffffffffffffffffffffffffff1681526020019081526020015f205f8373ffffffffffffffffffffffffffffffffffffffff1673ffffffffffffffffffffffffffffffffffffffff1681526020019081526020015f205f9054906101000a900460ff16905092915050565b5f60045f8381526020019081526020015f205f9054906101000a900473ffffffffffffffffffffffffffffffffffffffff169050919050565b5f80fd5b5f819050919050565b62000bc08162000bac565b811462000bcb575f80fd5b50565b5f8151905062000bde8162000bb5565b92915050565b5f6020828403121562000bfc5762000bfb62000ba8565b5b5f62000c0b8482850162000bce565b91505092915050565b5f81519050919050565b7f4e487b71000000000000000000000000000000000000000000000000000000005f52604160045260245ffd5b7f4e487b71000000000000000000000000000000000000000000000000000000005f52602260045260245ffd5b5f600282049050600182168062000c9057607f821691505b60208210810362000ca65762000ca562000c4b565b5b50919050565b5f819050815f5260205f209050919050565b5f6020601f8301049050919050565b5f82821b905092915050565b5f6008830262000d0a7fffffffffffffffffffffffffffffffffffffffffffffffffffffffffffffffff8262000ccd565b62000d16868362000ccd565b95508019841693508086168417925050509392505050565b5f819050919050565b5f62000d5762000d5162000d4b8462000bac565b62000d2e565b62000bac565b9050919050565b5f819050919050565b62000d728362000d37565b62000d8a62000d818262000d5e565b84845462000cd9565b825550505050565b5f90565b62000da062000d92565b62000dad81848462000d67565b505050565b5b8181101562000dd45762000dc85f8262000d96565b60018101905062000db3565b5050565b601f82111562000e235762000ded8162000cac565b62000df88462000cbe565b8101602085101562000e08578190505b62000e2062000e178562000cbe565b83018262000db2565b50505b505050565b5f82821c905092915050565b5f62000e455f198460080262000e28565b1980831691505092915050565b5f62000e5f838362000e34565b9150826002028217905092915050565b62000e7a8262000c14565b67ffffffffffffffff81111562000e965762000e9562000c1e565b5b62000ea2825462000c78565b62000eaf82828562000dd8565b5f60209050601f83116001811462000ee5575f841562000ed0578287015190505b62000edc858262000e52565b86555062000f4b565b601f19841662000ef58662000cac565b5f5b8281101562000f1e5784890151825560018201915060208501945060208101905062000ef7565b8683101562000f3e578489015162000f3a601f89168262000e34565b8355505b6001600288020188555050505b505050505050565b5f73ffffffffffffffffffffffffffffffffffffffff82169050919050565b5f62000f7e8262000f53565b9050919050565b62000f908162000f72565b82525050565b5f60208201905062000fab5f83018462000f85565b92915050565b7f4e487b71000000000000000000000000000000000000000000000000000000005f52602160045260245ffd5b62000fe98162000bac565b82525050565b5f602082019050620010045f83018462000fde565b92915050565b5f6040820190506200101f5f83018562000f85565b6200102e602083018462000fde565b9392505050565b615bc980620010435f395ff3fe608060405234801561000f575f80fd5b50600436106101e3575f3560e01c8063842e7dba1161010d578063b88d4fde116100a0578063f2fde38b1161006f578063f2fde38b14610581578063f61568bc1461059d578063f9c61bb9146105bb578063fc99cc39146105d7576101e3565b8063b88d4fde146104ce578063c3edcdd1146104ea578063c87b56dd14610521578063e985e9c514610551576101e3565b806397ec3753116100dc57806397ec3753146104705780639bc5aedd1461047a578063a22cb46514610496578063ae1ec92e146104b2576101e3565b8063842e7dba146103f85780638d61a156146104165780638da5cb5b1461043457806395d89b4114610452576101e3565b806342842e0e116101855780636e99d52f116101545780636e99d52f146103705780636f6f9bef1461038e57806370a08231146103be578063715018a6146103ee576101e3565b806342842e0e146102ec57806355f804b3146103085780635d0cc38f146103245780636352211e14610340576101e3565b806306fdde03116101c157806306fdde0314610266578063081812fc14610284578063095ea7b3146102b457806323b872dd146102d0576101e3565b806301ffc9a7146101e7578063032273be146102175780630509b23c14610235575b5f80fd5b61020160048036038101906101fc9190613b28565b610607565b60405161020e9190613b6d565b60405180910390f35b61021f6106e8565b60405161022c9190613b9e565b60405180910390f35b61024f600480360381019061024a9190613be1565b6106ed565b60405161025d929190613dde565b60405180910390f35b61026e610ae0565b60405161027b9190613e9d565b60405180910390f35b61029e60048036038101906102999190613be1565b610b6f565b6040516102ab9190613efc565b60405180910390f35b6102ce60048036038101906102c99190613f3f565b610b8a565b005b6102ea60048036038101906102e59190613f7d565b610ba0565b005b61030660048036038101906103019190613f7d565b610c9f565b005b610322600480360381019061031d919061402e565b610cbe565b005b61033e60048036038101906103399190613be1565b610cdc565b005b61035a60048036038101906103559190613be1565b610df3565b6040516103679190613efc565b60405180910390f35b610378610e04565b6040516103859190613b9e565b60405180910390f35b6103a860048036038101906103a39190613be1565b610e0a565b6040516103b5919061416e565b60405180910390f35b6103d860048036038101906103d39190614188565b610f44565b6040516103e59190613b9e565b60405180910390f35b6103f6610ffa565b005b61040061100d565b60405161040d9190613b9e565b60405180910390f35b61041e611016565b60405161042b91906141b3565b60405180910390f35b61043c6111b7565b6040516104499190613efc565b60405180910390f35b61045a6111df565b6040516104679190613e9d565b60405180910390f35b61047861126f565b005b610494600480360381019061048f91906141d3565b611369565b005b6104b060048036038101906104ab919061424d565b611605565b005b6104cc60048036038101906104c79190613be1565b61161b565b005b6104e860048036038101906104e391906143b3565b611732565b005b61050460048036038101906104ff9190613be1565b611757565b604051610518989796959493929190614442565b60405180910390f35b61053b60048036038101906105369190613be1565b6117c6565b6040516105489190613e9d565b60405180910390f35b61056b600480360381019061056691906144be565b611865565b6040516105789190613b6d565b60405180910390f35b61059b60048036038101906105969190614188565b6118f3565b005b6105a5611977565b6040516105b29190613b9e565b60405180910390f35b6105d560048036038101906105d091906144fc565b61197d565b005b6105f160048036038101906105ec91906144fc565b611aa4565b6040516105fe9190613b6d565b60405180910390f35b5f7f80ac58cd000000000000000000000000000000000000000000000000000000007bffffffffffffffffffffffffffffffffffffffffffffffffffffffff1916827bffffffffffffffffffffffffffffffffffffffffffffffffffffffff191614806106d157507f5b5e139f000000000000000000000000000000000000000000000000000000007bffffffffffffffffffffffffffffffffffffffffffffffffffffffff1916827bffffffffffffffffffffffffffffffffffffffffffffffffffffffff1916145b806106e157506106e082611d24565b5b9050919050565b606481565b6060806008548310610734576040517f08c379a000000000000000000000000000000000000000000000000000000000815260040161072b90614584565b60405180910390fd5b6001600481111561074857610747613c35565b5b60075f8581526020019081526020015f205f015f9054906101000a900460ff16600481111561077a57610779613c35565b5b146107ba576040517f08c379a00000000000000000000000000000000000000000000000000000000081526004016107b1906145ec565b60405180910390fd5b5f60075f8581526020019081526020015f20604051806101000160405290815f82015f9054906101000a900460ff1660048111156107fb576107fa613c35565b5b600481111561080d5761080c613c35565b5b8152602001600182015481526020016002820154815260200160038201548152602001600482015481526020016005820154815260200160068201548152602001600782015f9054906101000a900473ffffffffffffffffffffffffffffffffffffffff1673ffffffffffffffffffffffffffffffffffffffff1673ffffffffffffffffffffffffffffffffffffffff168152505090505f4290508160a001518111610950575f67ffffffffffffffff8111156108cd576108cc61428f565b5b6040519080825280602002602001820160405280156108fb5781602001602082028036833780820191505090505b505f67ffffffffffffffff8111156109165761091561428f565b5b6040519080825280602002602001820160405280156109445781602001602082028036833780820191505090505b50935093505050610adb565b5f8260a00151826109619190614637565b90505f610384826109729190614697565b9050606481111561098257606490505b5f8167ffffffffffffffff81111561099d5761099c61428f565b5b6040519080825280602002602001820160405280156109cb5781602001602082028036833780820191505090505b5090505f8267ffffffffffffffff8111156109e9576109e861428f565b5b604051908082528060200260200182016040528015610a175781602001602082028036833780820191505090505b5090505f8660a0015190505f5b84811015610acc575f610a3b896080015184611d8d565b905080858381518110610a5157610a506146c7565b5b60200260200101906003811115610a6b57610a6a613c35565b5b90816003811115610a7f57610a7e613c35565b5b81525050610a8f81610384611e14565b848381518110610aa257610aa16146c7565b5b60200260200101818152505061038483610abc91906146f4565b9250508080600101915050610a24565b50828298509850505050505050505b915091565b60605f8054610aee90614754565b80601f0160208091040260200160405190810160405280929190818152602001828054610b1a90614754565b8015610b655780601f10610b3c57610100808354040283529160200191610b65565b820191905f5260205f20905b815481529060010190602001808311610b4857829003601f168201915b5050505050905090565b5f610b7982611f1d565b50610b8382611fa3565b9050919050565b610b9c8282610b97611fdc565b611fe3565b5050565b5f73ffffffffffffffffffffffffffffffffffffffff168273ffffffffffffffffffffffffffffffffffffffff1603610c10575f6040517f64a0ae92000000000000000000000000000000000000000000000000000000008152600401610c079190613efc565b60405180910390fd5b5f610c238383610c1e611fdc565b611ff5565b90508373ffffffffffffffffffffffffffffffffffffffff168173ffffffffffffffffffffffffffffffffffffffff1614610c99578382826040517f64283d7b000000000000000000000000000000000000000000000000000000008152600401610c9093929190614784565b60405180910390fd5b50505050565b610cb983838360405180602001604052805f815250611732565b505050565b610cc6612200565b818160099182610cd7929190614960565b505050565b610ce4612200565b6008548110610d28576040517f08c379a0000000000000000000000000000000000000000000000000000000008152600401610d1f90614584565b60405180910390fd5b60026004811115610d3c57610d3b613c35565b5b60075f8381526020019081526020015f205f015f9054906101000a900460ff166004811115610d6e57610d6d613c35565b5b14610dae576040517f08c379a0000000000000000000000000000000000000000000000000000000008152600401610da590614a77565b60405180910390fd5b610db781612287565b807fa68b6192c5185cc0b54e584df755b20e08267f0c80462555f30d82e256a13fcf6004604051610de89190614a95565b60405180910390a250565b5f610dfd82611f1d565b9050919050565b61012c81565b610e12613a5d565b6008548210610e56576040517f08c379a0000000000000000000000000000000000000000000000000000000008152600401610e4d90614584565b60405180910390fd5b60075f8381526020019081526020015f20604051806101000160405290815f82015f9054906101000a900460ff166004811115610e9657610e95613c35565b5b6004811115610ea857610ea7613c35565b5b8152602001600182015481526020016002820154815260200160038201548152602001600482015481526020016005820154815260200160068201548152602001600782015f9054906101000a900473ffffffffffffffffffffffffffffffffffffffff1673ffffffffffffffffffffffffffffffffffffffff1673ffffffffffffffffffffffffffffffffffffffff16815250509050919050565b5f8073ffffffffffffffffffffffffffffffffffffffff168273ffffffffffffffffffffffffffffffffffffffff1603610fb5575f6040517f89c62b64000000000000000000000000000000000000000000000000000000008152600401610fac9190613efc565b60405180910390fd5b60035f8373ffffffffffffffffffffffffffffffffffffffff1673ffffffffffffffffffffffffffffffffffffffff1681526020019081526020015f20549050919050565b611002612200565b61100b5f6123ba565b565b5f600854905090565b60605f805b6008548110156110ac575f600481111561103857611037613c35565b5b60075f8381526020019081526020015f205f015f9054906101000a900460ff16600481111561106a57611069613c35565b5b14801561108b575060075f8281526020019081526020015f20600301544210155b1561109f57818061109b90614aae565b9250505b808060010191505061101b565b505f8167ffffffffffffffff8111156110c8576110c761428f565b5b6040519080825280602002602001820160405280156110f65781602001602082028036833780820191505090505b5090505f805b6008548110156111ad575f600481111561111957611118613c35565b5b60075f8381526020019081526020015f205f015f9054906101000a900460ff16600481111561114b5761114a613c35565b5b14801561116c575060075f8281526020019081526020015f20600301544210155b156111a05780838381518110611185576111846146c7565b5b602002602001018181525050818061119c90614aae565b9250505b80806001019150506110fc565b5081935050505090565b5f60065f9054906101000a900473ffffffffffffffffffffffffffffffffffffffff16905090565b6060600180546111ee90614754565b80601f016020809104026020016040519081016040528092919081815260200182805461121a90614754565b80156112655780601f1061123c57610100808354040283529160200191611265565b820191905f5260205f20905b81548152906001019060200180831161124857829003601f168201915b5050505050905090565b5f5b6008548110156113665760048081111561128e5761128d613c35565b5b60075f8381526020019081526020015f205f015f9054906101000a900460ff1660048111156112c0576112bf613c35565b5b1480156112e1575060075f8281526020019081526020015f20600301544210155b15611359575f60075f8381526020019081526020015f205f015f6101000a81548160ff0219169083600481111561131b5761131a613c35565b5b0217905550807fa68b6192c5185cc0b54e584df755b20e08267f0c80462555f30d82e256a13fcf5f6040516113509190614a95565b60405180910390a25b8080600101915050611271565b50565b611371612200565b60085483106113b5576040517f08c379a00000000000000000000000000000000000000000000000000000000081526004016113ac90614584565b60405180910390fd5b60075f8481526020019081526020015f206003015442101561140c576040517f08c379a000000000000000000000000000000000000000000000000000000000815260040161140390614b3f565b60405180910390fd5b5f600481111561141f5761141e613c35565b5b60075f8581526020019081526020015f205f015f9054906101000a900460ff16600481111561145157611450613c35565b5b14611491576040517f08c379a000000000000000000000000000000000000000000000000000000000815260040161148890614ba7565b60405180910390fd5b600160075f8581526020019081526020015f205f015f6101000a81548160ff021916908360048111156114c7576114c6613c35565b5b02179055508160075f8581526020019081526020015f20600101819055504260075f8581526020019081526020015f20600201819055508060075f8581526020019081526020015f206007015f6101000a81548173ffffffffffffffffffffffffffffffffffffffff021916908373ffffffffffffffffffffffffffffffffffffffff1602179055504260075f8581526020019081526020015f20600501819055505f60075f8581526020019081526020015f2060060181905550818173ffffffffffffffffffffffffffffffffffffffff16847f6c96f21f0d48881f19859561dc00eb95e4ca177c49329b14757f453a8063231460405160405180910390a4827fa68b6192c5185cc0b54e584df755b20e08267f0c80462555f30d82e256a13fcf60016040516115f89190614a95565b60405180910390a2505050565b611617611610611fdc565b838361247d565b5050565b611623612200565b6008548110611667576040517f08c379a000000000000000000000000000000000000000000000000000000000815260040161165e90614584565b60405180910390fd5b6002600481111561167b5761167a613c35565b5b60075f8381526020019081526020015f205f015f9054906101000a900460ff1660048111156116ad576116ac613c35565b5b146116ed576040517f08c379a00000000000000000000000000000000000000000000000000000000081526004016116e490614a77565b60405180910390fd5b6116f681612287565b807fa68b6192c5185cc0b54e584df755b20e08267f0c80462555f30d82e256a13fcf60046040516117279190614a95565b60405180910390a250565b61173d848484610ba0565b611751611748611fdc565b858585856125e6565b50505050565b6007602052805f5260405f205f91509050805f015f9054906101000a900460ff1690806001015490806002015490806003015490806004015490806005015490806006015490806007015f9054906101000a900473ffffffffffffffffffffffffffffffffffffffff16905088565b6060600854821061180c576040517f08c379a000000000000000000000000000000000000000000000000000000000815260040161180390614c35565b60405180910390fd5b5f6009805461181a90614754565b9050111561185457600961182d83612792565b60405160200161183e929190614d0d565b6040516020818303038152906040529050611860565b61185d8261285c565b90505b919050565b5f60055f8473ffffffffffffffffffffffffffffffffffffffff1673ffffffffffffffffffffffffffffffffffffffff1681526020019081526020015f205f8373ffffffffffffffffffffffffffffffffffffffff1673ffffffffffffffffffffffffffffffffffffffff1681526020019081526020015f205f9054906101000a900460ff16905092915050565b6118fb612200565b5f73ffffffffffffffffffffffffffffffffffffffff168173ffffffffffffffffffffffffffffffffffffffff160361196b575f6040517f1e4fbdf70000000000000000000000000000000000000000000000000000000081526004016119629190613efc565b60405180910390fd5b611974816123ba565b50565b61038481565b611985612200565b60085482106119c9576040517f08c379a00000000000000000000000000000000000000000000000000000000081526004016119c090614584565b60405180910390fd5b600160048111156119dd576119dc613c35565b5b60075f8481526020019081526020015f205f015f9054906101000a900460ff166004811115611a0f57611a0e613c35565b5b14611a4f576040517f08c379a0000000000000000000000000000000000000000000000000000000008152600401611a46906145ec565b60405180910390fd5b8060075f8481526020019081526020015f2060040181905550817f3bf9ef6d8df9b15ed8cd0236ee8d9fb84334b45f06ddfd480d9e5696ab1f933782604051611a989190613b9e565b60405180910390a25050565b5f611aad612200565b6008548310611af1576040517f08c379a0000000000000000000000000000000000000000000000000000000008152600401611ae890614584565b60405180910390fd5b60016004811115611b0557611b04613c35565b5b60075f8581526020019081526020015f205f015f9054906101000a900460ff166004811115611b3757611b36613c35565b5b14611b77576040517f08c379a0000000000000000000000000000000000000000000000000000000008152600401611b6e906145ec565b60405180910390fd5b5f60075f8581526020019081526020015f2090505f42905081600501548111611ba4575f92505050611d1e565b5f826005015482611bb59190614637565b90505f61038482611bc69190614697565b90506064811115611bd657606490505b5f80856005015490505f5b83811015611c36575f611bf8886004015484611d8d565b90505f611c0782610384611e14565b90508085611c1591906146f4565b945061038484611c2591906146f4565b935050508080600101915050611be1565b5081866006015f828254611c4a91906146f4565b92505081905550808660050181905550887f10caa13a185bdc5a37bc70b48463a88b549267b7d3eac5d10c6ffea74b4b915d8760060154604051611c8e9190613b9e565b60405180910390a287866006015410611d14576002865f015f6101000a81548160ff02191690836004811115611cc757611cc6613c35565b5b0217905550887fa68b6192c5185cc0b54e584df755b20e08267f0c80462555f30d82e256a13fcf6002604051611cfd9190614a95565b60405180910390a260019650505050505050611d1e565b5f96505050505050505b92915050565b5f7f01ffc9a7000000000000000000000000000000000000000000000000000000007bffffffffffffffffffffffffffffffffffffffffffffffffffffffff1916827bffffffffffffffffffffffffffffffffffffffffffffffffffffffff1916149050919050565b5f808383604051602001611da2929190614d50565b604051602081830303815290604052805190602001205f1c90505f606482611dca9190614d7b565b90506028811015611ddf575f92505050611e0e565b6041811015611df357600192505050611e0e565b6050811015611e0757600392505050611e0e565b6002925050505b92915050565b5f806003811115611e2857611e27613c35565b5b836003811115611e3b57611e3a613c35565b5b03611e4857819050611f17565b60016003811115611e5c57611e5b613c35565b5b836003811115611e6f57611e6e613c35565b5b03611e94576064607883611e839190614dab565b611e8d9190614697565b9050611f17565b600380811115611ea757611ea6613c35565b5b836003811115611eba57611eb9613c35565b5b03611edf576064605a83611ece9190614dab565b611ed89190614697565b9050611f17565b60026003811115611ef357611ef2613c35565b5b836003811115611f0657611f05613c35565b5b03611f13575f9050611f17565b8190505b92915050565b5f80611f28836129e0565b90505f73ffffffffffffffffffffffffffffffffffffffff168173ffffffffffffffffffffffffffffffffffffffff1603611f9a57826040517f7e273289000000000000000000000000000000000000000000000000000000008152600401611f919190613b9e565b60405180910390fd5b80915050919050565b5f60045f8381526020019081526020015f205f9054906101000a900473ffffffffffffffffffffffffffffffffffffffff169050919050565b5f33905090565b611ff08383836001612a19565b505050565b5f80612000846129e0565b90505f73ffffffffffffffffffffffffffffffffffffffff168373ffffffffffffffffffffffffffffffffffffffff161461204157612040818486612bd8565b5b5f73ffffffffffffffffffffffffffffffffffffffff168173ffffffffffffffffffffffffffffffffffffffff16146120cc576120805f855f80612a19565b600160035f8373ffffffffffffffffffffffffffffffffffffffff1673ffffffffffffffffffffffffffffffffffffffff1681526020019081526020015f205f82825403925050819055505b5f73ffffffffffffffffffffffffffffffffffffffff168573ffffffffffffffffffffffffffffffffffffffff161461214b57600160035f8773ffffffffffffffffffffffffffffffffffffffff1673ffffffffffffffffffffffffffffffffffffffff1681526020019081526020015f205f82825401925050819055505b8460025f8681526020019081526020015f205f6101000a81548173ffffffffffffffffffffffffffffffffffffffff021916908373ffffffffffffffffffffffffffffffffffffffff160217905550838573ffffffffffffffffffffffffffffffffffffffff168273ffffffffffffffffffffffffffffffffffffffff167fddf252ad1be2c89b69c2b068fc378daa952ba7f163c4a11628f55a4df523b3ef60405160405180910390a4809150509392505050565b612208611fdc565b73ffffffffffffffffffffffffffffffffffffffff166122266111b7565b73ffffffffffffffffffffffffffffffffffffffff161461228557612249611fdc565b6040517f118cdaa700000000000000000000000000000000000000000000000000000000815260040161227c9190613efc565b60405180910390fd5b565b600460075f8381526020019081526020015f205f015f6101000a81548160ff021916908360048111156122bd576122bc613c35565b5b02179055505f60075f8381526020019081526020015f20600101819055505f60075f8381526020019081526020015f206002018190555061012c4261230291906146f4565b60075f8381526020019081526020015f20600301819055505f60075f8381526020019081526020015f20600401819055505f60075f8381526020019081526020015f20600501819055505f60075f8381526020019081526020015f20600601819055505f60075f8381526020019081526020015f206007015f6101000a81548173ffffffffffffffffffffffffffffffffffffffff021916908373ffffffffffffffffffffffffffffffffffffffff16021790555050565b5f60065f9054906101000a900473ffffffffffffffffffffffffffffffffffffffff1690508160065f6101000a81548173ffffffffffffffffffffffffffffffffffffffff021916908373ffffffffffffffffffffffffffffffffffffffff1602179055508173ffffffffffffffffffffffffffffffffffffffff168173ffffffffffffffffffffffffffffffffffffffff167f8be0079c531659141344cd1fd0a4f28419497f9722a3daafe3b4186f6b6457e060405160405180910390a35050565b5f73ffffffffffffffffffffffffffffffffffffffff168273ffffffffffffffffffffffffffffffffffffffff16036124ed57816040517f5b08ba180000000000000000000000000000000000000000000000000000000081526004016124e49190613efc565b60405180910390fd5b8060055f8573ffffffffffffffffffffffffffffffffffffffff1673ffffffffffffffffffffffffffffffffffffffff1681526020019081526020015f205f8473ffffffffffffffffffffffffffffffffffffffff1673ffffffffffffffffffffffffffffffffffffffff1681526020019081526020015f205f6101000a81548160ff0219169083151502179055508173ffffffffffffffffffffffffffffffffffffffff168373ffffffffffffffffffffffffffffffffffffffff167f17307eab39ab6107e8899845ad3d59bd9653f200f220920489ca2b5937696c31836040516125d99190613b6d565b60405180910390a3505050565b5f8373ffffffffffffffffffffffffffffffffffffffff163b111561278b578273ffffffffffffffffffffffffffffffffffffffff1663150b7a02868685856040518563ffffffff1660e01b81526004016126449493929190614e3e565b6020604051808303815f875af192505050801561267f57506040513d601f19601f8201168201806040525081019061267c9190614e9c565b60015b612700573d805f81146126ad576040519150601f19603f3d011682016040523d82523d5f602084013e6126b2565b606091505b505f8151036126f857836040517f64a0ae920000000000000000000000000000000000000000000000000000000081526004016126ef9190613efc565b60405180910390fd5b805160208201fd5b63150b7a0260e01b7bffffffffffffffffffffffffffffffffffffffffffffffffffffffff1916817bffffffffffffffffffffffffffffffffffffffffffffffffffffffff19161461278957836040517f64a0ae920000000000000000000000000000000000000000000000000000000081526004016127809190613efc565b60405180910390fd5b505b5050505050565b60605f60016127a084612c9b565b0190505f8167ffffffffffffffff8111156127be576127bd61428f565b5b6040519080825280601f01601f1916602001820160405280156127f05781602001600182028036833780820191505090505b5090505f82602083010190505b600115612851578080600190039150507f3031323334353637383961626364656600000000000000000000000000000000600a86061a8153600a85816128465761284561466a565b5b0494505f85036127fd575b819350505050919050565b60605f60075f8481526020019081526020015f20604051806101000160405290815f82015f9054906101000a900460ff16600481111561289f5761289e613c35565b5b60048111156128b1576128b0613c35565b5b8152602001600182015481526020016002820154815260200160038201548152602001600482015481526020016005820154815260200160068201548152602001600782015f9054906101000a900473ffffffffffffffffffffffffffffffffffffffff1673ffffffffffffffffffffffffffffffffffffffff1673ffffffffffffffffffffffffffffffffffffffff168152505090505f61295284612dec565b90505f612960858484612f67565b90505f61296c86612792565b612978855f0151613156565b8461298789885f0151886133a1565b8560405160200161299c95949392919061513d565b60405160208183030381529060405290506129b6816133e0565b6040516020016129c69190615234565b604051602081830303815290604052945050505050919050565b5f60025f8381526020019081526020015f205f9054906101000a900473ffffffffffffffffffffffffffffffffffffffff169050919050565b8080612a5157505f73ffffffffffffffffffffffffffffffffffffffff168273ffffffffffffffffffffffffffffffffffffffff1614155b15612b83575f612a6084611f1d565b90505f73ffffffffffffffffffffffffffffffffffffffff168373ffffffffffffffffffffffffffffffffffffffff1614158015612aca57508273ffffffffffffffffffffffffffffffffffffffff168173ffffffffffffffffffffffffffffffffffffffff1614155b8015612add5750612adb8184611865565b155b15612b1f57826040517fa9fbf51f000000000000000000000000000000000000000000000000000000008152600401612b169190613efc565b60405180910390fd5b8115612b8157838573ffffffffffffffffffffffffffffffffffffffff168273ffffffffffffffffffffffffffffffffffffffff167f8c5be1e5ebec7d5bd14f71427d1e84f3dd0314c0f7b2291e5b200ac8c7c3b92560405160405180910390a45b505b8360045f8581526020019081526020015f205f6101000a81548173ffffffffffffffffffffffffffffffffffffffff021916908373ffffffffffffffffffffffffffffffffffffffff16021790555050505050565b612be38383836133f3565b612c96575f73ffffffffffffffffffffffffffffffffffffffff168373ffffffffffffffffffffffffffffffffffffffff1603612c5757806040517f7e273289000000000000000000000000000000000000000000000000000000008152600401612c4e9190613b9e565b60405180910390fd5b81816040517f177e802f000000000000000000000000000000000000000000000000000000008152600401612c8d929190615255565b60405180910390fd5b505050565b5f805f90507a184f03e93ff9f4daa797ed6e38ed64bf6a1f0100000000000000008310612cf7577a184f03e93ff9f4daa797ed6e38ed64bf6a1f0100000000000000008381612ced57612cec61466a565b5b0492506040810190505b6d04ee2d6d415b85acef81000000008310612d34576d04ee2d6d415b85acef81000000008381612d2a57612d2961466a565b5b0492506020810190505b662386f26fc100008310612d6357662386f26fc100008381612d5957612d5861466a565b5b0492506010810190505b6305f5e1008310612d8c576305f5e1008381612d8257612d8161466a565b5b0492506008810190505b6127108310612db1576127108381612da757612da661466a565b5b0492506004810190505b60648310612dd45760648381612dca57612dc961466a565b5b0492506002810190505b600a8310612de3576001810190505b80915050919050565b60605f60075f8481526020019081526020015f20604051806101000160405290815f82015f9054906101000a900460ff166004811115612e2f57612e2e613c35565b5b6004811115612e4157612e40613c35565b5b8152602001600182015481526020016002820154815260200160038201548152602001600482015481526020016005820154815260200160068201548152602001600782015f9054906101000a900473ffffffffffffffffffffffffffffffffffffffff1673ffffffffffffffffffffffffffffffffffffffff1673ffffffffffffffffffffffffffffffffffffffff168152505090505f816080015103612f21576040518060400160405280600781526020017f556e6b6e6f776e00000000000000000000000000000000000000000000000000815250915050612f62565b5f4290505f6103848083612f359190614697565b612f3f9190614dab565b90505f612f50846080015183611d8d565b9050612f5b816134b3565b9450505050505b919050565b60605f612f7385612792565b612f7f855f0151613156565b84604051602001612f92939291906154aa565b60405160208183030381529060405290505f60405180602001604052805f81525090505f73ffffffffffffffffffffffffffffffffffffffff168560e0015173ffffffffffffffffffffffffffffffffffffffff161461303557806130128660e0015173ffffffffffffffffffffffffffffffffffffffff166014613695565b60405160200161302392919061558c565b60405160208183030381529060405290505b5f85602001511115613072578061304f8660200151612792565b60405160200161306092919061567f565b60405160208183030381529060405290505b5f856040015111156130af578061308c8660400151612792565b60405160200161309d929190615772565b60405160208183030381529060405290505b5f856060015111156130ec57806130c98660600151612792565b6040516020016130da92919061581b565b60405160208183030381529060405290505b5f8560c00151111561312957806131068660c00151612792565b604051602001613117929190615934565b60405160208183030381529060405290505b818160405160200161313c9291906159b7565b604051602081830303815290604052925050509392505050565b60605f600481111561316b5761316a613c35565b5b82600481111561317e5761317d613c35565b5b036131c0576040518060400160405280600481526020017f49646c6500000000000000000000000000000000000000000000000000000000815250905061339c565b600160048111156131d4576131d3613c35565b5b8260048111156131e7576131e6613c35565b5b03613229576040518060400160405280600781526020017f47726f77696e6700000000000000000000000000000000000000000000000000815250905061339c565b6002600481111561323d5761323c613c35565b5b8260048111156132505761324f613c35565b5b03613292576040518060400160405280600481526020017f5269706500000000000000000000000000000000000000000000000000000000815250905061339c565b600360048111156132a6576132a5613c35565b5b8260048111156132b9576132b8613c35565b5b036132fb576040518060400160405280600881526020017f537465616c696e67000000000000000000000000000000000000000000000000815250905061339c565b60048081111561330e5761330d613c35565b5b82600481111561332157613320613c35565b5b03613363576040518060400160405280600b81526020017f4c6f636b65642049646c65000000000000000000000000000000000000000000815250905061339c565b6040518060400160405280600781526020017f556e6b6e6f776e0000000000000000000000000000000000000000000000000081525090505b919050565b60606133ac84612792565b6133b584613156565b836040516020016133c893929190615ae9565b60405160208183030381529060405290509392505050565b60606133ec825f6138d3565b9050919050565b5f8073ffffffffffffffffffffffffffffffffffffffff168373ffffffffffffffffffffffffffffffffffffffff16141580156134aa57508273ffffffffffffffffffffffffffffffffffffffff168473ffffffffffffffffffffffffffffffffffffffff16148061346b575061346a8484611865565b5b806134a957508273ffffffffffffffffffffffffffffffffffffffff1661349183611fa3565b73ffffffffffffffffffffffffffffffffffffffff16145b5b90509392505050565b60605f60038111156134c8576134c7613c35565b5b8260038111156134db576134da613c35565b5b0361351d576040518060400160405280600581526020017f53756e6e790000000000000000000000000000000000000000000000000000008152509050613690565b6001600381111561353157613530613c35565b5b82600381111561354457613543613c35565b5b03613586576040518060400160405280600581526020017f5261696e790000000000000000000000000000000000000000000000000000008152509050613690565b6002600381111561359a57613599613c35565b5b8260038111156135ad576135ac613c35565b5b036135ef576040518060400160405280600581526020017f53746f726d0000000000000000000000000000000000000000000000000000008152509050613690565b60038081111561360257613601613c35565b5b82600381111561361557613614613c35565b5b03613657576040518060400160405280600681526020017f436c6f75647900000000000000000000000000000000000000000000000000008152509050613690565b6040518060400160405280600781526020017f556e6b6e6f776e0000000000000000000000000000000000000000000000000081525090505b919050565b60605f8390505f60028460026136ab9190614dab565b6136b591906146f4565b67ffffffffffffffff8111156136ce576136cd61428f565b5b6040519080825280601f01601f1916602001820160405280156137005781602001600182028036833780820191505090505b5090507f3000000000000000000000000000000000000000000000000000000000000000815f81518110613737576137366146c7565b5b60200101907effffffffffffffffffffffffffffffffffffffffffffffffffffffffffffff191690815f1a9053507f78000000000000000000000000000000000000000000000000000000000000008160018151811061379a576137996146c7565b5b60200101907effffffffffffffffffffffffffffffffffffffffffffffffffffffffffffff191690815f1a9053505f60018560026137d89190614dab565b6137e291906146f4565b90505b6001811115613881577f3031323334353637383961626364656600000000000000000000000000000000600f841660108110613824576138236146c7565b5b1a60f81b82828151811061383b5761383a6146c7565b5b60200101907effffffffffffffffffffffffffffffffffffffffffffffffffffffffffffff191690815f1a905350600483901c92508061387a90615b45565b90506137e5565b505f82146138c85784846040517fe22e27eb0000000000000000000000000000000000000000000000000000000081526004016138bf929190615b6c565b60405180910390fd5b809250505092915050565b60605f8351036138f35760405180602001604052805f8152509050613a57565b5f826139245760036002855161390991906146f4565b6139139190614697565b600461391f9190614dab565b61394b565b60036002855160046139369190614dab565b61394091906146f4565b61394a9190614697565b5b905060405191507f4142434445464748494a4b4c4d4e4f505152535455565758595a616263646566601f5261067083027f6768696a6b6c6d6e6f707172737475767778797a303132333435363738392b2f18603f526020820181810185865187016020810180515f82525b82841015613a09576003840193508351603f8160121c16518753600187019650603f81600c1c16518753600187019650603f8160061c16518753600187019650603f8116518753600187019650506139b6565b80825288613a485760038a510660018114613a2b5760028114613a3e57613a46565b603d6001880353603d6002880353613a46565b603d60018803535b505b86885284604052505050505050505b92915050565b6040518061010001604052805f6004811115613a7c57613a7b613c35565b5b81526020015f81526020015f81526020015f81526020015f81526020015f81526020015f81526020015f73ffffffffffffffffffffffffffffffffffffffff1681525090565b5f604051905090565b5f80fd5b5f80fd5b5f7fffffffff0000000000000000000000000000000000000000000000000000000082169050919050565b613b0781613ad3565b8114613b11575f80fd5b50565b5f81359050613b2281613afe565b92915050565b5f60208284031215613b3d57613b3c613acb565b5b5f613b4a84828501613b14565b91505092915050565b5f8115159050919050565b613b6781613b53565b82525050565b5f602082019050613b805f830184613b5e565b92915050565b5f819050919050565b613b9881613b86565b82525050565b5f602082019050613bb15f830184613b8f565b92915050565b613bc081613b86565b8114613bca575f80fd5b50565b5f81359050613bdb81613bb7565b92915050565b5f60208284031215613bf657613bf5613acb565b5b5f613c0384828501613bcd565b91505092915050565b5f81519050919050565b5f82825260208201905092915050565b5f819050602082019050919050565b7f4e487b71000000000000000000000000000000000000000000000000000000005f52602160045260245ffd5b60048110613c7357613c72613c35565b5b50565b5f819050613c8382613c62565b919050565b5f613c9282613c76565b9050919050565b613ca281613c88565b82525050565b5f613cb38383613c99565b60208301905092915050565b5f602082019050919050565b5f613cd582613c0c565b613cdf8185613c16565b9350613cea83613c26565b805f5b83811015613d1a578151613d018882613ca8565b9750613d0c83613cbf565b925050600181019050613ced565b5085935050505092915050565b5f81519050919050565b5f82825260208201905092915050565b5f819050602082019050919050565b613d5981613b86565b82525050565b5f613d6a8383613d50565b60208301905092915050565b5f602082019050919050565b5f613d8c82613d27565b613d968185613d31565b9350613da183613d41565b805f5b83811015613dd1578151613db88882613d5f565b9750613dc383613d76565b925050600181019050613da4565b5085935050505092915050565b5f6040820190508181035f830152613df68185613ccb565b90508181036020830152613e0a8184613d82565b90509392505050565b5f81519050919050565b5f82825260208201905092915050565b5f5b83811015613e4a578082015181840152602081019050613e2f565b5f8484015250505050565b5f601f19601f8301169050919050565b5f613e6f82613e13565b613e798185613e1d565b9350613e89818560208601613e2d565b613e9281613e55565b840191505092915050565b5f6020820190508181035f830152613eb58184613e65565b905092915050565b5f73ffffffffffffffffffffffffffffffffffffffff82169050919050565b5f613ee682613ebd565b9050919050565b613ef681613edc565b82525050565b5f602082019050613f0f5f830184613eed565b92915050565b613f1e81613edc565b8114613f28575f80fd5b50565b5f81359050613f3981613f15565b92915050565b5f8060408385031215613f5557613f54613acb565b5b5f613f6285828601613f2b565b9250506020613f7385828601613bcd565b9150509250929050565b5f805f60608486031215613f9457613f93613acb565b5b5f613fa186828701613f2b565b9350506020613fb286828701613f2b565b9250506040613fc386828701613bcd565b9150509250925092565b5f80fd5b5f80fd5b5f80fd5b5f8083601f840112613fee57613fed613fcd565b5b8235905067ffffffffffffffff81111561400b5761400a613fd1565b5b60208301915083600182028301111561402757614026613fd5565b5b9250929050565b5f806020838503121561404457614043613acb565b5b5f83013567ffffffffffffffff81111561406157614060613acf565b5b61406d85828601613fd9565b92509250509250929050565b6005811061408a57614089613c35565b5b50565b5f81905061409a82614079565b919050565b5f6140a98261408d565b9050919050565b6140b98161409f565b82525050565b6140c881613edc565b82525050565b61010082015f8201516140e35f8501826140b0565b5060208201516140f66020850182613d50565b5060408201516141096040850182613d50565b50606082015161411c6060850182613d50565b50608082015161412f6080850182613d50565b5060a082015161414260a0850182613d50565b5060c082015161415560c0850182613d50565b5060e082015161416860e08501826140bf565b50505050565b5f610100820190506141825f8301846140ce565b92915050565b5f6020828403121561419d5761419c613acb565b5b5f6141aa84828501613f2b565b91505092915050565b5f6020820190508181035f8301526141cb8184613d82565b905092915050565b5f805f606084860312156141ea576141e9613acb565b5b5f6141f786828701613bcd565b935050602061420886828701613bcd565b925050604061421986828701613f2b565b9150509250925092565b61422c81613b53565b8114614236575f80fd5b50565b5f8135905061424781614223565b92915050565b5f806040838503121561426357614262613acb565b5b5f61427085828601613f2b565b925050602061428185828601614239565b9150509250929050565b5f80fd5b7f4e487b71000000000000000000000000000000000000000000000000000000005f52604160045260245ffd5b6142c582613e55565b810181811067ffffffffffffffff821117156142e4576142e361428f565b5b80604052505050565b5f6142f6613ac2565b905061430282826142bc565b919050565b5f67ffffffffffffffff8211156143215761432061428f565b5b61432a82613e55565b9050602081019050919050565b828183375f83830152505050565b5f61435761435284614307565b6142ed565b9050828152602081018484840111156143735761437261428b565b5b61437e848285614337565b509392505050565b5f82601f83011261439a57614399613fcd565b5b81356143aa848260208601614345565b91505092915050565b5f805f80608085870312156143cb576143ca613acb565b5b5f6143d887828801613f2b565b94505060206143e987828801613f2b565b93505060406143fa87828801613bcd565b925050606085013567ffffffffffffffff81111561441b5761441a613acf565b5b61442787828801614386565b91505092959194509250565b61443c8161409f565b82525050565b5f610100820190506144565f83018b614433565b614463602083018a613b8f565b6144706040830189613b8f565b61447d6060830188613b8f565b61448a6080830187613b8f565b61449760a0830186613b8f565b6144a460c0830185613b8f565b6144b160e0830184613eed565b9998505050505050505050565b5f80604083850312156144d4576144d3613acb565b5b5f6144e185828601613f2b565b92505060206144f285828601613f2b565b9150509250929050565b5f806040838503121561451257614511613acb565b5b5f61451f85828601613bcd565b925050602061453085828601613bcd565b9150509250929050565b7f4c616e644e46543a204c616e6420646f6573206e6f74206578697374000000005f82015250565b5f61456e601c83613e1d565b91506145798261453a565b602082019050919050565b5f6020820190508181035f83015261459b81614562565b9050919050565b7f4c616e644e46543a204c616e64206e6f742067726f77696e67000000000000005f82015250565b5f6145d6601983613e1d565b91506145e1826145a2565b602082019050919050565b5f6020820190508181035f830152614603816145ca565b9050919050565b7f4e487b71000000000000000000000000000000000000000000000000000000005f52601160045260245ffd5b5f61464182613b86565b915061464c83613b86565b92508282039050818111156146645761466361460a565b5b92915050565b7f4e487b71000000000000000000000000000000000000000000000000000000005f52601260045260245ffd5b5f6146a182613b86565b91506146ac83613b86565b9250826146bc576146bb61466a565b5b828204905092915050565b7f4e487b71000000000000000000000000000000000000000000000000000000005f52603260045260245ffd5b5f6146fe82613b86565b915061470983613b86565b92508282019050808211156147215761472061460a565b5b92915050565b7f4e487b71000000000000000000000000000000000000000000000000000000005f52602260045260245ffd5b5f600282049050600182168061476b57607f821691505b60208210810361477e5761477d614727565b5b50919050565b5f6060820190506147975f830186613eed565b6147a46020830185613b8f565b6147b16040830184613eed565b949350505050565b5f82905092915050565b5f819050815f5260205f209050919050565b5f6020601f8301049050919050565b5f82821b905092915050565b5f6008830261481f7fffffffffffffffffffffffffffffffffffffffffffffffffffffffffffffffff826147e4565b61482986836147e4565b95508019841693508086168417925050509392505050565b5f819050919050565b5f61486461485f61485a84613b86565b614841565b613b86565b9050919050565b5f819050919050565b61487d8361484a565b6148916148898261486b565b8484546147f0565b825550505050565b5f90565b6148a5614899565b6148b0818484614874565b505050565b5b818110156148d3576148c85f8261489d565b6001810190506148b6565b5050565b601f821115614918576148e9816147c3565b6148f2846147d5565b81016020851015614901578190505b61491561490d856147d5565b8301826148b5565b50505b505050565b5f82821c905092915050565b5f6149385f198460080261491d565b1980831691505092915050565b5f6149508383614929565b9150826002028217905092915050565b61496a83836147b9565b67ffffffffffffffff8111156149835761498261428f565b5b61498d8254614754565b6149988282856148d7565b5f601f8311600181146149c5575f84156149b3578287013590505b6149bd8582614945565b865550614a24565b601f1984166149d3866147c3565b5f5b828110156149fa578489013582556001820191506020850194506020810190506149d5565b86831015614a175784890135614a13601f891682614929565b8355505b6001600288020188555050505b50505050505050565b7f4c616e644e46543a2043726f70206e6f742072656164790000000000000000005f82015250565b5f614a61601783613e1d565b9150614a6c82614a2d565b602082019050919050565b5f6020820190508181035f830152614a8e81614a55565b9050919050565b5f602082019050614aa85f830184614433565b92915050565b5f614ab882613b86565b91507fffffffffffffffffffffffffffffffffffffffffffffffffffffffffffffffff8203614aea57614ae961460a565b5b600182019050919050565b7f4c616e644e46543a204c616e6420696e20636f6f6c646f776e000000000000005f82015250565b5f614b29601983613e1d565b9150614b3482614af5565b602082019050919050565b5f6020820190508181035f830152614b5681614b1d565b9050919050565b7f4c616e644e46543a204c616e64206e6f7420617661696c61626c6500000000005f82015250565b5f614b91601b83613e1d565b9150614b9c82614b5d565b602082019050919050565b5f6020820190508181035f830152614bbe81614b85565b9050919050565b7f4c616e644e46543a2055524920717565727920666f72206e6f6e6578697374655f8201527f6e7420746f6b656e000000000000000000000000000000000000000000000000602082015250565b5f614c1f602883613e1d565b9150614c2a82614bc5565b604082019050919050565b5f6020820190508181035f830152614c4c81614c13565b9050919050565b5f81905092915050565b5f8154614c6981614754565b614c738186614c53565b9450600182165f8114614c8d5760018114614ca257614cd4565b60ff1983168652811515820286019350614cd4565b614cab856147c3565b5f5b83811015614ccc57815481890152600182019150602081019050614cad565b838801955050505b50505092915050565b5f614ce782613e13565b614cf18185614c53565b9350614d01818560208601613e2d565b80840191505092915050565b5f614d188285614c5d565b9150614d248284614cdd565b91508190509392505050565b5f819050919050565b614d4a614d4582613b86565b614d30565b82525050565b5f614d5b8285614d39565b602082019150614d6b8284614d39565b6020820191508190509392505050565b5f614d8582613b86565b9150614d9083613b86565b925082614da057614d9f61466a565b5b828206905092915050565b5f614db582613b86565b9150614dc083613b86565b9250828202614dce81613b86565b91508282048414831517614de557614de461460a565b5b5092915050565b5f81519050919050565b5f82825260208201905092915050565b5f614e1082614dec565b614e1a8185614df6565b9350614e2a818560208601613e2d565b614e3381613e55565b840191505092915050565b5f608082019050614e515f830187613eed565b614e5e6020830186613eed565b614e6b6040830185613b8f565b8181036060830152614e7d8184614e06565b905095945050505050565b5f81519050614e9681613afe565b92915050565b5f60208284031215614eb157614eb0613acb565b5b5f614ebe84828501614e88565b91505092915050565b7f7b226e616d65223a20224661726d204c616e64202300000000000000000000005f82015250565b5f614efb601583614c53565b9150614f0682614ec7565b601582019050919050565b7f222c0000000000000000000000000000000000000000000000000000000000005f82015250565b5f614f45600283614c53565b9150614f5082614f11565b600282019050919050565b7f226465736372697074696f6e223a202241207069656365206f66206661726d6c5f8201527f616e6420696e2000000000000000000000000000000000000000000000000000602082015250565b5f614fb5602783614c53565b9150614fc082614f5b565b602782019050919050565b7f20737461746520776974682000000000000000000000000000000000000000005f82015250565b5f614fff600c83614c53565b915061500a82614fcb565b600c82019050919050565b7f2077656174686572222c000000000000000000000000000000000000000000005f82015250565b5f615049600a83614c53565b915061505482615015565b600a82019050919050565b7f22696d616765223a2022000000000000000000000000000000000000000000005f82015250565b5f615093600a83614c53565b915061509e8261505f565b600a82019050919050565b7f2261747472696275746573223a200000000000000000000000000000000000005f82015250565b5f6150dd600e83614c53565b91506150e8826150a9565b600e82019050919050565b7f7d000000000000000000000000000000000000000000000000000000000000005f82015250565b5f615127600183614c53565b9150615132826150f3565b600182019050919050565b5f61514782614eef565b91506151538288614cdd565b915061515e82614f39565b915061516982614fa9565b91506151758287614cdd565b915061518082614ff3565b915061518c8286614cdd565b91506151978261503d565b91506151a282615087565b91506151ae8285614cdd565b91506151b982614f39565b91506151c4826150d1565b91506151d08284614cdd565b91506151db8261511b565b91508190509695505050505050565b7f646174613a6170706c69636174696f6e2f6a736f6e3b6261736536342c0000005f82015250565b5f61521e601d83614c53565b9150615229826151ea565b601d82019050919050565b5f61523e82615212565b915061524a8284614cdd565b915081905092915050565b5f6040820190506152685f830185613eed565b6152756020830184613b8f565b9392505050565b7f5b7b2274726169745f74797065223a20224c616e64204944222c202276616c755f8201527f65223a2000000000000000000000000000000000000000000000000000000000602082015250565b5f6152d6602483614c53565b91506152e18261527c565b602482019050919050565b7f2c2022646973706c61795f74797065223a20226e756d626572227d2c000000005f82015250565b5f615320601c83614c53565b915061532b826152ec565b601c82019050919050565b7f7b2274726169745f74797065223a20225374617465222c202276616c7565223a5f8201527f2022000000000000000000000000000000000000000000000000000000000000602082015250565b5f615390602283614c53565b915061539b82615336565b602282019050919050565b7f227d2c00000000000000000000000000000000000000000000000000000000005f82015250565b5f6153da600383614c53565b91506153e5826153a6565b600382019050919050565b7f7b2274726169745f74797065223a202243757272656e742057656174686572225f8201527f2c202276616c7565223a20220000000000000000000000000000000000000000602082015250565b5f61544a602c83614c53565b9150615455826153f0565b602c82019050919050565b7f227d0000000000000000000000000000000000000000000000000000000000005f82015250565b5f615494600283614c53565b915061549f82615460565b600282019050919050565b5f6154b4826152ca565b91506154c08286614cdd565b91506154cb82615314565b91506154d682615384565b91506154e28285614cdd565b91506154ed826153ce565b91506154f88261543e565b91506155048284614cdd565b915061550f82615488565b9150819050949350505050565b7f2c7b2274726169745f74797065223a202243757272656e74204661726d6572225f8201527f2c202276616c7565223a20220000000000000000000000000000000000000000602082015250565b5f615576602c83614c53565b91506155818261551c565b602c82019050919050565b5f6155978285614cdd565b91506155a28261556a565b91506155ae8284614cdd565b91506155b982615488565b91508190509392505050565b7f2c7b2274726169745f74797065223a20225365656420546f6b656e204944222c5f8201527f202276616c7565223a2000000000000000000000000000000000000000000000602082015250565b5f61561f602a83614c53565b915061562a826155c5565b602a82019050919050565b7f2c2022646973706c61795f74797065223a20226e756d626572227d00000000005f82015250565b5f615669601b83614c53565b915061567482615635565b601b82019050919050565b5f61568a8285614cdd565b915061569582615613565b91506156a18284614cdd565b91506156ac8261565d565b91508190509392505050565b7f2c7b2274726169745f74797065223a2022436c61696d2054696d65222c2022765f8201527f616c7565223a2000000000000000000000000000000000000000000000000000602082015250565b5f615712602783614c53565b915061571d826156b8565b602782019050919050565b7f2c2022646973706c61795f74797065223a202264617465227d000000000000005f82015250565b5f61575c601983614c53565b915061576782615728565b601982019050919050565b5f61577d8285614cdd565b915061578882615706565b91506157948284614cdd565b915061579f82615750565b91508190509392505050565b7f2c7b2274726169745f74797065223a20224c6f636b20456e642054696d65222c5f8201527f202276616c7565223a2000000000000000000000000000000000000000000000602082015250565b5f615805602a83614c53565b9150615810826157ab565b602a82019050919050565b5f6158268285614cdd565b9150615831826157f9565b915061583d8284614cdd565b915061584882615750565b91508190509392505050565b7f2c7b2274726169745f74797065223a2022416363756d756c617465642047726f5f8201527f777468222c202276616c7565223a200000000000000000000000000000000000602082015250565b5f6158ae602f83614c53565b91506158b982615854565b602f82019050919050565b7f2c2022646973706c61795f74797065223a20226e756d626572222c2022756e695f8201527f74223a202267726f77746820706f696e7473227d000000000000000000000000602082015250565b5f61591e603483614c53565b9150615929826158c4565b603482019050919050565b5f61593f8285614cdd565b915061594a826158a2565b91506159568284614cdd565b915061596182615912565b91508190509392505050565b7f5d000000000000000000000000000000000000000000000000000000000000005f82015250565b5f6159a1600183614c53565b91506159ac8261596d565b600182019050919050565b5f6159c28285614cdd565b91506159ce8284614cdd565b91506159d982615995565b91508190509392505050565b7f68747470733a2f2f6661726d2d6173736574732e6578616d706c652e636f6d2f5f8201527f6c616e645f000000000000000000000000000000000000000000000000000000602082015250565b5f615a3f602583614c53565b9150615a4a826159e5565b602582019050919050565b7f5f000000000000000000000000000000000000000000000000000000000000005f82015250565b5f615a89600183614c53565b9150615a9482615a55565b600182019050919050565b7f2e706e67000000000000000000000000000000000000000000000000000000005f82015250565b5f615ad3600483614c53565b9150615ade82615a9f565b600482019050919050565b5f615af382615a33565b9150615aff8286614cdd565b9150615b0a82615a7d565b9150615b168285614cdd565b9150615b2182615a7d565b9150615b2d8284614cdd565b9150615b3882615ac7565b9150819050949350505050565b5f615b4f82613b86565b91505f8203615b6157615b6061460a565b5b600182039050919050565b5f604082019050615b7f5f830185613b8f565b615b8c6020830184613b8f565b939250505056fea264697066735822122048a2bfb026410557249d2989c00b1d5a6794679cbd4e68c0913d58c563302acb64736f6c63430008180033","linkReferences":{}},"methodIdentifiers":{"COOLDOWN_PERIOD()":"6e99d52f","MAX_WEATHER_SEGMENTS()":"032273be","WEATHER_SEGMENT_DURATION()":"f61568bc","advanceGrowth(uint256,uint256)":"fc99cc39","approve(address,uint256)":"095ea7b3","balanceOf(address)":"70a08231","checkAndUpdateIdleStatus()":"97ec3753","claimLand(uint256,uint256,address)":"9bc5aedd","getApproved(uint256)":"081812fc","getAvailableLands()":"8d61a156","getLandInfo(uint256)":"6f6f9bef","getTotalLands()":"842e7dba","harvestCrop(uint256)":"5d0cc38f","isApprovedForAll(address,address)":"e985e9c5","landInfo(uint256)":"c3edcdd1","name()":"06fdde03","owner()":"8da5cb5b","ownerOf(uint256)":"6352211e","renounceOwnership()":"715018a6","safeTransferFrom(address,address,uint256)":"42842e0e","safeTransferFrom(address,address,uint256,bytes)":"b88d4fde","setApprovalForAll(address,bool)":"a22cb465","setBaseURI(string)":"55f804b3","setWeatherSeed(uint256,uint256)":"f9c61bb9","simulateWeatherForLand(uint256)":"0509b23c","stealCrop(uint256)":"ae1ec92e","supportsInterface(bytes4)":"01ffc9a7","symbol()":"95d89b41","tokenURI(uint256)":"c87b56dd","transferFrom(address,address,uint256)":"23b872dd","transferOwnership(address)":"f2fde38b"},"id":42}